:020000040800F2
:1000000000002F20693F0108AD830008AF8300087E
:10001000B1830008B3830008B5830008B93F010825
:10002000000000000000000000000000F11A0108BC
:10003000B783000800000000811A01085D3701083D
:10004000B93F0108B93F0108B93F0108B93F0108AC
:10005000B93F0108B93F0108B93F0108B93F01089C
:10006000B93F0108B93F0108B93F0108B93F01088C
:10007000B93F0108B93F0108B93F0108B93F01087C
:10008000B9830008B93F0108B93F0108B93F010829
:10009000B93F0108B93F0108B93F0108B93F01085C
:1000A000B93F0108B93F0108B93F0108B93F01084C
:1000B000B93F0108C1830008CD830008D983000837
:1000C000E5830008B93F0108F1830008B93F010842
:1000D000FD83000809840008B93F0108B93F010801
:1000E000B93F0108B93F0108B93F0108B93F01080C
:1000F000B93F0108B93F0108B93F0108B93F0108FC
:10010000B93F010825840008B93F0108B93F01083B
:10011000B93F0108B93F0108B93F0108B93F0108DB
:10012000B93F0108B93F0108B93F0108B93F0108CB
:10013000B93F0108B93F0108B93F0108B93F0108BB
:10014000B93F0108B93F0108B93F0108B93F0108AB
:10015000B93F010831840008B93F0108B93F0108DF
:10016000B93F0108B93F0108B93F0108B93F01088B
:10017000B93F0108B93F0108B93F0108B93F01087B
:100180003D840008B93F0108B93F0108B93F0108A3
:10019000B93F0108B93F0108B93F0108B93F01085B
:1001A000B93F0108B93F0108B93F0108B93F01084B
:1001B000B93F0108B93F0108B93F0108B93F01083B
:1001C000B93F0108B93F0108B93F0108B93F01082B
:1001D000B93F0108B93F0108B93F0108B93F01081B
:1001E000B93F0108B93F0108B93F0108B93F01080B
:1001F000B93F0108B93F0108B93F0108B93F0108FB
:10020000B93F0108B93F0108B93F0108B93F0108EA
:10021000B93F0108B93F010849840008B93F010806
:10022000B93F0108B93F0108B93F0108B93F0108CA
:10023000B93F0108B93F0108B93F0108B93F0108BA
:10024000B93F0108B93F0108B93F010855840008CA
:10025000618400086D840008B93F010879840008B2
:1002600085840008B93F0108B93F0108B93F01087A
:040270008984000875
:1002800010B5054C237833B9044B13B1044800E092
:1002900000BF0123237010BD24330620000000009E
:1002A0005824040808B5034B1BB10349034800E078
:1002B00000BF08BD000000002833062058240408B1
:1002C00081F0004102E000BF83F0004330B54FEA07
:1002D00041044FEA430594EA050F08BF90EA020F74
:1002E0001FBF54EA000C55EA020C7FEA645C7FEA07
:1002F000655C00F0E2804FEA5454D4EB5555B8BF2A
:100300006D420CDD2C4480EA020281EA030382EA9A
:10031000000083EA010180EA020281EA0303362D2C
:1003200088BF30BD11F0004F4FEA01314FF4801CFF
:100330004CEA113102D0404261EB410113F0004F11
:100340004FEA03334CEA133302D0524263EB4303C8
:1003500094EA050F00F0A780A4F10104D5F1200E66
:100360000DDB02FA0EFC22FA05F2801841F10001C1
:1003700003FA0EF2801843FA05F359410EE0A5F195
:1003800020050EF1200E012A03FA0EFC28BF4CF0C6
:10039000020C43FA05F3C01851EBE37101F000457C
:1003A00007D54FF0000EDCF1000C7EEB00006EEB89
:1003B0000101B1F5801F1BD3B1F5001F0CD3490813
:1003C0005FEA30004FEA3C0C04F101044FEA44526A
:1003D00012F5800F80F09A80BCF1004F08BF5FEAF1
:1003E000500C50F1000041EB045141EA050130BDD1
:1003F0005FEA4C0C404141EB010111F4801FA4F174
:100400000104E9D191F0000F04BF01460020B1FAC8
:1004100081F308BF2033A3F10B03B3F120020CDA00
:100420000C3208DD02F1140CC2F10C0201FA0CF0DE
:1004300021FA02F10CE002F11402D8BFC2F1200C43
:1004400001FA02F120FA0CFCDCBF41EA0C019040F9
:10045000E41AA2BF01EB0451294330BD6FEA040442
:100460001F3C1CDA0C340EDC04F11404C4F120022D
:1004700020FA04F001FA02F340EA030021FA04F33F
:1004800045EA030130BDC4F10C04C4F1200220FA96
:1004900002F001FA04F340EA0300294630BD21FAD4
:1004A00004F0294630BD94F0000F83F4801306BF9A
:1004B00081F480110134013D4EE77FEA645C18BF8E
:1004C0007FEA655C29D094EA050F08BF90EA020F25
:1004D00005D054EA000C04BF1946104630BD91EA1D
:1004E000030F1EBF0021002030BD5FEA545C05D120
:1004F0004000494128BF41F0004130BD14F580045F
:100500003CBF01F5801130BD01F0004545F0FE41D2
:1005100041F470014FF0000030BD7FEA645C1ABF07
:10052000194610467FEA655C1CBF0B46024650EA3E
:10053000013406BF52EA033591EA030F41F400216A
:1005400030BD00BF90F0000F04BF0021704730B5F0
:100550004FF4806404F132044FF000054FF00001C5
:1005600050E700BF90F0000F04BF0021704730B586
:100570004FF4806404F1320410F0004548BF40425B
:100580004FF000013EE700BF42004FEAE2014FEAB0
:1005900031014FEA02701FBF12F07F4393F07F4F8B
:1005A00081F06051704732F07F4208BF704793F08E
:1005B0007F4F04BF41F40021704730B54FF46074A1
:1005C00001F0004521F000411CE700BF50EA0102A4
:1005D00008BF704730B54FF000050AE050EA01024D
:1005E00008BF704730B511F0004502D5404261EBBD
:1005F00041014FF4806404F132045FEA915C3FF4FE
:10060000D8AE4FF003025FEADC0C18BF03325FEA9A
:10061000DC0C18BF033202EBDC02C2F1200300FA4B
:1006200003FC20FA02F001FA03FE40EA0E0021FA70
:1006300002F11444BDE600BF70B54FF0FF0C4CF45E
:10064000E06C1CEA11541DBF1CEA135594EA0C0F10
:1006500095EA0C0F00F0DEF82C4481EA030621EA4B
:100660004C5123EA4C5350EA013518BF52EA033586
:1006700041F4801143F4801338D0A0FB02CE4FF038
:100680000005E1FB02E506F00042E0FB03E54FF068
:100690000006E1FB03569CF0000F18BF4EF0010E60
:1006A000A4F1FF04B6F5007F64F5407404D25FEA5C
:1006B0004E0E6D4146EB060642EAC62141EA55510F
:1006C0004FEAC52040EA5E504FEACE2EB4F1FD0C51
:1006D00088BFBCF5E06F1ED8BEF1004F08BF5FEACF
:1006E000500E50F1000041EB045170BD06F0004681
:1006F00046EA010140EA020081EA0301B4EB5C042E
:10070000C2BFD4EB0C0541EA045170BD41F4801125
:100710004FF0000E013C00F3AB8014F1360FDEBF4A
:10072000002001F0004170BDC4F10004203C35DA26
:100730000C341BDC04F11404C4F1200500FA05F3A9
:1007400020FA04F001FA05F240EA020001F000424A
:1007500021F0004110EBD37021FA04F642EB0601C0
:100760005EEA430E08BF20EAD37070BDC4F10C04EA
:10077000C4F1200500FA04F320FA05F001FA04F2AE
:1007800040EA020001F0004110EBD37041F100019A
:100790005EEA430E08BF20EAD37070BDC4F12005A5
:1007A00000FA05F24EEA020E20FA04F301FA05F20D
:1007B00043EA020321FA04F001F0004121FA04F2B5
:1007C00020EA020000EBD3705EEA430E08BF20EA85
:1007D000D37070BD94F0000F0FD101F000464000BF
:1007E00041EB010111F4801F08BF013CF7D041EA41
:1007F000060195F0000F18BF704703F00046520045
:1008000043EB030313F4801F08BF013DF7D043EA15
:100810000603704794EA0C0F0CEA135518BF95EACB
:100820000C0F0CD050EA410618BF52EA4306D1D152
:1008300081EA030101F000414FF0000070BD50EA71
:10084000410606BF1046194652EA430619D094EAFB
:100850000C0F02D150EA013613D195EA0C0F05D1E5
:1008600052EA03361CBF104619460AD181EA030139
:1008700001F0004141F0FE4141F470014FF00000F1
:1008800070BD41F0FE4141F4780170BD70B54FF08C
:10089000FF0C4CF4E06C1CEA11541DBF1CEA13550C
:1008A00094EA0C0F95EA0C0F00F0A7F8A4EB0504EE
:1008B00081EA030E52EA03354FEA013100F08880E5
:1008C0004FEA03334FF0805545EA131343EA1263AE
:1008D0004FEA022245EA111545EA10654FEA002663
:1008E0000EF000419D4208BF964244F1FD0404F51C
:1008F000407402D25B084FEA3202B61A65EB030578
:100900005B084FEA32024FF480104FF4002CB6EB34
:10091000020E75EB030E22BFB61A754640EA0C00B4
:100920005B084FEA3202B6EB020E75EB030E22BFF4
:10093000B61A754640EA5C005B084FEA3202B6EB35
:10094000020E75EB030E22BFB61A754640EA9C00F4
:100950005B084FEA3202B6EB020E75EB030E22BFC4
:10096000B61A754640EADC0055EA060E18D04FEA82
:10097000051545EA16754FEA06164FEAC30343EA22
:1009800052734FEAC2025FEA1C1CC0D111F4801FEF
:100990000BD141EA00014FF000004FF0004CB6E7E8
:1009A00011F4801F04BF01430020B4F1FD0C88BF87
:1009B000BCF5E06F3FF6AFAEB5EB030C04BFB6EB92
:1009C000020C5FEA500C50F1000041EB045170BD85
:1009D0000EF0004E4EEA113114EB5C04C2BFD4EBB2
:1009E0000C0541EA045170BD41F480114FF0000E36
:1009F000013C90E645EA060E8DE60CEA135594EAB2
:100A00000C0F08BF95EA0C0F3FF43BAF94EA0C0FB4
:100A10000AD150EA01347FF434AF95EA0C0F7FF429
:100A200025AF104619462CE795EA0C0F06D152EA7D
:100A300003353FF4FDAE1046194622E750EA410661
:100A400018BF52EA43067FF4C5AE50EA41047FF472
:100A50000DAF52EA43057FF4EBAE12E74FEA4102D5
:100A6000B2F1E04324BFB3F5001CDCF1FE5C0DD90C
:100A700001F0004C4FEAC0024CEA5070B2F1004F56
:100A800040EB830008BF20F00100704711F0804F59
:100A900021D113F13872BCBF01F00040704741F41E
:100AA00080114FEA5252C2F11802C2F1200C10FA22
:100AB0000CF320FA02F018BF40F001004FEAC12306
:100AC0004FEAD32303FA0CFC40EA0C0023FA02F3AA
:100AD0004FEA4303CCE77FEA625307D150EA013380
:100AE0001EBF4FF0FE4040F44000704701F0004050
:100AF00040F0FE4040F40000704700BF7047704770
:100B0000704704387047704710B5044610213FF015
:100B1000ABF8204610BDA0F10400F5E7002210B5A7
:100B20008260044AC16002F108042032046042601D
:100B300010BD00BF402504087047704770477047DC
:100B400010B50446024B036000F093F9204610BD37
:100B50007825040810B50446FFF7F2FF20464FF44D
:100B600069713FF081F8204610BD000010B50446C1
:100B700000F00CFA014B2046236010BD78250408D4
:100B800000F078B990F8252012B103685B69184726
:100B9000704781807047C1807047018170474181F3
:100BA000704770477047704770477047C38810B4EC
:100BB000D21A838812B2C91A036809B25B6D5DF854
:100BC000044B1847806A70477047000010B5044610
:100BD000024B036000F0A8FB204610BDAC250408C2
:100BE00010B50446FFF7F2FF204640F694313FF07F
:100BF0003BF8204610BD000010B5044600F082FC12
:100C0000014B2046236010BDAC25040800F08DBBCD
:100C1000704704387047704710B5044610213FF004
:100C200023F8204610BDA0F10400F5E7002210B51E
:100C30008260044AC16002F108042032046042600C
:100C400010BD00BFD82504087047043870477047AE
:100C500010B5044610213FF007F8204610BDA0F162
:100C60000400F5E7002210B58260044AC16002F179
:100C7000080420320460426010BD00BF082604084A
:100C80007047000010B50446024B036001F076FA8D
:100C9000204610BD4026040810B50446FFF7F2FFB9
:100CA00020464FF4EB613EF0DFFF204610BD000010
:100CB00010B5044601F09CFA014B2046236010BD9C
:100CC0004026040801F05BBA70470438704770474B
:100CD00010B5044610213EF0C7FF204610BDA0F11C
:100CE0000400F5E7002210B58260044AC16002F1F9
:100CF000080420320460426010BD00BF6C26040866
:100D00007047000010B50446024B036001F002FD7D
:100D1000204610BDA426040810B50446FFF7F2FFD4
:100D2000204640F684713EF09FFF204610BD000033
:100D300010B5044601F03AFD014B2046236010BD7A
:100D4000A426040801F0E7BC7047043870477047D8
:100D500010B5044610213EF087FF204610BDA0F1DB
:100D60000400F5E7002210B58260044AC16002F178
:100D7000080420320460426010BD00BFD026040881
:100D80007047000010B50446024B036002F0C6FB3A
:100D9000204610BD0827040810B50446FFF7F2FFEF
:100DA00020464FF469713EF05FFF204610BD000001
:100DB00010B5044602F0ECFB014B2046236010BD49
:100DC0000827040802F0ABBB00220260704770479E
:100DD000704700F598730868496803C37047704707
:100DE00002F038BF10B504464FF4AE713EF03CFF40
:100DF000204610BD10B50446D0F85801FFF7E7FFB4
:100E00002046BDE8104018F07BB810B50446D0F875
:100E1000400158B10368DB68984738B1D4F8400105
:100E200003689B6898470023C4F8403110BD000058
:100E300010B5044602F0DEFE014B2046236010BDD3
:100E40003C270408002070474FF6FF7383814FF062
:100E5000FF3303621368C3611060704790F8252068
:100E60001AB190F8242002B118607047704770479B
:100E70007047704770477047034630B4C568446890
:100E80006A10ED0704EB02009B6848BFA25830BC13
:100E900048BFD358184743682BB183682BB9C06843
:100EA00000F001007047184670470120704710B5E8
:100EB000044608213EF0D8FE204610BD10B5044679
:100EC00010213EF0D1FE204610BD10B504464FF46F
:100ED00069713EF0C9FE204610BD00F5567088428B
:100EE00008B505D117F062FFBDE8084002F0E2BE88
:100EF00008BD00000A4A026000228280C28002818E
:100F000042818281C28102824282C0E90522C2619D
:100F10000284428480F82420012280F82520704732
:100F20007468040870B50446154603681B6B98473F
:100F3000236829462046BDE870405B6B18470000D7
:100F400010B504462622002140F0E7FA2046FFF7BC
:100F5000D1FF0C4B4FF6FF7223600B4B4FF47F0118
:100F6000A3620023A285C4E90C3184F8383084F8E8
:100F70003930A387E387A4F84020A4F842206364B3
:100F8000204610BDD0650408902704082DE9F04FD5
:100F900004460025A046262691B019F065FEBA4BFE
:100FA000E56348F8403B32462946404640F0B5FAF2
:100FB0004046FFF79FFFB54BFF2723644FF6FF73B3
:100FC00004F16C0A3246294684F86670A5665046DC
:100FD000ADF8383040F0A1FA5046FFF78BFFAC4B2C
:100FE00010AEE36636F8083D04F1980B3146A4F8DC
:100FF000923084F89470504616F06DF804F1E009D0
:101000005846FFF79DFF484613F0BAFC04F5EA7313
:101010001846029313F0B4FC04F532731846039398
:10102000FFF78EFF04F5447318460493FFF788FF1B
:1010300004F556731846059316F026F8954B2A4684
:10104000C4F89433944B2946C4F89C334046C4F802
:101050009843C4F8A053FFF765FF40464FF448712A
:10106000FFF79BFD40464FF4F071FFF798FD4FF0FE
:101070007F43271DA3664146384612F0D5FF2A4616
:1010800029465046FFF74EFF382331465046ADF80B
:10109000383016F020F85146384612F0C5FF40F2BD
:1010A000AF12584640F28F21FFF73CFF4FF07F43CD
:1010B0000DF11808C4F8C83059464046A4F8CC5081
:1010C00015F0A6FB98E8070004F1D40383E80700B5
:1010D0004623DFF8C8A131465846ADF83C30CDF87C
:1010E00038A015F02FFE5946384612F09DFF4846AD
:1010F000422240F21921FFF715FF4FF00B034FF08A
:101100001B024FF00A0B0DA9ADF83430ADF83820B2
:1011100033460A4648460CA9ADF830B013F08AFCB5
:101120004FF496712B46CDE9005148460C22092117
:1011300013F0CEFB64222946484613F040FA2946B4
:10114000484613F004FA4946384612F06DFF0298FB
:1011500042224FF42671FFF7E5FE4FF00B034FF0EC
:101160001B02ADF83430ADF8382033460DAA0CA977
:101170000298ADF830B013F05DFC4FF4967302980E
:10118000CDE900530C222B46092113F0A1FB642268
:101190002946029813F013FA2946029813F0D7F95A
:1011A0000299384612F040FF422203985221FFF77D
:1011B000B9FE4FF07F430399C4F8F8324046A4F8D3
:1011C000FC5215F025FB98E8070004F5417383E80D
:1011D0000700452331460398ADF83C30CDF838A0E0
:1011E00015F0B0FD0399384612F01EFF40F2AF1221
:1011F000049840F20921FFF795FE4FF07F430499D0
:10120000C4F840334046A4F8445315F001FB98E875
:10121000070004F5537383E807004423314604981C
:10122000ADF83C30CDF838A015F08CFD0499384667
:1012300012F0FAFE05984FF4B1725221FFF772FED8
:101240000123ADF82C300223ADF8303066230CAA10
:10125000ADF83430ADF838300BA90DAB05980096D9
:1012600015F07DFE0523A4F89033A4F8923304F51D
:1012700065733846C4F88033059912F0D5FE2046D0
:1012800011B0BDE8F08F00BFB827040860660408FD
:1012900040670408A0270408DB0E00089027040814
:1012A000F8B51A4B018F1B8806468B4229D9184B7B
:1012B0001B682BB9174B184A6C21184840F0A4F84A
:1012C00013F81120164B1B6853F82250154B186861
:1012D00004F00CF92B6807469B6B284698472B684F
:1012E00004469B6C3946284698472B6814FB00F44B
:1012F0005B6A394628469847A4B22044A6F84600BF
:10130000F8BD0023A0F84630FAE700BF9CB20820E1
:1013100098B20820E427040867280408262804084F
:10132000A0B20820A4B20820704770477047034657
:1013300030B4C56844686A10ED0704EB02009B688E
:1013400048BFA25830BC48BFD358184743682BB198
:1013500083682BB9C06800F00100704718467047D9
:101360000120704710B5044610213EF07DFC204658
:1013700010BD10B5044640F694313EF075FC204691
:1013800010BD38B500F64833994204460D4603D1E6
:1013900017F00CFD02F06EFC04F530639D4203D1A2
:1013A00017F004FD02F0C6FC04F518639D4203D15A
:1013B00017F0FCFC02F08EFC04F520639D4203D183
:1013C00017F0F4FC02F096FC04F5C5639D4203D1CE
:1013D00017F0ECFC02F0AEFC04F5E5639D4203D18E
:1013E00017F0E4FC02F076FC04F5F5639D4203D1AE
:1013F00017F0DCFC02F08EFC04F5CC739D4203D1A7
:1014000017F0D4FC02F096FC04F198039D4203D13E
:1014100017F0CCFC02F05EFC04F58C739D4203D106
:1014200017F0C4FC02F076FC04F546739D4203D12C
:1014300017F0BCFC02F07EFC04F506739D4203D15C
:1014400017F0B4FC02F046FC04F526739D4203D16C
:1014500017F0ACFC02F05EFC04F593639D4203D1EF
:1014600017F0A4FC02F066FC04F566739D4203D1FC
:1014700017F09CFC02F02EFC04F583639D4203D11F
:1014800017F094FC02F046FC04F5D5639D4203D1AD
:1014900017F08CFC02F04EFC04F5A3639D4203D1CF
:1014A00017F084FC02F016FC04F5BC64A54205D1DB
:1014B00017F07CFCBDE8384002F02CBC38BD138826
:1014C000838615F099BC000010B504462622002141
:1014D00040F023F82046FFF70DFD0023A36284F8B7
:1014E0002C30012384F824304FF6FF73044AE3853F
:1014F000238684F832302260A386204610BD00BFC8
:10150000EC6404082DE9F04F0446B7B019F0ACFBC9
:10151000002327462625E363E04B2A4647F8403B55
:10152000002138463FF0F9FF3846FFF7E3FCDC4B7B
:10153000FF2623640023A3664FF6FF7304F16C08B3
:101540002A4684F8666000214046ADF8D0303FF06E
:10155000E4FF4046FFF7CEFCD24B36ADE36635F8EC
:10156000083D04F198092946A4F8923084F8946063
:10157000404615F0B0FD484615F0EEFE04F1E003DC
:1015800004F58C7A18461993FFF79EFF504615F024
:10159000E3FE04F5B07318461A93FFF795FF04F5C0
:1015A000CC731846039315F0D7FE04F5F073184674
:1015B0001B93FFF789FF04F506731846049315F093
:1015C000CBFE04F5187318461C93FFF77DFF04F556
:1015D00026731846059315F0BFFE04F538731846B8
:1015E0001D93FFF771FF04F546731846069315F037
:1015F000B3FE04F5587318461E93FFF765FF04F514
:1016000066731846079315F0A7FE04F5787318461D
:101610001F93FFF759FF04F583631846089315F0ED
:101620009BFE04F58C6318462093FFF74DFF04F5ED
:1016300093631846099315F08FFE04F59C631846D2
:101640002193FFF741FF04F5A36318460A9315F0B1
:1016500083FE04F5AC6318462293FFF735FF04F5CB
:10166000B36318460B93FFF76BFC04F5BC63184695
:101670000C9315F071FE04F5C56318460D9315F033
:101680006BFE04F5CE6318462393FFF71DFF04F5A8
:10169000D56318460E9315F05FFE04F5DE63184619
:1016A0002493FFF711FF04F5E56318460F9315F037
:1016B00053FE04F5EE6318462593FFF705FF04F586
:1016C000F5631846109315F047FE04F5FE631846BF
:1016D0002693FFF7F9FE04F6280318461193FFF747
:1016E0002FFC04F5076318461293FFF729FC04F654
:1016F000B80318461393FFF723FC04F5106318464C
:101700002793FFF7E1FE04F6381318461493FFF70A
:1017100017FC04F518631846159315F01DFE04F622
:10172000C81318462893FFF7CFFE04F52063184628
:10173000169315F011FE04F6482318462993FFF777
:10174000C3FE04F5286318462A93FFF7BDFE04F68E
:10175000B82318461793FFF7F3FB04F530631846D8
:10176000189315F0F9FD04F6483318462B9315F03D
:101770008BFC4D4B3846C4F8843B4C4BC4F8884B2B
:10178000C4F88C3B00231A46C4F8903B1946FFF777
:10179000C9FB38464FF44871FFF7FFF938464FF45C
:1017A000F071FFF7FCF94FF07F43261DA366394621
:1017B000304612F039FC002240461146FFF7B2FBDA
:1017C0003E2329464046ADF8D03015F084FC414612
:1017D000304612F029FC4846782240F225114FF09D
:1017E0000808FFF79FFB4FF006032A4633A9484637
:1017F000ADF8CC30ADF8D08015F0FEFA59234FF09B
:10180000FF3BA4F8D03048463F27FFF749FD494643
:101810004FF0390904F68432C4F8C0203046C4E9D8
:1018200035BB029212F000FC1998A72240F2311148
:10183000FFF778FB2A4633A91998ADF8D070ADF8B8
:10184000CC90FFF73CFE1999304612F0EDFB504664
:10185000E02240F22511FFF765FB4FF0060333A9A4
:101860002A465046ADF8CC30ADF8D08015F0C4FA19
:101870005A225046A4F85021FFF712FD51464FF06E
:10188000060A029B3046C4F84031C4F854B1C4F88B
:1018900058B112F0C9FB1A980AE000BFC428040826
:1018A0006066040840670408AC2804088313000835
:1018B00040F20F124FF49871FFF734FB2A4633A918
:1018C0001A98ADF8D070ADF8CC90FFF7F8FD1A99E2
:1018D000304612F0A9FB0398122240F22511FFF7BF
:1018E00021FB33A92A460398ADF8CCA0ADF8D080EF
:1018F00015F082FA5B220398A4F8D021FFF7D0FC00
:10190000029B0399C4F8C0313046C4F8D4B1C4F87E
:10191000D8B112F089FB1B98412240F23111FFF738
:1019200001FB2A4633A91B98ADF8D070ADF8CC90D6
:10193000FFF7C5FD1B99304612F076FB049878221C
:1019400040F29D11FFF7EEFA33A92A460498ADF84C
:10195000CCA0ADF8D08015F04FFA56220498A4F828
:101960005022FFF79DFC029B0499C4F84032304698
:10197000C4F854B2C4F858B212F056FB1C98A8220E
:1019800040F2A711FFF7CEFA2A4633A91C98ADF80A
:10199000D070ADF8CC90FFF792FD1C99304612F054
:1019A00043FB0598E02240F29D11FFF7BBFA33A9F3
:1019B0002A460598ADF8CCA0ADF8D08015F01CFAF9
:1019C00057220598A4F8D022FFF76AFC029B0599DC
:1019D000C4F8C0323046C4F8D4B2C4F8D8B212F059
:1019E00023FB1D9840F20F1240F2A711FFF79AFA5D
:1019F0002A4633A91D98ADF8D070ADF8CC90FFF70A
:101A00005EFD1D99304612F00FFB0698122240F23F
:101A10009D11FFF787FA33A92A460698ADF8CCA0A6
:101A2000ADF8D08015F0E8F958220698A4F85023B4
:101A3000FFF736FC029B0699C4F840333046C4F8E1
:101A400054B3C4F858B312F0EFFA1E98412240F292
:101A5000A711FFF767FA2A4633A91E98ADF8D07090
:101A6000ADF8CC90FFF72BFD1E99304612F0DCFA52
:101A70000798782240F21521FFF754FA33A92A4635
:101A80000798ADF8CCA0ADF8D08015F0B5F9532289
:101A90000798A4F8D023FFF703FC029B0799C4F82A
:101AA000C0333046C4F8D4B3C4F8D8B312F0BCFA8B
:101AB0001F98A8224FF40871FFF734FA2A4633A979
:101AC0001F98ADF8D070ADF8CC90FFF7F8FC1F99D7
:101AD000304612F0A9FA0898E02240F21521FFF7EB
:101AE00021FA33A92A460898ADF8CCA0ADF8D080E9
:101AF00015F082F954220898A4F85024FFF7D0FB7F
:101B0000029B0899C4F840343046C4F854B4C4F871
:101B100058B412F089FA209840F20F124FF408716D
:101B2000FFF700FA2A4633A92098ADF8D070ADF837
:101B3000CC90FFF7C4FC2099304612F075FA099852
:101B4000122240F21521FFF7EDF933A92A46099830
:101B5000ADF8CCA0ADF8D08015F04EF9552209981B
:101B6000A4F8D024FFF79CFB029B0999C4F8C03469
:101B70003046C4F8D4B4C4F8D8B412F055FA219859
:101B800041224FF40871FFF7CDF92A4633A9219875
:101B9000ADF8D070ADF8CC90FFF791FC21993046AC
:101BA00012F042FA0A98782240F28D21FFF7BAF932
:101BB00033A92A460A98ADF8CCA0ADF8D08015F02C
:101BC0001BF950220A98A4F85025FFF769FB029BE5
:101BD0000A99C4F840353046C4F854B5C4F858B52D
:101BE00012F022FA2298A8224FF42671FFF79AF9F0
:101BF0002A4633A92298ADF8D070ADF8CC90FFF703
:101C00005EFC2299304612F00FFA40F263120B98F4
:101C100040F28E21FFF786F94FF07F43C4F8C835B4
:101C20004FF000030DF1B00AA4F8CC350B995046E3
:101C300014F0EEFD9AE8070004F2D45C8CE807008B
:101C40004A22D64B29460B983493ADF8D42015F090
:101C500079F80B99304612F0E7F90C98E02240F23F
:101C60008D21FFF75FF94FF0060233A9ADF8CC20C4
:101C70000C982A46ADF8D08015F0BEF851220C9889
:101C8000A4F81826FFF70CFB029A0C99C4F8082652
:101C90003046C4F81CB6C4F820B612F0C5F90D9849
:101CA0001222AD21FFF73EF94FF0060233A9ADF83D
:101CB000CC200D982A46ADF8D08015F09DF85E2214
:101CC0000D98A4F86026FFF7EBFA029A0D99C4F874
:101CD00050263046C4F864B6C4F868B612F0A4F9C9
:101CE000239840F20F124FF42671FFF71BF92A4692
:101CF00033A92398ADF8D070ADF8CC90FFF7DFFB97
:101D00002399304612F090F90E98122240F28D215C
:101D1000FFF708F94FF0060233A9ADF8CC200E9872
:101D20002A46ADF8D08015F067F852220E98A4F834
:101D3000E026FFF7B5FA029A0E99C4F8D02630468D
:101D4000C4F8E4B6C4F8E8B612F06EF9249841225B
:101D50004FF42671FFF7E6F82A4633A92498ADF828
:101D6000D070ADF8CC90FFF7AAFB2499304612F062
:101D70005BF90F987822AD21FFF7D4F84FF00602F7
:101D800033A9ADF8CC200F982A46ADF8D08015F0D5
:101D900033F85C220F98A4F86027FFF781FA029AC3
:101DA0000F99C4F850273046C4F864B7C4F868B730
:101DB00012F03AF92598A822BC21FFF7B3F82A4679
:101DC00033A92598ADF8D070ADF8CC90FFF777FB2C
:101DD0002599304612F028F91098E022AD21FFF73E
:101DE000A1F84FF0060233A9ADF8CC2010982A468E
:101DF000ADF8D08015F000F85D221098A4F8E02727
:101E0000FFF74EFA029A1099C4F8D0273046C4F86A
:101E1000E4B7C4F8E8B712F007F9269840F20F12B9
:101E2000BC21FFF77FF82A4633A92698ADF8D07079
:101E3000ADF8CC90FFF743FB2699304612F0F4F84A
:101E400040F26312119840F22711FFF76BF84FF040
:101E50007F404FF00001C4F85808A4F85C185046C1
:101E6000119914F0D5FC9AE8070004F6640C8CE88C
:101E700007004D22494B294611983493ADF8D420E0
:101E800014F060FF1199304612F0CEF840F2631260
:101E900012984FF4CF71FFF745F84FF07F404FF0A5
:101EA0000001C4F8A008A4F8A4185046129914F030
:101EB000AFFC9AE8070004F6AC0C8CE807004C2253
:101EC000364B294612983493ADF8D42014F03AFFDB
:101ED0001299304612F0A8F840F26312139840F2BB
:101EE0001621FFF71FF84FF07F404FF00001C4F8B4
:101EF000E808A4F8EC185046139914F089FC9AE805
:101F0000070004F6F40C8CE807004B22234B29460B
:101F100013983493ADF8D42014F014FF139930467D
:101F200012F082F827984122BC21FEF7FBFF33A86C
:101F30002A4601462798ADF8D070ADF8CC90FFF74F
:101F4000BEFA2799304612F06FF840F263121498E7
:101F5000AE21FEF7E7FF4FF07F404FF00001C4F8DD
:101F60006809A4F86C195046149914F051FC9AE8C9
:101F7000070004F6741C8CE807004E22074B294624
:101F800014983493ADF8D42014F0DCFE1499304644
:101F900012F04AF815987922342101E090270408BC
:101FA000FEF7C0FF4FF0060233A80146ADF8CC2083
:101FB00015982A46ADF8D08014F01EFF60221598BF
:101FC000A4F8B829FFF76CF9029A1599C4F8A82962
:101FD0003046C4F8BCB9C4F8C0B912F025F8394687
:101FE0002898A922FEF79EFF33A82A460146289882
:101FF000ADF8D070ADF8CC90FFF761FA2899304673
:1020000012F012F81698E0223521FEF78BFF4FF000
:10201000060233A80146ADF8CC2016982A46ADF842
:10202000D08014F0E9FE5F221698A4F8382AFFF752
:1020300037F9029A1699C4F8282A3046C4F83CBAEF
:10204000C4F840BA11F0F0FF299840F20F12402175
:10205000FEF768FF33A82A4601462998ADF8D070EC
:10206000ADF8CC90FFF72BFA2999304611F0DCFF40
:1020700039462A984122FEF755FF33A82A460146E1
:102080002A98ADF8D070ADF8CC90FFF718FA2A99DD
:10209000304611F0C9FF40F2631217983521FEF760
:1020A00041FF4FF07F404FF00001C4F8E80AA4F868
:1020B000EC1A5046179904F6F42714F0A9FB9AE895
:1020C000070087E807004F222B4B294617983493C7
:1020D000ADF8D42014F036FE1799304611F0A4FF65
:1020E000189812223421FEF71DFF4FF0060233A983
:1020F000ADF8CC2018982A46ADF8D08014F07CFEBC
:102100003D221898A4F8382BFFF7CAF8029B1899BB
:10211000C4F8283B3046C4F83CBBC4F840BB11F0BF
:1021200083FF2B9840F2AB123421FEF7FBFE042311
:10213000ADF8C4300523ADF8C830662332AAADF837
:10214000CC30ADF8D03031A933AB2B98009514F0DA
:1021500006FF1923A4F8803B4FF6F973A4F8823BDD
:10216000029B3046C4F8703B2B9911F05DFF20466E
:1021700037B0BDE8F08F00BF902704087047704764
:102180007047034630B4C56844686A10ED0704EB35
:1021900002009B6848BFA25830BC48BFD3581847BC
:1021A00043682BB183682BB9C06800F00100704709
:1021B000184670470120704710B5044610213DF0C5
:1021C00053FD204610BD10B504464FF4EB613DF0C1
:1021D0004BFD204610BD00F20C70884208B505D1B9
:1021E00016F0E4FDBDE8084001F064BD08BD000044
:1021F0002DE9F04F04460025A046262697B018F09A
:1022000033FDDF4BE56348F8403B32462946404604
:102210003FF083F94046FEF76DFEDA4BFF2723645B
:102220004FF6FF7304F16C0A3246294684F8667053
:10223000A5665046ADF850303FF06FF95046FEF7B6
:1022400059FED14B16AEE36636F8083D04F1980B03
:102250003146A4F8923084F89470504614F03BFF55
:1022600004F1E0095846FEF76BFE484612F088FB81
:1022700004F5EA731846029312F082FB04F53273F8
:102280001846039312F07CFB04F56F73184606930F
:10229000FEF756FE04F204431846049312F070FB56
:1022A00004F59F631846059312F06AFB04F2EC53A1
:1022B00018460793FEF744FE04F234631846089369
:1022C000FEF73EFE04F27C6318460993FEF738FEE3
:1022D00004F2C46318460A93FEF732FE04F20C734C
:1022E00018460B9314F0D0FEA84B2A46C4F8483782
:1022F000A74B2946C4F850374046C4F84C47C4F8A9
:102300005457FEF70FFE40464FF44871FEF745FC68
:1023100040464FF4F071FEF742FC4FF07F43271D1B
:10232000A3664146384611F07FFE2A4629465046AC
:10233000FEF7F8FD382331465046ADF8503014F022
:10234000CAFE5146384611F06FFE40F2AF125846B1
:10235000B021FEF7E7FD4FF07F430DF13008C4F8E0
:10236000C83059464046A4F8CC5014F051FA98E8C9
:10237000070004F1D40383E80700864B3146149329
:102380003E235846ADF8543014F0DCFC594638462C
:1023900011F04AFE4846422240F29F11FEF7C2FD6C
:1023A0004FF00A024FF00B0A4FF01B0BADF848201C
:1023B000334613AA12A94846ADF84CA0ADF850B068
:1023C00012F038FB4FF496722B46CDE90052484686
:1023D0000C22092112F07CFA64222946484612F0A8
:1023E000EEF82946484612F0B2F849464FF00A097D
:1023F000384611F019FE029842224FF49571FEF70B
:1024000091FD334613AA12A90298ADF84890ADF891
:102410004CA0ADF850B012F00DFB4FF496722B4665
:10242000CDE9005202980C22092112F051FA6422DF
:102430002946029812F0C3F82946029812F087F84C
:102440000299384611F0F0FD03984222B921FEF7B7
:1024500069FD334613AA12A90398ADF84890ADF868
:102460004CA0ADF850B012F0E5FA4FF496722B463E
:10247000CDE9005203980C22092112F029FA6422B6
:102480002946039812F09BF82946039812F05FF84A
:102490000399384611F0C8FD069840F2AF124FF488
:1024A0002271FEF73FFD4FF07F420699C4F8EC23FE
:1024B0004046A4F8F05314F0ABF998E8070004F58F
:1024C0007E7383E80700334B314614934323069809
:1024D000ADF8543014F036FC0699384611F0A4FDDE
:1024E0000498422240F21921FEF71CFD334613AA3C
:1024F00012A90498ADF84890ADF84CA0ADF850B0D2
:1025000012F098FA4FF496722B46CDE900520498D7
:102510000C22092112F0DCF964222946049812F0F9
:102520004EF82946049812F012F80499384611F032
:102530007BFD059842224FF42671FEF7F3FC3346EB
:1025400013AA12A90598ADF84890ADF84CA0ADF8C3
:1025500050B012F06FFA4FF496722B46CDE900524C
:1025600005980C22092112F0B3F964222946059836
:1025700012F025F82946059811F0E9FF0CE000BF9C
:10258000102904086066040840670408F828040855
:10259000D7210008902704080599384611F044FD1A
:1025A000079842225221FEF7BDFC4FF07F42079967
:1025B000C4F81C264046A4F8205614F029F998E8DF
:1025C000070004F5C56383E80700514B31461493B7
:1025D00042230798ADF8543014F0B4FB07993846FD
:1025E00011F022FD089840F2AF1240F2ED11FEF713
:1025F00099FC4FF07F420899C4F864264046A4F83D
:10260000685614F005F998E8070004F5CE6383E8EE
:1026100007003F4B3146149341230898ADF85430DE
:1026200014F090FB0899384611F0FEFC099840F22E
:10263000AF124FF4CB71FEF775FC4FF07F42099952
:10264000C4F8AC264046A4F8B05614F0E1F898E877
:10265000070004F5D76383E807002D4B3146149338
:1026600040230998ADF8543014F06CFB09993846B2
:1026700011F0DAFC0A9840F2AF1240F20511FEF7B1
:1026800051FC4FF07F420A99C4F8F4264046A4F862
:10269000F85614F0BDF898E8070004F5E06383E805
:1026A00007001B4B314614933F230A98ADF8543072
:1026B00014F048FB0A99384611F0B6FC0B984FF419
:1026C000B1725221FEF72EFC0123ADF844300223F3
:1026D000ADF84830662312AAADF84C30ADF8503052
:1026E00011A913AB0B98009614F039FC0523A4F83C
:1026F0004437A4F8463704F5E9633846C4F834375C
:102700000B9911F091FC204617B0BDE8F08F00BF87
:1027100090270408704770477047034630B4C56877
:1027200044686A10ED0704EB02009B6848BFA2589A
:1027300030BC48BFD358184743682BB183682BB9C6
:10274000C06800F0010070471846704701207047CC
:1027500010B5044610213DF087FA204610BD10B593
:10276000044640F684713DF07FFA204610BD00F625
:102770003870884208B505D116F018FBBDE808404E
:1027800001F088BA08BD70B504461E46BDF9105068
:10279000FEF7C8FB2368314620469A6B90472368B2
:1027A00029462046BDE87040DB6B18472DE9F04F05
:1027B00004462DED048B4FF0000AA3462625FF2783
:1027C0004FF6FF76ADB018F04FFADC4BC4F83CA0E2
:1027D0004BF8403B2A46514658463EF09EFE58462E
:1027E000FEF788FBD64B04F5B079236404F16C0343
:1027F00084F866701846C4F868A0069312F0C0F812
:10280000484612F0BDF804F515731846079312F008
:10281000B7F804F552731846089312F0B1F804F2B1
:102820003C432A46514618460B93ADF8A8603EF04B
:1028300074FE0B98FEF75EFBC24B2CADC4F83C3423
:1028400035F8083D84F864742946A4F862340B987E
:1028500014F041FC04F58D6318460C93FEF770FBF1
:1028600004F5966318460D93FEF76AFB04F59F6323
:1028700018460E93FEF764FB04F5A86318460F9301
:10288000FEF75EFB04F5B16318461093FEF758FBA4
:1028900004F5BA6304F5C368184604F5D5671193C7
:1028A000FEF74EFB29464046ADF8A86013F0F2F85B
:1028B00029463846ADF8A86013F0ECF804F5E76354
:1028C000294618460293ADF8A86013F0E3F804F522
:1028D000F963294618460393ADF8A86013F0DAF8B7
:1028E00004F6580318461293FEF72AFB04F50A6310
:1028F00018461393FEF724FB04F6E80318461493D6
:10290000FEF71EFB04F5136318461593FEF718FB3C
:1029100004F6781318461693FEF712FB04F51C63B1
:102920001846099312F02CF804F6B42318461793AE
:10293000FEF706FB04F6FC2318460A9312F020F873
:1029400004F53F6318461893FEF7FAFA04F6384385
:1029500018461993FEF7F4FA04F548632946184619
:102960000493ADF8A86013F095F804F55163294677
:1029700018460593ADF8A86013F08CF804F55A6377
:1029800018461A93FEF7DCFA04F6E85318461B9330
:10299000FEF79AFD04F5626318461C93FEF794FD5A
:1029A00004F6586318461D93FEF78EFD04F569631F
:1029B00018461E93FEF788FD04F6C86318461F9359
:1029C000FEF782FD04F5706318462093FEF77CFD48
:1029D00004F638731846219314F056FB5A4B5246AE
:1029E000C4F8743F594B5146C4F87C3F4FF4F07320
:1029F00058460093C4F8784FC4F880AF4FF448733A
:102A0000FFF7C1FE4FF07F43261DA36659463046AF
:102A100011F00AFB0698D02240F2DF11FEF782FA8D
:102A20004FF01B034FF07E0BADF8A83029AA2B46C0
:102A300028A90698ADF8A0B0ADF8A4B011F0FAFF3F
:102A4000AE220C2301929D220698009215211A466F
:102A500011F03EFF64220698202111F0B0FD069887
:102A60002A2111F074FD0699304611F0DDFA48462E
:102A7000D02240F27B11FEF755FA4FF01B0329AA32
:102A8000ADF8A83028A92B464846ADF8A0B0ADF85F
:102A9000A4B011F0CFFFAE220C2301929D22484634
:102AA000009215211A4611F013FF64224846202196
:102AB00011F085FD48462A2111F049FD49464FF0A5
:102AC0001B09304611F0B0FA0798D02240F21711D6
:102AD000FEF728FA2B4629AA28A90798ADF8A0B036
:102AE000ADF8A4B0ADF8A89011F0A4FF9D23AE22DC
:102AF000CDE900320C2307981A46152111F0E8FEA3
:102B000064220798202111F05AFD07982A2111F01C
:102B10001EFD0799304611F087FA0898D022B3219C
:102B2000FEF700FA2B4629AA28A90898ADF8A0B00C
:102B3000ADF8A4B0ADF8A8900AE000BF5C29040885
:102B40006066040840670408442904086F270008E9
:102B500011F070FF9D23AE21CDE900310C230898C0
:102B60001A46152111F0B4FE64220898202111F0B4
:102B700026FD08982A2111F0EAFC0899304611F048
:102B800053FA524651460B98FEF7CCF94823294692
:102B90000B98ADF8A83014F09EFA0B99304611F05E
:102BA00043FA43220C9840F2E711FEF7BBF94FF0CD
:102BB000FF330DF18809C4F898340C994846A4F8FD
:102BC0009CA413F025FE99E8070004F2A44383E8CF
:102BD0000700E44B29462A9365230C98ADF8AC30E6
:102BE00014F0B0F80C99304611F01EFA0D984322FB
:102BF00040F24B21FEF796F94FF0FF320D99C4F8E1
:102C0000E0244846A4F8E4A413F002FE99E8070083
:102C100004F2EC4383E807004FF06402D14B2946ED
:102C20000D982A93ADF8AC2014F08CF80D9930462D
:102C300011F0FAF90E9843225721FEF773F94FF07D
:102C4000FF320E99C4F828254846A4F82CA513F0A5
:102C5000DFFD99E8070004F2345383E80700C14B15
:102C600029462A9366230E98ADF8AC3014F06AF822
:102C70000E99304611F0D8F90F98432240F21F11F7
:102C8000FEF750F94FF0FF320F99C4F8702548460F
:102C9000A4F874A513F0BCFD99E8070004F27C5376
:102CA00083E80700AF4B29462A9367230F98ADF8B6
:102CB000AC3014F047F80F99304611F0B5F9109880
:102CC0004322BD21FEF72EF94FF0FF321099C4F8D0
:102CD000B8254846A4F8BCA513F09AFD99E807006A
:102CE00004F2C45383E807009E4B29462A936823C5
:102CF0001098ADF8AC3014F025F81099304611F06A
:102D000093F91198432240F28311FEF70BF94FF02B
:102D1000FF321199C4F800264846A4F804A613F01F
:102D200077FD99E8070004F20C6383E807008D4BF8
:102D300029462A9369231198ADF8AC3014F002F8B3
:102D40001199304611F070F9404670224FF4F1713C
:102D5000FEF7E8F84FF08702294640469FED828A49
:102D6000ADF8A82013F038F84FF028129FED7F9AA5
:102D7000F3EE048AC4F82026404688ED0B8A88EDDD
:102D80000C8A12F0D3FEB7EE000A404613F035F875
:102D900088ED169A404612F0C9FEC8ED118AC8EDBA
:102DA000128A88ED139A404612F0C0FEC8ED148ACC
:102DB000C8ED158A404612F0B9FEB0EE481AF0EEA2
:102DC000480AB0EE480A404613F00FF841464FF06B
:102DD0008708304684F841A611F026F9702238465B
:102DE00040F24621FEF79EF829463846ADF8A88005
:102DF00012F0F2FF4FF028123846C4F8B02687EDE3
:102E00000B8A87ED0C8A12F091FEB7EE000A384665
:102E100012F0F3FF87ED169A384612F087FEC7EDE1
:102E2000118AC7ED128A87ED139A384612F07EFE9A
:102E3000C7ED148AC7ED158A384612F077FEB0EE5A
:102E4000481AF0EE480AB0EE480A384612F0CDFFB4
:102E50003946304684F8D1A611F0E6F8702202987F
:102E60004FF4BF71FEF75EF829460298ADF8A880CE
:102E700012F0B2FF4FF02812C4F84027029A394FDF
:102E800082ED0B8A82ED0C8A104612F04FFEB7EEEF
:102E9000000A029812F0B1FF029A82ED169A1046CB
:102EA00012F044FE029AC2ED118AC2ED128A82ED3E
:102EB000139A104612F03AFE029AC2ED148AC2ED3D
:102EC000158A104612F032FEB0EE481AF0EE480AAB
:102ED000B0EE480A029812F088FF0299304684F852
:102EE00061A711F0A1F8702203984FF48D71FEF7DD
:102EF00019F829460398ADF8A88012F06DFF4FF03D
:102F00002812C4F8D027039A4FF0700882ED0B8A7C
:102F100082ED0C8A104612F009FEB7EE000A039803
:102F200012F06BFF039A82ED169A104612F0FEFD26
:102F3000039AC2ED118AC2ED128A82ED139A1046ED
:102F400012F0F4FD039AC2ED148AC2ED158A104600
:102F500012F0ECFDB0EE481AF0EE480AB0EE480A66
:102F6000039805E0902704080000000000007A4460
:102F700012F03BFF0399304684F8F1A711F054F8A2
:102F8000129840F2BB123E21FDF7CCFF4FF07F427A
:102F90001299C4F888284846A4F88CA813F038FC85
:102FA00099E8070004F6940383E807006E23294696
:102FB0001298ADF8AC302A9713F0C4FE129930463F
:102FC00011F032F840F2BB1213984FF4B571FDF7CF
:102FD000A9FF4FF07F431399C4F8D0384846A4F8AE
:102FE000D4A813F015FC99E8070004F6DC0383E885
:102FF00007006C2329461398ADF8AC302A9713F0DC
:10300000A1FE1399304611F00FF840F2BB1214984C
:10301000A221FDF787FF4FF07F431499C4F81839B8
:103020004846A4F81CA913F0F3FB99E8070004F63E
:10303000241383E807006F2329461498ADF8AC30B9
:103040002A9713F07FFE1499304610F0EDFF40F2FE
:10305000BB12159840F23221FDF764FF4FF07F4319
:103060001599C4F860394846A4F864A913F0D0FB58
:1030700099E8070004F66C1383E8070029461598C1
:103080002A97ADF8AC8013F05DFE1599304610F02C
:10309000CBFF40F2BB12169840F29621FDF742FF9B
:1030A0004FF07F431699C4F8A8394846A4F8ACA954
:1030B00013F0AEFB99E807002A976B2704F6B413C8
:1030C00083E8070029461698ADF8AC7013F03AFE75
:1030D0001699304610F0A8FF0998D0224FF42D71B0
:1030E000FDF720FF2B4629AA28A90998ADF8A0B022
:1030F000ADF8A4B0ADF8A87011F09CFC1027C8235F
:103100000998CDE900730C225346092111F0E0FB28
:1031100064225146099811F052FA3946099811F083
:1031200016FA0999304610F07FFF40F2BB1217984B
:103130004FF4E771FDF7F6FE4FF07F431799C4F89F
:10314000E43A4846A4F8E8AA13F062FB99E80700BD
:1031500004F52F6383E807006D23DC4F2946179899
:10316000ADF8AC302A9713F0EDFD1799304610F00A
:103170005BFF0A98D0224F21FDF7D4FE4FF01B01D0
:10318000ADF8A0B0ADF8A4B0ADF8A8100DF1A00B4B
:1031900029A90F462B460A460A98594611F04AFCBF
:1031A0000C239D22AE201521CDE900201A460A9855
:1031B00011F08EFB64220A98202111F000FA0A987F
:1031C0002A2111F0C4F90A99304610F02DFFAA23E4
:1031D00052460093514618983123FFF7D4FABC4B5E
:1031E0001899C4F8203C4846A4F824AC13F010FB0E
:1031F00099E8070004F62C4383E80700B34B2946FF
:103200002A9372231898ADF8AC3013F09BFD1899EF
:10321000304610F009FF199840F2BB124FF4837149
:10322000FDF780FE4FF07F421999C4F8682C48469C
:10323000A4F86CAC13F0ECFA99E8070004F67443B8
:1032400083E80700A14B29462A9371231998ADF80A
:10325000AC3013F077FD1999304610F0E5FE424688
:1032600004985221FDF75EFE4FF08702294604982C
:10327000ADF8A82012F0B0FD4FF02811049AC4F860
:10328000881C104682ED0B8A82ED0C8A12F04EFCEF
:10329000B7EE000A049812F0B0FD049A82ED169A77
:1032A000104612F043FC049AC2ED118AC2ED128A54
:1032B00082ED139A104612F039FC049AC2ED148A7A
:1032C000C2ED158A104612F031FCB0EE481AF0EE4D
:1032D000480AB0EE480A049812F087FD0499304677
:1032E00084F8A9AC10F0A0FE42460598B621FDF77F
:1032F00019FE4FF0870229460598ADF8A82012F074
:103300006BFD4FF02812C4F8182D059A4FF00D08E8
:1033100082ED0B8A82ED0C8A104612F007FCB7EEA4
:10332000000A059812F069FD059A82ED169A10467A
:1033300012F0FCFB059AC2ED118AC2ED128A82EDF1
:10334000139A104612F0F2FB059AC2ED148AC2EDF0
:10335000158A104612F0EAFBB0EE481AF0EE480A61
:10336000B0EE480A059812F040FD0599304684F801
:1033700039AD10F059FE1A98432240F2BD21FDF7F5
:10338000D1FD4FF0FF321A99C4F8D02D4846A4F869
:10339000D4AD13F03DFA99E8070004F6DC5383E856
:1033A00007004A4B4FF00C092A936A2329461A98C2
:1033B000ADF8AC3013F0C6FC1A99304610F034FE6C
:1033C0001B98152240F23B21FDF7ACFD2A463946F9
:1033D0001B98A4F81C9EADF8A480ADF8A89013F03B
:1033E0000BFD1B99304610F01FFE1C98152240F271
:1033F000D711FDF797FD2A4639461C98A4F8549E2C
:10340000ADF8A480ADF8A89013F0F6FC1C993046F6
:1034100010F00AFE1D98152240F27111FDF782FD91
:103420002A4639461D98A4F88C9EADF8A480ADF8C4
:10343000A89013F0E1FC1D99304610F0F5FD1E98A0
:10344000152240F21111FDF76DFD2A4639461E98EE
:10345000A4F8C49EADF8A480ADF8A89013F0CCFCFD
:103460001E99304610F0E0FD1F981522AD21FDF7A2
:1034700059FD2A4639461F98A4F8FC9EADF8A48051
:10348000ADF8A89013F0B8FC1F99304610F0CCFDB1
:10349000209815224721FDF745FD2A4639462098F8
:1034A000A4F8349FADF8A480ADF8A89013F0A4FC64
:1034B0002099304610F0B8FD2198152240F2A12144
:1034C000FDF730FD0723ADF89C3003E0902704089A
:1034D000D15E5AFF0923ADF8A03065235A46ADF8F6
:1034E000A430ADF8A83027A93B462198009513F0E9
:1034F00036FD2423A4F8703F0423A4F8723F04F699
:1035000074733046C4F8603F219910F08DFD204659
:103510002DB0BDEC048BBDE8F08F00BF7047704745
:103520007047034630B4C56844686A10ED0704EB81
:1035300002009B6848BFA25830BC48BFD358184708
:1035400043682BB183682BB9C06800F00100704755
:10355000184670470120704710B5044610213CF012
:1035600083FB204610BD10B504464FF469713CF052
:103570007BFB204610BD00F55670884208B505D18A
:1035800015F014FCBDE8084000F094BB08BD000035
:103590002DE9F04F04460025A046262691B017F0ED
:1035A00063FBBA4BE56348F8403B32462946404648
:1035B0003DF0B3FF4046FDF79DFCB54BFF2723646C
:1035C0004FF6FF7304F16C0A3246294684F86670A0
:1035D000A5665046ADF838303DF09FFF5046FDF7E8
:1035E00089FCAC4B10AEE36636F8083D04F1980B4D
:1035F0003146A4F8923084F89470504613F06BFD75
:1036000004F1E0095846FDF79BFC484611F0B8F973
:1036100004F5EA731846029311F0B2F904F5327317
:1036200018460393FDF78CFC04F544731846049385
:10363000FDF786FC04F556731846059313F024FD38
:10364000954B2A46C4F89433944B2946C4F89C33CE
:103650004046C4F89843C4F8A053FDF763FC4046C5
:103660004FF44871FDF799FA40464FF4F071FDF7B9
:1036700096FA4FF07F43271DA3664146384610F067
:10368000D3FC2A4629465046FDF74CFC38233146E8
:103690005046ADF8383013F01EFD5146384610F054
:1036A000C3FC40F2AF12584640F28F21FDF73AFCBE
:1036B0004FF07F430DF11808C4F8C8305946404612
:1036C000A4F8CC5013F0A4F898E8070004F1D40350
:1036D00083E807004723DFF8C8A131465846ADF814
:1036E0003C30CDF838A013F02DFB5946384610F089
:1036F0009BFC4846422240F21921FDF713FC4FF093
:103700000B034FF01B024FF00A0B0DA9ADF834303C
:10371000ADF8382033460A4648460CA9ADF830B01B
:1037200011F088F94FF496712B46CDE900514846C7
:103730000C22092111F0CCF864222946484610F0E9
:103740003EFF2946484610F002FF4946384610F031
:103750006BFC029842224FF42671FDF7E3FB4FF019
:103760000B034FF01B02ADF83430ADF83820334670
:103770000DAA0CA90298ADF830B011F05BF94FF426
:1037800096730298CDE900530C222B46092111F0C3
:103790009FF864222946029810F011FF29460298EA
:1037A00010F0D5FE0299384610F03EFC42220398F4
:1037B0005221FDF7B7FB4FF07F430399C4F8F8326D
:1037C0004046A4F8FC5213F023F898E8070004F5EB
:1037D000417383E80700492331460398ADF83C3034
:1037E000CDF838A013F0AEFA0399384610F01CFC5F
:1037F00040F2AF12049840F20921FDF793FB4FF01D
:103800007F430499C4F840334046A4F8445312F06F
:10381000FFFF98E8070004F5537383E80700482387
:1038200031460498ADF83C30CDF838A013F08AFA50
:103830000499384610F0F8FB05984FF4B172522104
:10384000FDF770FB0123ADF82C300223ADF83030CA
:1038500066230CAAADF83430ADF838300BA90DABA7
:103860000598009613F07BFB0523A4F89033A4F889
:10387000923304F565733846C4F88033059910F027
:10388000D3FB204611B0BDE8F08F00BFA829040883
:10389000606604084067040890290408773500082A
:1038A00090270408704770477047416070470022B6
:1038B00010B5B1F90840B1F90A1002804280848045
:1038C000C18010BD70477047012303727047704775
:1038D00070477047704770477047436800F11001A8
:1038E0001A681846526E1047436800F110011A68B2
:1038F0001846126E10477047034610B4C4684168FA
:103900006210E40701EB02009B6848BF8A585DF82B
:10391000044B48BFD358184743682BB183682BB971
:10392000C06800F0010070471846704701207047DA
:1039300010B504460C213CF097F9204610BD10B597
:1039400004464FF4AE713CF08FF9204610BD10B51F
:10395000044610213CF088F9204610BD10B50446FD
:1039600038213CF081F9204610BD10B504462821CD
:103970003CF07AF9204610BD10B5044640213CF0D9
:1039800073F9204610BD10B5044640213CF06CF997
:10399000204610BD10B515F009FABDE810400368C7
:1039A000DB6B184770B5044690F8390094F838304E
:1039B0000130C0B2984284F8390005D9012323723E
:1039C000002384F8393070BDB4F93A20002117F093
:1039D000FDFA83B213F0010206D04FF6FF71002802
:1039E000D8BF0A46981800B2638AC01AA0876068D8
:1039F0000368DB69984705464DB1E988A38F2846DF
:103A000019442B6809B25B6B9847AD69F4E76068AD
:103A1000BDE8704003685B69184770B5044690F8CC
:103A2000390094F838300130C0B2984284F8390037
:103A300005D901232372002384F8393070BDB4F90D
:103A40003A20002117F0C2FA83B213F0010206D027
:103A50004FF6FF710028D8BF0A46981800B2638A53
:103A6000C01AA08760680368DB69984705464DB1B6
:103A7000E988A38F284619442B6809B25B6B9847E5
:103A8000AD69F4E76068BDE8704003685B6918479A
:103A9000054B1B783BB143682BB11A6800F10C0150
:103AA000526E18461047704747B20820054B1B78E6
:103AB0003BB143682BB11A6800F10C01526E1846F5
:103AC0001047704747B2082070B5037A0546BBB966
:103AD00040680368DB69984704464CB1E1886B8F06
:103AE0002046C91A236809B25B6B9847A469F4E7BA
:103AF000686805F10C010368BDE870401B6E18474B
:103B000070BD70B5037A0546BBB940680368DB69D0
:103B1000984704464CB1E1886B8F2046C91A236848
:103B200009B25B6B9847A469F4E7686805F10C017A
:103B30000368BDE870401B6E184770BD37B504467A
:103B4000807A637A0130C0B29842A07205D901230D
:103B500023720023A37203B030BDB4F90C200021FE
:103B600017F034FA83B213F0010226D1E081002568
:103B7000164BE1891B881648628BB0F900005B1A6E
:103B80009BB219B2ADF80400D31A60686183ADF836
:103B90000210ADF80050ADF80630036869461B69A5
:103BA0009847A37A012BD6D10A4B1B78002BD2D091
:103BB00015F0FCF815F000F9CDE74FF6FF7100287D
:103BC000D8BF0A461344E381D1E700BF3EB20820C4
:103BD0003CB2082046B2082070B50446154603687A
:103BE0009B6B9847236829462046BDE87040DB6BF5
:103BF00018470000F8B50446002517460E4615F094
:103C0000BFF9104BC4F83C511C600F4BC4F8405135
:103C100023600E4BC4F84851C4F844310C4BC4F82F
:103C20004C511868C4F85051C4F85471C4F8586124
:103C3000036829469B689847284601F01DFC2046EA
:103C4000F8BD00BF94B208205C2A0408442A040886
:103C500048B20820064BC0F84801C0F84C31002398
:103C6000C0F8503100F5A273C0F84031704700BF72
:103C7000993E0008064BC0F84801C0F84C310023BB
:103C8000C0F8503100F5A273C0F84031704700BF52
:103C900095430008064BC0F84801C0F84C3100239A
:103CA000C0F8503100F5A273C0F84031704700BF32
:103CB00065400008064BC0F84801C0F84C310023AD
:103CC000C0F8503100F5A273C0F84031704700BF12
:103CD000F9440008064BC0F84801C0F84C310023F5
:103CE000C0F8503100F5A273C0F84031704700BFF2
:103CF000C5460008064BC0F84801C0F84C31002307
:103D0000C0F8503100F5A273C0F84031704700BFD1
:103D1000CD410008064BC0F84801C0F84C310023E3
:103D2000C0F8503100F5A273C0F84031704700BFB1
:103D300025480008064BC0F84801C0F84C31002364
:103D4000C0F8503100F5A273C0F84031704700BF91
:103D5000854900082DE9F0470746906899460368B1
:103D600088461B6A1546DDF820A0984740F6837305
:103D7000984205D8A321424B424A43483DF044FBB8
:103D8000686803681B6A98470F2803D83F4B3D4A71
:103D9000A421F2E7E86803681B6A98470B2803D858
:103DA0003B4B384AA521E8E715F000F8043015F040
:103DB0004AF8D9F8000010B10368DB689847D9F8D1
:103DC000000010B103681B689847386810B1036899
:103DD0005B699847D8F8000010B103685B689847A2
:103DE000386810B103681B689847D8F8000010B114
:103DF00003689B689847E868002103685B6A9847F6
:103E0000044620B1002343600372224B0360A8687C
:103E1000002103685B6A9847064608B1FCF788FFF3
:103E20006868002103685B6A9847054610B131460F
:103E3000FCF758FFC9F80040C8F800503E60E5B1F3
:103E40002B1DCAF80030C5F808A03368F56330466A
:103E5000DB6898472B6828461B6898472146304600
:103E600017F0AEF8236820461B6998472368204660
:103E70005B6998472846BDE8F0872B46E1E700BF1D
:103E8000382B04086A2E0408C62B0408072C0408E3
:103E9000AA2C0408B02A040807B5D0F8583100F558
:103EA0009E710093D0F85421034B0448FFF752FF52
:103EB00003B05DF804FB00BF88B2082084B208207C
:103EC0002DE9F84F074690689946036888461B6AB3
:103ED0009346DDF828A0984740F69333984205D8DA
:103EE000A321574B574A58483DF08EFADBF804009F
:103EF00003681B6A98470F2803D8544B514AA421E2
:103F0000F1E7DBF80C0003681B6A9847372803D8F1
:103F10004F4B4C4AA521E6E714F048FF043014F05B
:103F200092FFD9F8000010B10368DB689847D9F810
:103F3000000010B103681B689847386810B1036827
:103F40005B699847D8F8000010B103685B68984730
:103F5000386810B103681B689847D8F8000010B1A2
:103F600003689B689847DBF80C00002103685B6AD4
:103F70009847044648B3374B002503601423437227
:103F800000F11003456005728572C581282229461B
:103F900018463DF0C2FA012284F835202E4A2F49F6
:103FA00022612F4AA582B2F90020E582258365832C
:103FB000A583E583258465842586658684F8345049
:103FC000A281B1F90010FFF707FEDBF8080000211D
:103FD00003685B6A9847064608B1FCF70DFEDBF8FC
:103FE0000400002103685B6A9847054610B131461A
:103FF000FCF71CFEC9F80040C8F800503E60E5B16F
:104000002B1DCAF80030C5F808A03368F5633046A8
:10401000DB6898472B6828461B689847214630463E
:1040200016F0CEFF236820461B6998472368204678
:104030005B6998472846BDE8F88F2B46E1E700BF4B
:10404000382B040899300408C62B0408072C0408F0
:10405000AA2C04081C2B0408DC2904083CB2082004
:104060003EB2082007B5D0F8583100F59E71009394
:10407000D0F85421034B0448FFF722FF03B05DF84A
:1040800004FB00BF88B2082084B208202DE9F04765
:10409000074690689946036888461B6A1546DDF80E
:1040A00020A09847B0F5EB6F05D2A321414B424ABF
:1040B00042483DF0A9F9686803681B6A98470F28D1
:1040C00003D83F4B3C4AA421F2E7E86803681B6A27
:1040D00098470B2803D83B4B374AA521E8E714F053
:1040E00065FE043014F0AFFED9F8000010B103688B
:1040F000DB689847D9F8000010B103681B6898473F
:10410000386810B103685B699847D8F8000010B1AF
:1041100003685B689847386810B103681B68984764
:10412000D8F8000010B103689B689847E868002140
:1041300003685B6A9847044620B10023436003721A
:10414000214B0360A868002103685B6A9847064614
:1041500008B1FCF7ADFD6868002103685B6A984709
:10416000054610B13146FCF77DFDC9F80040C8F89E
:1041700000503E60E5B12B1DCAF80030C5F808A01C
:104180003368F5633046DB6898472B6828461B6820
:1041900098472146304616F013FF236820461B69D6
:1041A0009847236820465B6998472846BDE8F08712
:1041B0002B46E1E7382B0408EE320408C62B04082E
:1041C000072C0408AA2C0408B02A040807B5D0F864
:1041D000583100F59E710093D0F85421034B0448E8
:1041E000FFF754FF03B05DF804FB00BF88B208205E
:1041F00084B20820F8B50026054604460F46124B47
:104200004660067245F80C3B284612F0A7F90F4BA2
:1042100084F838701B7884F83960A6871BB90123AD
:1042200023722046F8BD0A4B0A4FB3F90010B7F9C4
:10423000002028462661FFF7CFFC284612F00AF935
:104240003B885B426387ECE7D42A040847B2082026
:104250003CB208203EB208202DE9F047074690689E
:104260009946036888461B6A1446DDF820A09847E3
:1042700040F68373984205D8A321414B414A4248F6
:104280003DF0C2F8606803681B6A98470F2803D89E
:104290003E4B3C4AA421F2E7E06803681B6A98475A
:1042A0003F2803D83A4B374AA521E8E714F07EFDB2
:1042B000043014F0C8FDD9F8000010B10368DB68C1
:1042C0009847D9F8000010B103681B689847386810
:1042D00010B103685B699847D8F8000010B1036813
:1042E0005B689847386810B103681B689847D8F82E
:1042F000000010B103689B689847E06800210368DC
:104300005B6A9847054610B11421FFF773FFA06858
:10431000002103685B6A9847064608B1FCF708FD70
:104320006068002103685B6A9847044610B1314613
:10433000FCF7D8FCC9F80050C8F800403E60E4B172
:10434000231DCAF80030C4F808A03368F46330466F
:10435000DB689847236820461B6898472946304603
:1043600016F02EFE2B6828461B6998472B682846B6
:104370005B6998472046BDE8F0872346E1E700BF28
:10438000382B0408742F0408C62B0408072C0408D3
:10439000AA2C040807B5D0F8583100F59E71009397
:1043A000D0F85421034B0448FFF756FF03B05DF8E3
:1043B00004FB00BF88B2082084B208202DE9F04732
:1043C000074690689946036888461B6A1446DDF8DC
:1043D00020A0984740F69333984205D8A321414B3B
:1043E000414A42483DF010F8606803681B6A9847EC
:1043F0000F2803D83E4B3C4AA421F2E7E06803684B
:104400001B6A98473F2803D83A4B374AA521E8E76B
:1044100014F0CCFC043014F016FDD9F8000010B1F3
:104420000368DB689847D9F8000010B103681B687F
:104430009847386810B103685B699847D8F800005E
:1044400010B103685B689847386810B103681B684F
:104450009847D8F8000010B103689B689847E06857
:10446000002103685B6A9847054610B11421FFF7E5
:10447000C1FEA068002103685B6A9847064608B140
:10448000FCF7BAFB6068002103685B6A9847044642
:1044900010B13146FCF7CAFBC9F80050C8F800401B
:1044A0003E60E4B1231DCAF80030C4F808A03368A8
:1044B000F4633046DB689847236820461B689847BA
:1044C0002946304616F07CFD2B6828461B69984724
:1044D0002B6828465B6998472046BDE8F08723464D
:1044E000E1E700BF382B0408C3310408C62B0408D9
:1044F000072C0408AA2C040807B5D0F8583100F599
:104500009E710093D0F85421034B0448FFF756FFE7
:1045100003B05DF804FB00BF88B2082084B2082015
:1045200003685B6A18470000F8B500260546044694
:104530000F46124B4660067245F80C3B284612F0B7
:104540000DF80F4B84F838701B7884F83960A68713
:104550001BB9012323722046F8BD0A4B0A4FB3F959
:104560000010B7F9002028462661FFF735FB2846E2
:1045700011F070FF3B886387EDE700BFF82A04085D
:1045800047B208203CB208203EB208202DE9F0478F
:10459000074690689946036888461B6A1446DDF80A
:1045A00020A09847B0F5697F05D2A321404B414A2E
:1045B00041483CF029FF606803681B6A98470F2850
:1045C00003D83E4B3B4AA421F2E7E06803681B6A2C
:1045D00098473F2803D83A4B364AA521E8E714F01C
:1045E000E5FB043014F02FFCD9F8000010B103688B
:1045F000DB689847D9F8000010B103681B6898473A
:10460000386810B103685B699847D8F8000010B1AA
:1046100003685B689847386810B103681B6898475F
:10462000D8F8000010B103689B6898470021E06843
:10463000FFF776FF054610B11421FFF775FFA0685C
:10464000002103685B6A9847064608B1FCF7B0FB97
:104650006068002103685B6A9847044610B13146E0
:10466000FCF780FBC9F80050C8F800403E60E4B198
:10467000231DCAF80030C4F808A03368F46330463C
:10468000DB689847236820461B68984729463046D0
:1046900016F096FC2B6828461B6998472B6828461D
:1046A0005B6998472046BDE8F0872346E1E700BFF5
:1046B000382B0408FD340408C62B0408072C040812
:1046C000AA2C040807B5D0F8583100F59E71009364
:1046D000D0F85421034B0448FFF758FF03B05DF8AE
:1046E00004FB00BF88B2082084B208202DE9F047FF
:1046F000074690689946036888461B6A1446DDF8A9
:1047000020A09847B0F5EB6F05D2A321404B414A5A
:1047100041483CF079FE606803681B6A98470F289F
:1047200003D83E4B3B4AA421F2E7E06803681B6ACA
:1047300098473F2803D83A4B364AA521E8E714F0BA
:1047400035FB043014F07FFBD9F8000010B103688A
:10475000DB689847D9F8000010B103681B689847D8
:10476000386810B103685B699847D8F8000010B149
:1047700003685B689847386810B103681B689847FE
:10478000D8F8000010B103689B6898470021E068E2
:10479000FFF7C6FE054610B11421FFF7C5FEA0685D
:1047A000002103685B6A9847064608B1FCF780FA67
:1047B0006068002103685B6A9847044610B131467F
:1047C000FCF750FAC9F80050C8F800403E60E4B168
:1047D000231DCAF80030C4F808A03368F4633046DB
:1047E000DB689847236820461B689847294630466F
:1047F00016F0E6FB2B6828461B6998472B6828466D
:104800005B6998472046BDE8F0872346E1E700BF93
:10481000382B0408E8330408C62B0408072C0408C6
:10482000AA2C040807B5D0F8583100F59E71009302
:10483000D0F85421034B0448FFF758FF03B05DF84C
:1048400004FB00BF88B2082084B208202DE9F0479D
:10485000074690689946036888461B6A1446DDF847
:1048600020A09847B0F5697F05D2A321404B414A6B
:1048700041483CF0C9FD606803681B6A98470F28EF
:1048800003D83E4B3B4AA421F2E7E06803681B6A69
:1048900098473F2803D83A4B364AA521E8E714F059
:1048A00085FA043014F0CFFAD9F8000010B103688B
:1048B000DB689847D9F8000010B103681B68984777
:1048C000386810B103685B699847D8F8000010B1E8
:1048D00003685B689847386810B103681B6898479D
:1048E000D8F8000010B103689B6898470021E06881
:1048F000FFF716FE054610B11421FFF715FEA0685C
:10490000002103685B6A9847064608B1FCF72EF958
:104910006068002103685B6A9847044610B131461D
:10492000FCF7FCF8C9F80050C8F800403E60E4B15C
:10493000231DCAF80030C4F808A03368F463304679
:10494000DB689847236820461B689847294630460D
:1049500016F036FB2B6828461B6998472B682846BB
:104960005B6998472046BDE8F0872346E1E700BF32
:10497000382B04084D2D0408C62B0408072C040806
:10498000AA2C040807B5D0F8583100F59E710093A1
:10499000D0F85421034B0448FFF758FF03B05DF8EB
:1049A00004FB00BF88B2082084B2082070470000D2
:1049B00030B5124D8FB02B6813F001031BD13F228D
:1049C00009920F4A012408920E4ACDE90B3307924F
:1049D00004220A93CDE90232CDE90534019316236E
:1049E0000494009320220849084800F06BF8084816
:1049F0002C603CF027FD05480FB030BD4033062049
:104A0000AC250608F023060878C6040844330620BF
:104A1000AD49000813B5002249B102AB019203F879
:104A2000052D0268946801AAA04702B010BD08468F
:104A3000FBE7C0897047008A7047C088704780884C
:104A40007047807A00F07F007047807AC009704715
:104A5000002070479FED010A704700BF0000000072
:104A6000406A7047806A704770478B88C069DB0A6C
:104A70000A6850F823001044704710B5C2B1137B88
:104A8000B3B1547BD27A240204F4E0641443026A82
:104A900098B202EB840213888B4202D192F9020091
:104AA00010BD05D8013880B204320028F3D1F7E7F1
:104AB0000020F5E710B504462C213BF0D5F8204640
:104AC00010BD000030B504468BB0BDF860500895AD
:104AD000BDF85C5007959DF8505006959DF84C50D8
:104AE00005959DF8485004959DF8445003959DF810
:104AF000405002959DF83C500195BDF83850009506
:104B000015F0C8FD2046064B2360159BE361169BFC
:104B10002362199B63621A9BA3620BB030BD00BF76
:104B2000203604087047000030B5124C8FB023685F
:104B300013F001031BD13F2209920F4ACDE90B3339
:104B400008920E4A0A93CDE9063205930422012504
:104B5000CDE901334123CDE9032500930C22084917
:104B60000848FFF7AFFF084825603CF06BFC05489C
:104B70000FB030BD7033062090250608F8230608D4
:104B800008D4040874330620254B00087047000041
:104B900030B5134C8FB0236813F001031CD13F22B2
:104BA0000992104ACDE90B3308920F4A0A93CDE9D6
:104BB0000632059304220125CDE901331423CDE902
:104BC000032500932B22172308490948FFF77AFF92
:104BD000084825603CF036FC05480FB030BD00BFEA
:104BE000A0330620F024060880240608B0D4040868
:104BF000A43306208D4B00087047000030B5124CDE
:104C00008FB0236813F001031BD13F2209920F4A92
:104C1000CDE90B3308920E4A0A93CDE9063205938B
:104C200004220125CDE901335A23CDE90325009360
:104C30000C2208490848FFF745FF084825603CF06A
:104C400001FC05480FB030BDD0330620D82506083A
:104C5000EC2406080CD70408D4330620F94B0008CE
:104C60007047000030B5134C8FB0236813F0010378
:104C70001CD13F220992104ACDE90B3308920F4A0A
:104C80000A93CDE90632059304220125CDE90133CB
:104C90004123CDE9032500931B22492308490948F4
:104CA000FFF710FF084825603CF0CCFB05480FB02B
:104CB00030BD00BF00340620E0250608F4240608B5
:104CC000B4D7040804340620614C00087047000083
:104CD00030B5124C8FB0236813F001031BD13F2273
:104CE00009920F4ACDE90B3308920E4A0A93CDE997
:104CF0000632059304220125CDE901332423CDE9B1
:104D0000032500930C2208490848FFF7DBFE0848FA
:104D100025603CF097FB05480FB030BD30340620CD
:104D2000D4250608F824060830D9040834340620AF
:104D3000CD4C00087047000030B5124C8FB023688E
:104D400013F001031BD13F2209920F4ACDE90B3327
:104D500008920E4A0A93CDE90632059304220125F2
:104D6000CDE901337823CDE9032500930B220849CF
:104D70000848FFF7A7FE084825603CF063FB05489C
:104D80000FB030BD60340620D02506080425060883
:104D9000702E050864340620354D00087047000069
:104DA00030B5134C8FB0236813F001031CD13F22A0
:104DB0000992104ACDE90B3308920F4A0A93CDE9C4
:104DC0000632059304220125CDE901332023CDE9E4
:104DD000032500932822262308490948FFF772FE7D
:104DE000084825603CF02EFB05480FB030BD00BFE1
:104DF00090340620B4260608082506080C2F05085E
:104E0000943406209D4D00087047000030B5134CC7
:104E10008FB0236813F001031CD13F220992104A7E
:104E2000CDE90B3308920F4A0A93CDE90632059378
:104E300004220125CDE901333723CDE90325009371
:104E40001722412308490948FFF73CFE084825601E
:104E50003CF0F8FA05480FB030BD00BFC034062062
:104E6000002506087425060870650508C434062068
:104E7000094E00087047000030B5134C8FB023680E
:104E800013F001031CD13F220992104ACDE90B33E4
:104E900008920F4A0A93CDE90632059304220125B0
:104EA000CDE901330B23CDE90325009319220D230E
:104EB00008490948FFF706FE084825603CF0C2FA99
:104EC00005480FB030BD00BFF0340620F4230608BB
:104ED0008C2506089CA50508F4340620754E0008AC
:104EE0007047000030B5134C8FB0236813F00103F6
:104EF0001CD13F220992104ACDE90B3308920F4A88
:104F00000A93CDE90632059304220125CDE9013348
:104F10002623CDE9032500931B222A2308490948AB
:104F2000FFF7D0FD084825603CF08CFA05480FB02B
:104F300030BD00BF20350620FC2306089425060856
:104F400020C1050824350620E14E00087047000006
:104F500030B5124C8FB0236813F001031BD13F22F0
:104F600009920F4ACDE90B3308920E4A0A93CDE914
:104F70000632059304220125CDE901333023CDE922
:104F8000032500930E2208490848FFF79BFD0848B7
:104F900025603CF057FA05480FB030BD503506206B
:104FA000E8240608982506089CC205085435062002
:104FB0004D4F00087047000030B5124C8FB0236889
:104FC00013F001031BD13F2209920F4ACDE90B33A5
:104FD00008920E4A0A93CDE9063205930422012570
:104FE000CDE901331423CDE9032500930B220849B1
:104FF0000848FFF767FD084825603CF023FA05489C
:105000000FB030BD80350620842406089C25060894
:1050100060C3050884350620B54F000870470000BE
:1050200030B5134C8FB0236813F001031CD13F221D
:105030000992104ACDE90B3308920F4A0A93CDE941
:105040000632059304220125CDE901331A23CDE967
:105050000325009326221E2308490948FFF732FD45
:10506000084825603CF0EEF905480FB030BD00BFA0
:10507000B0350620FC240608A0250608FCC3050858
:10508000B43506201D5000087047000030B5134CA1
:105090008FB0236813F001031CD13F220992104AFC
:1050A000CDE90B3308920F4A0A93CDE906320593F6
:1050B00004220125CDE901331A23CDE9032500930C
:1050C00026221D2308490948FFF7FCFC08482560F3
:1050D0003CF0B8F905480FB030BD00BFE035062000
:1050E00088240608A425060810C60508E43506200D
:1050F000895000087047000030B5124D8FB02B6802
:1051000013F001031BD13F2209920F4A0124089298
:105110000E4ACDE90B33079204220A93CDE90232FD
:10512000CDE905340193102304940093212208490A
:105130000848FFF7C7FC08482C603CF083F9054895
:105140000FB030BD10360620E4240608A825060856
:1051500024C8050814360620F550000810B50024B0
:1051600004600C6014601C6010BD704730B5134CB7
:105170008FB0236813F001031CD13F220992104A1B
:10518000CDE90B3308920F4A0A93CDE90632059315
:1051900004220125CDE901332023CDE90325009325
:1051A0002522242308490948FFF78CFC084825607C
:1051B0003CF048F905480FB030BD00BF403606202E
:1051C0000C250608DC2506085C1406084436062073
:1051D0006B510008704708B5132953D8DFE801F078
:1051E0000A0E12161A1E2226462A2E32363A3E4A37
:1051F00042464A4E00F08AF8006808BD00F086F882
:105200004068FAE700F082F88068F6E700F07EF880
:10521000C068F2E700F07AF80069EEE700F076F88F
:105220004069EAE700F072F88069E6E700F06EF89E
:10523000C069E2E700F06AF8406ADEE700F066F86D
:10524000806ADAE700F062F8C06AD6E700F05EF83C
:10525000006BD2E700F05AF8406BCEE700F056F84A
:10526000806BCAE700F052F8006CC6E700F04EF819
:10527000006AC2E700F04AF8C06BBEE700F046F8EB
:10528000406CBAE70020B8E710B5044604213AF0B4
:10529000EBFC204610BD704730B5124C8FB0236830
:1052A00013F001031BD13F2209920F4ACDE90B33C2
:1052B00008920E4A0A93CDE906320593042201258D
:1052C000CDE901331E23CDE90325009312220849BD
:1052D0000848FFF7F7FB084825603CF0B3F805489D
:1052E0000FB030BD7036062078250608B0260608B7
:1052F000F4220608743606209752000800487047CA
:1053000094360408B52070477320704700487047F2
:10531000A036062010B5FFF779FD1B4C2060FFF783
:105320007FFE6060FFF734FCA060FFF7FDFBE060EC
:10533000FFF702FD2061FFF73BFB6061FFF7DCFE3A
:10534000A061FFF78FFCE061FFF736FE2062FFF7F8
:1053500027FD6062FFF7FCFDA062FFF74FFCE062F3
:10536000FFF794FE2063FFF701FF6063FFF7BAFDCC
:10537000A063FFF781FDE063FFF78EFF2064FFF776
:10538000A7FC606410BD00BFA03606200020704757
:10539000002070470EB403B503AB53F8042B002173
:1053A000019314F077FC02B05DF804EB03B0704792
:1053B0000CB407B504AB53F8042B019314F06AFC4A
:1053C00003B05DF804EB02B07047000010B5436C09
:1053D000044673B3038F2BB9C521184B184A1948DB
:1053E0003CF012F8C38E00EB43035B8C0BB316F05A
:1053F00072FB238F012B03D8134B144ACB21EEE70A
:10540000E28E40F63F10531C9BB21946092B88BF11
:10541000A3F10A0104EB4101498C814209D10A2B15
:1054200028BF002304EB4202508C04EB4303588452
:1054300051842046BDE8104016F050BAB844040824
:10544000E5450408C144040805450408134504085B
:1054500016F00BBA10B586B002AC84E806001A4606
:105460000AAB05930193099B21460093089B13F017
:105470001FF806B010BD000038B5D8B9114B12485E
:105480001B681249BBB11A689C681A4402605A68CA
:105490001C441A440A606CB100220D4B1A80FFF7BD
:1054A00035FF0546FFF730FF0A4B1C600A4B1D60B5
:1054B0000A4B188038BD0A4B03600A4B0B600A4B3D
:1054C0001C68E8E7E8360620EC360620F0360620B1
:1054D000F436062098B20820A0B208209CB208201A
:1054E0009C2A0608E4270608982A0608044B1B682D
:1054F00053F82100034B1B6803EB4000704700BFCB
:10550000F0360620EC360620012380F8781080F86B
:1055100079307047002070474164003118BF012185
:10552000014B1970704700BF47B208200020704738
:10553000836B0BB10846184770474FF6FF707047F2
:10554000406803689B6918477047704770470000C0
:105550009022044B83F8762383F8872383F88423EF
:10556000704700BF00E100E0094A0A49D3680A48D1
:10557000C3F30A03013B9BB20B801169C1F30A011B
:10558000013901801364536B43F001035363704787
:10559000006801402E3706202C370620014B986A00
:1055A000704700BF846801400122024B996243F8B2
:1055B000602C7047846801407047242303FB01017D
:1055C000002381F82430704780F82C10704710B504
:1055D000044630213AF048FB204610BD38B5044659
:1055E0004FF4005117F07CFA23685D6E13F0DEFB78
:1055F00001462046A8472368064AD3F88850064942
:1056000000232046A8476268044B5A64044A53604A
:1056100038BD00BF289C142028E40820303706201D
:10562000FC36062010B531B90A4B0B4A40F2D221A4
:105630000A483BF0E9FEC0E90F12003218BF012210
:1056400007490A7002681946BDE81040D2F88C205C
:10565000104700BFB647040847550408EE47040842
:1056600046B2082008B5094B1B888B4203D8084B6B
:105670001B88934205D9074B074A9E2107483BF0F8
:10568000C3FE074B1980074B1A8008BD3CB20820A7
:105690003EB208205347040804550408EE470408A6
:1056A00042B2082044B2082008B531B1044B054A83
:1056B0004FF4917104483BF0A7FE90F8250008BD17
:1056C000D0460408D44A0408E446040810B531B1B1
:1056D000064B074A4FF48E7106483BF095FE406832
:1056E0001146BDE8104003681B6B1847D0460408FC
:1056F0001F510408E446040808B531B1044B054ABB
:105700004FF48A7104483BF07FFEC06808BD00BFBB
:10571000D046040866520408E446040870B50446FE
:105720000D4629B10D4B0E4A5E210E483BF06CFE32
:10573000406811460368DB689847606803689B6AA5
:1057400098472368E06084F828505E6A29462B4613
:105750002046B446BDE8704001226047D0460408A8
:10576000C04E0408E44604082DE9F04104461746FB
:105770000D4629B10E4B0F4A4E210F483BF044FE17
:1057800040683946026896681A46B0476068036800
:105790009B6A98472368E06084F828505E6A29462F
:1057A0002B462046B446BDE8F0410122604700BFC9
:1057B000D04604084C4D0408E446040808B529B155
:1057C000054B064A402106483BF01EFEC0E9053263
:1057D0008160016108BD00BFD0460408F74B040892
:1057E000E446040817F0BAB817F0ECB80FF067B940
:1057F0000FF0D7BA10B504460FF00AFF2368204611
:10580000BDE81040D3F8AC3018470FF08BBA90F8D1
:105810007A301BB1406803681B6818471846704708
:1058200010B590F8784090F834100C4B8C421A78F0
:1058300009D03AB90A490B4A088814881080012215
:105840000C801A7010BD002AFCD0064A0449148846
:1058500008880C8010800022F3E700BF40B20820C7
:105860003EB208203CB2082070B5044629B1274B4F
:10587000274A6E2127483BF0C7FD052A2BD8DFE8D1
:1058800002F003252B30373F406803681B699847B7
:1058900008B3012384F82530002384F82630A36060
:1058A000236194F82730B3B96468236820469B6A63
:1058B000984723680546DB6A2046984785420AD107
:1058C00023682046BDE870409B691847002380F894
:1058D000253080F8263070BDC3610023A3602361AA
:1058E000F9E7C361012380F8263080F82830F4E717
:1058F0000023012280F8253080F82630C261EDE7D0
:10590000003318BF012380F82730E4E7D0460408AD
:105910002D480408E44604082DE9F34105461646DF
:10592000984629B1164B174AE92117483BF06CFD00
:10593000406803681B699847F8B1144C012120683E
:105940000FF0C8FE07464146684614F069FB104B4D
:10595000BDF902101B88BDF90020686803FB012215
:10596000016807EB4202CD693146A8472068036809
:10597000DB6A02B0BDE8F041184702B0BDE8F08133
:10598000D0460408B4530408E446040848B208208A
:1059900042B2082008B590F8243033B1084B094AC8
:1059A00040F26B1108483BF02FFD012280F82420C3
:1059B00081F83430CB860B870B63184608BD00BFD7
:1059C00023470408FF4F0408E4460408F8B50446DA
:1059D00029B13F4B3F4AA9213F483BF015FD90F8C4
:1059E00025301BB990F82630002B6FD000273B4B99
:1059F0001B6893F86B10236984F826700B442361AD
:105A000094F82830002B54D0136810465B69656801
:105A10009847E6692B682EB331465B6A284698475B
:105A20002B682846DB6AE669984786422CBF002629
:105A30000126E7612B6828469B6A9847A368E060C7
:105A40000133A360D4E90432A0695A43A3684343F5
:105A50009A4239D994F82C1069BB012184F8281096
:105A60003046F8BD226A62B1D3E9097328469847E7
:105A7000216A01442846B847A368226A2662134473
:105A8000A36094F827602B6826B19B692846984745
:105A90000646CFE79B6A284698472B680746DB6A8D
:105AA00028469847874201D22B68EEE784F82560A4
:105AB000C0E70126C6E7D31AB3FBF0F30BB92362A4
:105AC000CBE7013B2362C9E70021C7E70126C7E70F
:105AD000D04604089A490408E446040848B208205D
