:020000040800F2
:1000000000002F20E93F0108298400082B84000804
:100010002D8400082F84000831840008394001082D
:10002000000000000000000000000000711B01083B
:100030003384000800000000011B0108DD370108BF
:1000400039400108394001083940010839400108A8
:100050003940010839400108394001083940010898
:100060003940010839400108394001083940010888
:100070003940010839400108394001083940010878
:100080003584000839400108394001083940010829
:100090003940010839400108394001083940010858
:1000A0003940010839400108394001083940010848
:1000B000394001083D84000849840008558400083F
:1000C00061840008394001086D8400083940010846
:1000D0007984000885840008394001083940010806
:1000E0003940010839400108394001083940010808
:1000F00039400108394001083940010839400108F8
:1001000039400108A184000839400108394001083C
:1001100039400108394001083940010839400108D7
:1001200039400108394001083940010839400108C7
:1001300039400108394001083940010839400108B7
:1001400039400108394001083940010839400108A7
:1001500039400108AD8400083940010839400108E0
:100160003940010839400108394001083940010887
:100170003940010839400108394001083940010877
:10018000B9840008394001083940010839400108A4
:100190003940010839400108394001083940010857
:1001A0003940010839400108394001083940010847
:1001B0003940010839400108394001083940010837
:1001C0003940010839400108394001083940010827
:1001D0003940010839400108394001083940010817
:1001E0003940010839400108394001083940010807
:1001F00039400108394001083940010839400108F7
:1002000039400108394001083940010839400108E6
:100210003940010839400108C58400083940010807
:1002200039400108394001083940010839400108C6
:1002300039400108394001083940010839400108B6
:10024000394001083940010839400108D1840008CB
:10025000DD840008E984000839400108F5840008BD
:10026000018500083940010839400108394001087A
:0402700005850008F8
:1002800010B5054C237833B9044B13B1044800E092
:1002900000BF0123237010BD24330620000000009E
:1002A000D824040808B5034B1BB10349034800E0F8
:1002B00000BF08BD0000000028330620D824040831
:1002C00081F0004102E000BF83F0004330B54FEA07
:1002D00041044FEA430594EA050F08BF90EA020F74
:1002E0001FBF54EA000C55EA020C7FEA645C7FEA07
:1002F000655C00F0E2804FEA5454D4EB5555B8BF2A
:100300006D420CDD2C4480EA020281EA030382EA9A
:10031000000083EA010180EA020281EA0303362D2C
:1003200088BF30BD11F0004F4FEA01314FF4801CFF
:100330004CEA113102D0404261EB410113F0004F11
:100340004FEA03334CEA133302D0524263EB4303C8
:1003500094EA050F00F0A780A4F10104D5F1200E66
:100360000DDB02FA0EFC22FA05F2801841F10001C1
:1003700003FA0EF2801843FA05F359410EE0A5F195
:1003800020050EF1200E012A03FA0EFC28BF4CF0C6
:10039000020C43FA05F3C01851EBE37101F000457C
:1003A00007D54FF0000EDCF1000C7EEB00006EEB89
:1003B0000101B1F5801F1BD3B1F5001F0CD3490813
:1003C0005FEA30004FEA3C0C04F101044FEA44526A
:1003D00012F5800F80F09A80BCF1004F08BF5FEAF1
:1003E000500C50F1000041EB045141EA050130BDD1
:1003F0005FEA4C0C404141EB010111F4801FA4F174
:100400000104E9D191F0000F04BF01460020B1FAC8
:1004100081F308BF2033A3F10B03B3F120020CDA00
:100420000C3208DD02F1140CC2F10C0201FA0CF0DE
:1004300021FA02F10CE002F11402D8BFC2F1200C43
:1004400001FA02F120FA0CFCDCBF41EA0C019040F9
:10045000E41AA2BF01EB0451294330BD6FEA040442
:100460001F3C1CDA0C340EDC04F11404C4F120022D
:1004700020FA04F001FA02F340EA030021FA04F33F
:1004800045EA030130BDC4F10C04C4F1200220FA96
:1004900002F001FA04F340EA0300294630BD21FAD4
:1004A00004F0294630BD94F0000F83F4801306BF9A
:1004B00081F480110134013D4EE77FEA645C18BF8E
:1004C0007FEA655C29D094EA050F08BF90EA020F25
:1004D00005D054EA000C04BF1946104630BD91EA1D
:1004E000030F1EBF0021002030BD5FEA545C05D120
:1004F0004000494128BF41F0004130BD14F580045F
:100500003CBF01F5801130BD01F0004545F0FE41D2
:1005100041F470014FF0000030BD7FEA645C1ABF07
:10052000194610467FEA655C1CBF0B46024650EA3E
:10053000013406BF52EA033591EA030F41F400216A
:1005400030BD00BF90F0000F04BF0021704730B5F0
:100550004FF4806404F132044FF000054FF00001C5
:1005600050E700BF90F0000F04BF0021704730B586
:100570004FF4806404F1320410F0004548BF40425B
:100580004FF000013EE700BF42004FEAE2014FEAB0
:1005900031014FEA02701FBF12F07F4393F07F4F8B
:1005A00081F06051704732F07F4208BF704793F08E
:1005B0007F4F04BF41F40021704730B54FF46074A1
:1005C00001F0004521F000411CE700BF50EA0102A4
:1005D00008BF704730B54FF000050AE050EA01024D
:1005E00008BF704730B511F0004502D5404261EBBD
:1005F00041014FF4806404F132045FEA915C3FF4FE
:10060000D8AE4FF003025FEADC0C18BF03325FEA9A
:10061000DC0C18BF033202EBDC02C2F1200300FA4B
:1006200003FC20FA02F001FA03FE40EA0E0021FA70
:1006300002F11444BDE600BF70B54FF0FF0C4CF45E
:10064000E06C1CEA11541DBF1CEA135594EA0C0F10
:1006500095EA0C0F00F0DEF82C4481EA030621EA4B
:100660004C5123EA4C5350EA013518BF52EA033586
:1006700041F4801143F4801338D0A0FB02CE4FF038
:100680000005E1FB02E506F00042E0FB03E54FF068
:100690000006E1FB03569CF0000F18BF4EF0010E60
:1006A000A4F1FF04B6F5007F64F5407404D25FEA5C
:1006B0004E0E6D4146EB060642EAC62141EA55510F
:1006C0004FEAC52040EA5E504FEACE2EB4F1FD0C51
:1006D00088BFBCF5E06F1ED8BEF1004F08BF5FEACF
:1006E000500E50F1000041EB045170BD06F0004681
:1006F00046EA010140EA020081EA0301B4EB5C042E
:10070000C2BFD4EB0C0541EA045170BD41F4801125
:100710004FF0000E013C00F3AB8014F1360FDEBF4A
:10072000002001F0004170BDC4F10004203C35DA26
:100730000C341BDC04F11404C4F1200500FA05F3A9
:1007400020FA04F001FA05F240EA020001F000424A
:1007500021F0004110EBD37021FA04F642EB0601C0
:100760005EEA430E08BF20EAD37070BDC4F10C04EA
:10077000C4F1200500FA04F320FA05F001FA04F2AE
:1007800040EA020001F0004110EBD37041F100019A
:100790005EEA430E08BF20EAD37070BDC4F12005A5
:1007A00000FA05F24EEA020E20FA04F301FA05F20D
:1007B00043EA020321FA04F001F0004121FA04F2B5
:1007C00020EA020000EBD3705EEA430E08BF20EA85
:1007D000D37070BD94F0000F0FD101F000464000BF
:1007E00041EB010111F4801F08BF013CF7D041EA41
:1007F000060195F0000F18BF704703F00046520045
:1008000043EB030313F4801F08BF013DF7D043EA15
:100810000603704794EA0C0F0CEA135518BF95EACB
:100820000C0F0CD050EA410618BF52EA4306D1D152
:1008300081EA030101F000414FF0000070BD50EA71
:10084000410606BF1046194652EA430619D094EAFB
:100850000C0F02D150EA013613D195EA0C0F05D1E5
:1008600052EA03361CBF104619460AD181EA030139
:1008700001F0004141F0FE4141F470014FF00000F1
:1008800070BD41F0FE4141F4780170BD70B54FF08C
:10089000FF0C4CF4E06C1CEA11541DBF1CEA13550C
:1008A00094EA0C0F95EA0C0F00F0A7F8A4EB0504EE
:1008B00081EA030E52EA03354FEA013100F08880E5
:1008C0004FEA03334FF0805545EA131343EA1263AE
:1008D0004FEA022245EA111545EA10654FEA002663
:1008E0000EF000419D4208BF964244F1FD0404F51C
:1008F000407402D25B084FEA3202B61A65EB030578
:100900005B084FEA32024FF480104FF4002CB6EB34
:10091000020E75EB030E22BFB61A754640EA0C00B4
:100920005B084FEA3202B6EB020E75EB030E22BFF4
:10093000B61A754640EA5C005B084FEA3202B6EB35
:10094000020E75EB030E22BFB61A754640EA9C00F4
:100950005B084FEA3202B6EB020E75EB030E22BFC4
:10096000B61A754640EADC0055EA060E18D04FEA82
:10097000051545EA16754FEA06164FEAC30343EA22
:1009800052734FEAC2025FEA1C1CC0D111F4801FEF
:100990000BD141EA00014FF000004FF0004CB6E7E8
:1009A00011F4801F04BF01430020B4F1FD0C88BF87
:1009B000BCF5E06F3FF6AFAEB5EB030C04BFB6EB92
:1009C000020C5FEA500C50F1000041EB045170BD85
:1009D0000EF0004E4EEA113114EB5C04C2BFD4EBB2
:1009E0000C0541EA045170BD41F480114FF0000E36
:1009F000013C90E645EA060E8DE60CEA135594EAB2
:100A00000C0F08BF95EA0C0F3FF43BAF94EA0C0FB4
:100A10000AD150EA01347FF434AF95EA0C0F7FF429
:100A200025AF104619462CE795EA0C0F06D152EA7D
:100A300003353FF4FDAE1046194622E750EA410661
:100A400018BF52EA43067FF4C5AE50EA41047FF472
:100A50000DAF52EA43057FF4EBAE12E74FEA4102D5
:100A6000B2F1E04324BFB3F5001CDCF1FE5C0DD90C
:100A700001F0004C4FEAC0024CEA5070B2F1004F56
:100A800040EB830008BF20F00100704711F0804F59
:100A900021D113F13872BCBF01F00040704741F41E
:100AA00080114FEA5252C2F11802C2F1200C10FA22
:100AB0000CF320FA02F018BF40F001004FEAC12306
:100AC0004FEAD32303FA0CFC40EA0C0023FA02F3AA
:100AD0004FEA4303CCE77FEA625307D150EA013380
:100AE0001EBF4FF0FE4040F44000704701F0004050
:100AF00040F0FE4040F40000704700BF7047704770
:100B0000704704387047704710B5044610213FF015
:100B1000EBF8204610BDA0F10400F5E7002210B567
:100B20008260044AC16002F108042032046042601D
:100B300010BD00BFC025040870477047704770475C
:100B400010B50446024B036000F093F9204610BD37
:100B5000F825040810B50446FFF7F2FF20464FF4CD
:100B600069713FF0C1F8204610BD000010B5044681
:100B700000F00CFA014B2046236010BDF825040854
:100B800000F078B990F8252012B103685B69184726
:100B9000704781807047C1807047018170474181F3
:100BA000704770477047704770477047C38810B4EC
:100BB000D21A838812B2C91A036809B25B6D5DF854
:100BC000044B1847806A70477047000010B5044610
:100BD000024B036000F0A8FB204610BD2C26040841
:100BE00010B50446FFF7F2FF204640F694313FF07F
:100BF0007BF8204610BD000010B5044600F082FCD2
:100C0000014B2046236010BD2C26040800F08DBB4C
:100C1000704704387047704710B5044610213FF004
:100C200063F8204610BDA0F10400F5E7002210B5DE
:100C30008260044AC16002F108042032046042600C
:100C400010BD00BF5826040870470438704770472D
:100C500010B5044610213FF047F8204610BDA0F122
:100C60000400F5E7002210B58260044AC16002F179
:100C7000080420320460426010BD00BF88260408CA
:100C80007047000010B50446024B036001F076FA8D
:100C9000204610BDC026040810B50446FFF7F2FF39
:100CA00020464FF4EB613FF01FF8204610BD0000D6
:100CB00010B5044601F09CFA014B2046236010BD9C
:100CC000C026040801F05BBA7047043870477047CB
:100CD00010B5044610213FF007F8204610BDA0F1E2
:100CE0000400F5E7002210B58260044AC16002F1F9
:100CF000080420320460426010BD00BFEC260408E6
:100D00007047000010B50446024B036001F002FD7D
:100D1000204610BD2427040810B50446FFF7F2FF53
:100D2000204641F278013EF0DFFF204610BD000072
:100D300010B5044601F03CFD014B2046236010BD78
:100D40002427040801F0E7BC704704387047704757
:100D500010B5044610213EF0C7FF204610BDA0F19B
:100D60000400F5E7002210B58260044AC16002F178
:100D7000080420320460426010BD00BF5027040800
:100D80007047000010B50446024B036002F004FCFB
:100D9000204610BD8827040810B50446FFF7F2FF6F
:100DA00020464FF469713EF09FFF204610BD0000C1
:100DB00010B5044602F02AFC014B2046236010BD0A
:100DC0008827040802F0E9BB0022026070477047E0
:100DD000704700F598730868496803C37047704707
:100DE00002F076BF10B504464FF4AE713EF07CFFC2
:100DF000204610BD10B50446D0F85801FFF7E7FFB4
:100E00002046BDE8104018F0BBB810B50446D0F835
:100E1000400158B10368DB68984738B1D4F8400105
:100E200003689B6898470023C4F8403110BD000058
:100E300010B5044602F01CFF014B2046236010BD94
:100E4000BC270408002070474FF6FF7383814FF0E2
:100E5000FF3303621368C3611060704790F8252068
:100E60001AB190F8242002B118607047704770479B
:100E70007047704770477047034630B4C568446890
:100E80006A10ED0704EB02009B6848BFA25830BC13
:100E900048BFD358184743682BB183682BB9C06843
:100EA00000F001007047184670470120704710B5E8
:100EB000044608213EF018FF204610BD10B5044638
:100EC00010213EF011FF204610BD10B504464FF42E
:100ED00069713EF009FF204610BD00F5567088424A
:100EE00008B505D117F0A2FFBDE8084002F020BF09
:100EF00008BD00000A4A026000228280C28002818E
:100F000042818281C28102824282C0E90522C2619D
:100F10000284428480F82420012280F82520704732
:100F2000F468040870B50446154603681B6B9847BF
:100F3000236829462046BDE870405B6B18470000D7
:100F400010B504462622002140F027FB2046FFF77B
:100F5000D1FF0C4B4FF6FF7223600B4B4FF47F0118
:100F6000A3620023A285C4E90C3184F8383084F8E8
:100F70003930A387E387A4F84020A4F842206364B3
:100F8000204610BD50660408102804082DE9F04FD3
:100F900004460025A046262691B019F0A5FEBA4BBE
:100FA000E56348F8403B32462946404640F0F5FAB2
:100FB0004046FFF79FFFB54BFF2723644FF6FF73B3
:100FC00004F16C0A3246294684F86670A5665046DC
:100FD000ADF8383040F0E1FA5046FFF78BFFAC4BEC
:100FE00010AEE36636F8083D04F1980B3146A4F8DC
:100FF000923084F89470504616F0ADF804F1E00990
:101000005846FFF79DFF484613F0FAFC04F5EA73D3
:101010001846029313F0F4FC04F532731846039358
:10102000FFF78EFF04F5447318460493FFF788FF1B
:1010300004F556731846059316F066F8954B2A4644
:10104000C4F89433944B2946C4F89C334046C4F802
:101050009843C4F8A053FFF765FF40464FF448712A
:10106000FFF79BFD40464FF4F071FFF798FD4FF0FE
:101070007F43271DA3664146384613F015F82A46DC
:1010800029465046FFF74EFF382331465046ADF80B
:10109000383016F060F85146384613F005F840F243
:1010A000AF12584640F28F21FFF73CFF4FF07F43CD
:1010B0000DF11808C4F8C83059464046A4F8CC5081
:1010C00015F0E6FB98E8070004F1D40383E8070075
:1010D0004623DFF8C8A131465846ADF83C30CDF87C
:1010E00038A015F06FFE5946384612F0DDFF48462D
:1010F000422240F21921FFF715FF4FF00B034FF08A
:101100001B024FF00A0B0DA9ADF83430ADF83820B2
:1011100033460A4648460CA9ADF830B013F0CAFC75
:101120004FF496712B46CDE9005148460C22092117
:1011300013F00EFC64222946484613F080FA294633
:10114000484613F044FA4946384612F0ADFF02987B
:1011500042224FF42671FFF7E5FE4FF00B034FF0EC
:101160001B02ADF83430ADF8382033460DAA0CA977
:101170000298ADF830B013F09DFC4FF496730298CE
:10118000CDE900530C222B46092113F0E1FB642228
:101190002946029813F053FA2946029813F017FAD9
:1011A0000299384612F080FF422203985221FFF73D
:1011B000B9FE4FF07F430399C4F8F8324046A4F8D3
:1011C000FC5215F065FB98E8070004F5417383E8CD
:1011D0000700452331460398ADF83C30CDF838A0E0
:1011E00015F0F0FD0399384612F05EFF40F2AF12A1
:1011F000049840F20921FFF795FE4FF07F430499D0
:10120000C4F840334046A4F8445315F041FB98E835
:10121000070004F5537383E807004423314604981C
:10122000ADF83C30CDF838A015F0CCFD0499384627
:1012300012F03AFF05984FF4B1725221FFF772FE97
:101240000123ADF82C300223ADF8303066230CAA10
:10125000ADF83430ADF838300BA90DAB05980096D9
:1012600015F0BDFE0523A4F89033A4F8923304F5DD
:1012700065733846C4F88033059912F015FF20468F
:1012800011B0BDE8F08F00BF38280408E0660408FC
:10129000C067040820280408DB0E00081028040892
:1012A000F8B51A4B018F1B8806468B4229D9184B7B
:1012B0001B682BB9174B184A6C21184840F0E4F80A
:1012C00013F81120164B1B6853F82250154B186861
:1012D00004F04AF92B6807469B6B284698472B6811
:1012E00004469B6C3946284698472B6814FB00F44B
:1012F0005B6A394628469847A4B22044A6F84600BF
:10130000F8BD0023A0F84630FAE700BF9CB20820E1
:1013100098B2082064280408E7280408A6280408CE
:10132000A0B20820A4B20820704770477047034657
:1013300030B4C56844686A10ED0704EB02009B688E
:1013400048BFA25830BC48BFD358184743682BB198
:1013500083682BB9C06800F00100704718467047D9
:101360000120704710B5044610213EF0BDFC204618
:1013700010BD10B5044640F694313EF0B5FC204651
:1013800010BD38B500F64833994204460D4603D1E6
:1013900017F04CFD02F0ACFC04F530639D4203D124
:1013A00017F044FD02F004FD04F518639D4203D1DB
:1013B00017F03CFD02F0CCFC04F520639D4203D104
:1013C00017F034FD02F0D4FC04F5C5639D4203D14F
:1013D00017F02CFD02F0ECFC04F5E5639D4203D10F
:1013E00017F024FD02F0B4FC04F5F5639D4203D12F
:1013F00017F01CFD02F0CCFC04F5CC739D4203D128
:1014000017F014FD02F0D4FC04F198039D4203D1BF
:1014100017F00CFD02F09CFC04F58C739D4203D187
:1014200017F004FD02F0B4FC04F546739D4203D1AD
:1014300017F0FCFC02F0BCFC04F506739D4203D1DE
:1014400017F0F4FC02F084FC04F526739D4203D1EE
:1014500017F0ECFC02F09CFC04F593639D4203D171
:1014600017F0E4FC02F0A4FC04F566739D4203D17E
:1014700017F0DCFC02F06CFC04F583639D4203D1A1
:1014800017F0D4FC02F084FC04F5D5639D4203D12F
:1014900017F0CCFC02F08CFC04F5A3639D4203D151
:1014A00017F0C4FC02F054FC04F5BC64A54205D15D
:1014B00017F0BCFCBDE8384002F06ABC38BD1388A8
:1014C000838615F0D9BC000010B504462622002101
:1014D00040F063F82046FFF70DFD0023A36284F877
:1014E0002C30012384F824304FF6FF73044AE3853F
:1014F000238684F832302260A386204610BD00BFC8
:101500006C6504082DE9F04F0446B7B019F0ECFB08
:10151000002327462625E363E04B2A4647F8403B55
:101520000021384640F039F83846FFF7E3FCDC4B41
:10153000FF2623640023A3664FF6FF7304F16C08B3
:101540002A4684F8666000214046ADF8D03040F06D
:1015500024F84046FFF7CEFCD24B36ADE36635F8B3
:10156000083D04F198092946A4F8923084F8946063
:10157000404615F0F0FD484615F02EFF04F1E0035B
:1015800004F58C7A18461993FFF79EFF504615F024
:1015900023FF04F5B07318461A93FFF795FF04F57F
:1015A000CC731846039315F017FF04F5F073184633
:1015B0001B93FFF789FF04F506731846049315F093
:1015C0000BFF04F5187318461C93FFF77DFF04F515
:1015D00026731846059315F0FFFE04F53873184678
:1015E0001D93FFF771FF04F546731846069315F037
:1015F000F3FE04F5587318461E93FFF765FF04F5D4
:1016000066731846079315F0E7FE04F578731846DD
:101610001F93FFF759FF04F583631846089315F0ED
:10162000DBFE04F58C6318462093FFF74DFF04F5AD
:1016300093631846099315F0CFFE04F59C63184692
:101640002193FFF741FF04F5A36318460A9315F0B1
:10165000C3FE04F5AC6318462293FFF735FF04F58B
:10166000B36318460B93FFF76BFC04F5BC63184695
:101670000C9315F0B1FE04F5C56318460D9315F0F3
:10168000ABFE04F5CE6318462393FFF71DFF04F568
:10169000D56318460E9315F09FFE04F5DE631846D9
:1016A0002493FFF711FF04F5E56318460F9315F037
:1016B00093FE04F5EE6318462593FFF705FF04F546
:1016C000F5631846109315F087FE04F5FE6318467F
:1016D0002693FFF7F9FE04F6280318461193FFF747
:1016E0002FFC04F5076318461293FFF729FC04F654
:1016F000B80318461393FFF723FC04F5106318464C
:101700002793FFF7E1FE04F6381318461493FFF70A
:1017100017FC04F518631846159315F05DFE04F6E2
:10172000C81318462893FFF7CFFE04F52063184628
:10173000169315F051FE04F6482318462993FFF737
:10174000C3FE04F5286318462A93FFF7BDFE04F68E
:10175000B82318461793FFF7F3FB04F530631846D8
:10176000189315F039FE04F6483318462B9315F0FC
:10177000CBFC4D4B3846C4F8843B4C4BC4F8884BEB
:10178000C4F88C3B00231A46C4F8903B1946FFF777
:10179000C9FB38464FF44871FFF7FFF938464FF45C
:1017A000F071FFF7FCF94FF07F43261DA366394621
:1017B000304612F079FC002240461146FFF7B2FB9A
:1017C0003E2329464046ADF8D03015F0C4FC4146D2
:1017D000304612F069FC4846782240F225114FF05D
:1017E0000808FFF79FFB4FF006032A4633A9484637
:1017F000ADF8CC30ADF8D08015F03EFB59234FF05A
:10180000FF3BA4F8D03048463F27FFF749FD494643
:101810004FF0390904F68432C4F8C0203046C4E9D8
:1018200035BB029212F040FC1998A72240F2311108
:10183000FFF778FB2A4633A91998ADF8D070ADF8B8
:10184000CC90FFF73CFE1999304612F02DFC504623
:10185000E02240F22511FFF765FB4FF0060333A9A4
:101860002A465046ADF8CC30ADF8D08015F004FBD8
:101870005A225046A4F85021FFF712FD51464FF06E
:10188000060A029B3046C4F84031C4F854B1C4F88B
:1018900058B112F009FC1A980AE000BF4429040864
:1018A000E0660408C06704082C29040883130008B4
:1018B00040F20F124FF49871FFF734FB2A4633A918
:1018C0001A98ADF8D070ADF8CC90FFF7F8FD1A99E2
:1018D000304612F0E9FB0398122240F22511FFF77F
:1018E00021FB33A92A460398ADF8CCA0ADF8D080EF
:1018F00015F0C2FA5B220398A4F8D021FFF7D0FCC0
:10190000029B0399C4F8C0313046C4F8D4B1C4F87E
:10191000D8B112F0C9FB1B98412240F23111FFF7F8
:1019200001FB2A4633A91B98ADF8D070ADF8CC90D6
:10193000FFF7C5FD1B99304612F0B6FB04987822DC
:1019400040F29D11FFF7EEFA33A92A460498ADF84C
:10195000CCA0ADF8D08015F08FFA56220498A4F8E8
:101960005022FFF79DFC029B0499C4F84032304698
:10197000C4F854B2C4F858B212F096FB1C98A822CE
:1019800040F2A711FFF7CEFA2A4633A91C98ADF80A
:10199000D070ADF8CC90FFF792FD1C99304612F054
:1019A00083FB0598E02240F29D11FFF7BBFA33A9B3
:1019B0002A460598ADF8CCA0ADF8D08015F05CFAB9
:1019C00057220598A4F8D022FFF76AFC029B0599DC
:1019D000C4F8C0323046C4F8D4B2C4F8D8B212F059
:1019E00063FB1D9840F20F1240F2A711FFF79AFA1D
:1019F0002A4633A91D98ADF8D070ADF8CC90FFF70A
:101A00005EFD1D99304612F04FFB0698122240F2FF
:101A10009D11FFF787FA33A92A460698ADF8CCA0A6
:101A2000ADF8D08015F028FA58220698A4F8502373
:101A3000FFF736FC029B0699C4F840333046C4F8E1
:101A400054B3C4F858B312F02FFB1E98412240F251
:101A5000A711FFF767FA2A4633A91E98ADF8D07090
:101A6000ADF8CC90FFF72BFD1E99304612F01CFB11
:101A70000798782240F21521FFF754FA33A92A4635
:101A80000798ADF8CCA0ADF8D08015F0F5F9532249
:101A90000798A4F8D023FFF703FC029B0799C4F82A
:101AA000C0333046C4F8D4B3C4F8D8B312F0FCFA4B
:101AB0001F98A8224FF40871FFF734FA2A4633A979
:101AC0001F98ADF8D070ADF8CC90FFF7F8FC1F99D7
:101AD000304612F0E9FA0898E02240F21521FFF7AB
:101AE00021FA33A92A460898ADF8CCA0ADF8D080E9
:101AF00015F0C2F954220898A4F85024FFF7D0FB3F
:101B0000029B0899C4F840343046C4F854B4C4F871
:101B100058B412F0C9FA209840F20F124FF408712D
:101B2000FFF700FA2A4633A92098ADF8D070ADF837
:101B3000CC90FFF7C4FC2099304612F0B5FA099812
:101B4000122240F21521FFF7EDF933A92A46099830
:101B5000ADF8CCA0ADF8D08015F08EF955220998DB
:101B6000A4F8D024FFF79CFB029B0999C4F8C03469
:101B70003046C4F8D4B4C4F8D8B412F095FA219819
:101B800041224FF40871FFF7CDF92A4633A9219875
:101B9000ADF8D070ADF8CC90FFF791FC21993046AC
:101BA00012F082FA0A98782240F28D21FFF7BAF9F2
:101BB00033A92A460A98ADF8CCA0ADF8D08015F02C
:101BC0005BF950220A98A4F85025FFF769FB029BA5
:101BD0000A99C4F840353046C4F854B5C4F858B52D
:101BE00012F062FA2298A8224FF42671FFF79AF9B0
:101BF0002A4633A92298ADF8D070ADF8CC90FFF703
:101C00005EFC2299304612F04FFA40F263120B98B4
:101C100040F28E21FFF786F94FF07F43C4F8C835B4
:101C20004FF000030DF1B00AA4F8CC350B995046E3
:101C300014F02EFE9AE8070004F2D45C8CE807004A
:101C40004A22D64B29460B983493ADF8D42015F090
:101C5000B9F80B99304612F027FA0C98E02240F2BE
:101C60008D21FFF75FF94FF0060233A9ADF8CC20C4
:101C70000C982A46ADF8D08015F0FEF851220C9849
:101C8000A4F81826FFF70CFB029A0C99C4F8082652
:101C90003046C4F81CB6C4F820B612F005FA0D9808
:101CA0001222AD21FFF73EF94FF0060233A9ADF83D
:101CB000CC200D982A46ADF8D08015F0DDF85E22D4
:101CC0000D98A4F86026FFF7EBFA029A0D99C4F874
:101CD00050263046C4F864B6C4F868B612F0E4F989
:101CE000239840F20F124FF42671FFF71BF92A4692
:101CF00033A92398ADF8D070ADF8CC90FFF7DFFB97
:101D00002399304612F0D0F90E98122240F28D211C
:101D1000FFF708F94FF0060233A9ADF8CC200E9872
:101D20002A46ADF8D08015F0A7F852220E98A4F8F4
:101D3000E026FFF7B5FA029A0E99C4F8D02630468D
:101D4000C4F8E4B6C4F8E8B612F0AEF9249841221B
:101D50004FF42671FFF7E6F82A4633A92498ADF828
:101D6000D070ADF8CC90FFF7AAFB2499304612F062
:101D70009BF90F987822AD21FFF7D4F84FF00602B7
:101D800033A9ADF8CC200F982A46ADF8D08015F0D5
:101D900073F85C220F98A4F86027FFF781FA029A83
:101DA0000F99C4F850273046C4F864B7C4F868B730
:101DB00012F07AF92598A822BC21FFF7B3F82A4639
:101DC00033A92598ADF8D070ADF8CC90FFF777FB2C
:101DD0002599304612F068F91098E022AD21FFF7FE
:101DE000A1F84FF0060233A9ADF8CC2010982A468E
:101DF000ADF8D08015F040F85D221098A4F8E027E7
:101E0000FFF74EFA029A1099C4F8D0273046C4F86A
:101E1000E4B7C4F8E8B712F047F9269840F20F1279
:101E2000BC21FFF77FF82A4633A92698ADF8D07079
:101E3000ADF8CC90FFF743FB2699304612F034F909
:101E400040F26312119840F22711FFF76BF84FF040
:101E50007F404FF00001C4F85808A4F85C185046C1
:101E6000119914F015FD9AE8070004F6640C8CE84B
:101E700007004D22494B294611983493ADF8D420E0
:101E800014F0A0FF1199304612F00EF940F26312DF
:101E900012984FF4CF71FFF745F84FF07F404FF0A5
:101EA0000001C4F8A008A4F8A4185046129914F030
:101EB000EFFC9AE8070004F6AC0C8CE807004C2213
:101EC000364B294612983493ADF8D42014F07AFF9B
:101ED0001299304612F0E8F840F26312139840F27B
:101EE0001621FFF71FF84FF07F404FF00001C4F8B4
:101EF000E808A4F8EC185046139914F0C9FC9AE8C5
:101F0000070004F6F40C8CE807004B22234B29460B
:101F100013983493ADF8D42014F054FF139930463D
:101F200012F0C2F827984122BC21FEF7FBFF33A82C
:101F30002A4601462798ADF8D070ADF8CC90FFF74F
:101F4000BEFA2799304612F0AFF840F263121498A7
:101F5000AE21FEF7E7FF4FF07F404FF00001C4F8DD
:101F60006809A4F86C195046149914F091FC9AE889
:101F7000070004F6741C8CE807004E22074B294624
:101F800014983493ADF8D42014F01CFF1499304603
:101F900012F08AF815987922342101E010280408FB
:101FA000FEF7C0FF4FF0060233A80146ADF8CC2083
:101FB00015982A46ADF8D08014F05EFF602215987F
:101FC000A4F8B829FFF76CF9029A1599C4F8A82962
:101FD0003046C4F8BCB9C4F8C0B912F065F8394647
:101FE0002898A922FEF79EFF33A82A460146289882
:101FF000ADF8D070ADF8CC90FFF761FA2899304673
:1020000012F052F81698E0223521FEF78BFF4FF0C0
:10201000060233A80146ADF8CC2016982A46ADF842
:10202000D08014F029FF5F221698A4F8382AFFF711
:1020300037F9029A1699C4F8282A3046C4F83CBAEF
:10204000C4F840BA12F030F8299840F20F1240213B
:10205000FEF768FF33A82A4601462998ADF8D070EC
:10206000ADF8CC90FFF72BFA2999304612F01CF806
:1020700039462A984122FEF755FF33A82A460146E1
:102080002A98ADF8D070ADF8CC90FFF718FA2A99DD
:10209000304612F009F840F2631217983521FEF726
:1020A00041FF4FF07F404FF00001C4F8E80AA4F868
:1020B000EC1A5046179904F6F42714F0E9FB9AE855
:1020C000070087E807004F222B4B294617983493C7
:1020D000ADF8D42014F076FE1799304611F0E4FFE5
:1020E000189812223421FEF71DFF4FF0060233A983
:1020F000ADF8CC2018982A46ADF8D08014F0BCFE7C
:102100003D221898A4F8382BFFF7CAF8029B1899BB
:10211000C4F8283B3046C4F83CBBC4F840BB11F0BF
:10212000C3FF2B9840F2AB123421FEF7FBFE0423D1
:10213000ADF8C4300523ADF8C830662332AAADF837
:10214000CC30ADF8D03031A933AB2B98009514F0DA
:1021500046FF1923A4F8803B4FF6F973A4F8823B9D
:10216000029B3046C4F8703B2B9911F09DFF20462E
:1021700037B0BDE8F08F00BF1028040870477047E3
:102180007047034630B4C56844686A10ED0704EB35
:1021900002009B6848BFA25830BC48BFD3581847BC
:1021A00043682BB183682BB9C06800F00100704709
:1021B000184670470120704710B5044610213DF0C5
:1021C00093FD204610BD10B504464FF4EB613DF081
:1021D0008BFD204610BD00F20C70884208B505D179
:1021E00016F024FEBDE8084001F0A2BD08BD0000C5
:1021F0002DE9F04F04460025A046262697B018F09A
:1022000073FDDF4BE56348F8403B324629464046C4
:102210003FF0C3F94046FEF76DFEDA4BFF2723641B
:102220004FF6FF7304F16C0A3246294684F8667053
:10223000A5665046ADF850303FF0AFF95046FEF776
:1022400059FED14B16AEE36636F8083D04F1980B03
:102250003146A4F8923084F89470504614F07BFF15
:1022600004F1E0095846FEF76BFE484612F0C8FB41
:1022700004F5EA731846029312F0C2FB04F53273B8
:102280001846039312F0BCFB04F56F7318460693CF
:10229000FEF756FE04F204431846049312F0B0FB16
:1022A00004F59F631846059312F0AAFB04F2EC5361
:1022B00018460793FEF744FE04F234631846089369
:1022C000FEF73EFE04F27C6318460993FEF738FEE3
:1022D00004F2C46318460A93FEF732FE04F20C734C
:1022E00018460B9314F010FFA84B2A46C4F8483741
:1022F000A74B2946C4F850374046C4F84C47C4F8A9
:102300005457FEF70FFE40464FF44871FEF745FC68
:1023100040464FF4F071FEF742FC4FF07F43271D1B
:10232000A3664146384611F0BFFE2A46294650466C
:10233000FEF7F8FD382331465046ADF8503014F022
:102340000AFF5146384611F0AFFE40F2AF12584630
:10235000B021FEF7E7FD4FF07F430DF13008C4F8E0
:10236000C83059464046A4F8CC5014F091FA98E889
:10237000070004F1D40383E80700864B3146149329
:102380003E235846ADF8543014F01CFD59463846EB
:1023900011F08AFE4846422240F29F11FEF7C2FD2C
:1023A0004FF00A024FF00B0A4FF01B0BADF848201C
:1023B000334613AA12A94846ADF84CA0ADF850B068
:1023C00012F078FB4FF496722B46CDE90052484646
:1023D0000C22092112F0BCFA64222946484612F068
:1023E0002EF92946484612F0F2F849464FF00A09FC
:1023F000384611F059FE029842224FF49571FEF7CB
:1024000091FD334613AA12A90298ADF84890ADF891
:102410004CA0ADF850B012F04DFB4FF496722B4625
:10242000CDE9005202980C22092112F091FA64229F
:102430002946029812F003F92946029812F0C7F8CB
:102440000299384611F030FE03984222B921FEF776
:1024500069FD334613AA12A90398ADF84890ADF868
:102460004CA0ADF850B012F025FB4FF496722B46FD
:10247000CDE9005203980C22092112F069FA642276
:102480002946039812F0DBF82946039812F09FF8CA
:102490000399384611F008FE069840F2AF124FF447
:1024A0002271FEF73FFD4FF07F420699C4F8EC23FE
:1024B0004046A4F8F05314F0EBF998E8070004F54F
:1024C0007E7383E80700334B314614934323069809
:1024D000ADF8543014F076FC0699384611F0E4FD5E
:1024E0000498422240F21921FEF71CFD334613AA3C
:1024F00012A90498ADF84890ADF84CA0ADF850B0D2
:1025000012F0D8FA4FF496722B46CDE90052049897
:102510000C22092112F01CFA64222946049812F0B8
:102520008EF82946049812F052F80499384611F0B2
:10253000BBFD059842224FF42671FEF7F3FC3346AB
:1025400013AA12A90598ADF84890ADF84CA0ADF8C3
:1025500050B012F0AFFA4FF496722B46CDE900520C
:1025600005980C22092112F0F3F9642229460598F6
:1025700012F065F82946059812F029F80CE000BF22
:1025800090290408E0660408C06704087829040854
:10259000D7210008102804080599384611F084FD59
:1025A000079842225221FEF7BDFC4FF07F42079967
:1025B000C4F81C264046A4F8205614F069F998E89F
:1025C000070004F5C56383E80700514B31461493B7
:1025D00042230798ADF8543014F0F4FB07993846BD
:1025E00011F062FD089840F2AF1240F2ED11FEF7D3
:1025F00099FC4FF07F420899C4F864264046A4F83D
:10260000685614F045F998E8070004F5CE6383E8AE
:1026100007003F4B3146149341230898ADF85430DE
:1026200014F0D0FB0899384611F03EFD099840F2AD
:10263000AF124FF4CB71FEF775FC4FF07F42099952
:10264000C4F8AC264046A4F8B05614F021F998E836
:10265000070004F5D76383E807002D4B3146149338
:1026600040230998ADF8543014F0ACFB0999384672
:1026700011F01AFD0A9840F2AF1240F20511FEF770
:1026800051FC4FF07F420A99C4F8F4264046A4F862
:10269000F85614F0FDF898E8070004F5E06383E8C5
:1026A00007001B4B314614933F230A98ADF8543072
:1026B00014F088FB0A99384611F0F6FC0B984FF499
:1026C000B1725221FEF72EFC0123ADF844300223F3
:1026D000ADF84830662312AAADF84C30ADF8503052
:1026E00011A913AB0B98009614F079FC0523A4F8FC
:1026F0004437A4F8463704F5E9633846C4F834375C
:102700000B9911F0D1FC204617B0BDE8F08F00BF47
:1027100010280408704770477047034630B4C568F6
:1027200044686A10ED0704EB02009B6848BFA2589A
:1027300030BC48BFD358184743682BB183682BB9C6
:10274000C06800F0010070471846704701207047CC
:1027500010B5044610213DF0C7FA204610BD10B553
:10276000044641F278013DF0BFFA204610BD00F565
:1027700081500C30814208B505D116F057FBBDE8F9
:10278000084001F0C5BA08BD70B504461E46BDF943
:102790001050FEF7C7FB2368314620469A6B9047DE
:1027A000236829462046BDE87040DB6B18470000CF
:1027B0002DE9F04F04462DED048B4FF00009A246A1
:1027C0002625FF274FF6FF76AFB018F08DFADB4BCA
:1027D000C4F83C904AF8403B2A46494650463EF0F1
:1027E000DCFE5046FEF786FBD54B2A46236404F1F7
:1027F0006C03494684F86670C4F8689018460D93D7
:10280000ADF8B0603EF0C9FE0D98FEF773FBCD4BFE
:102810002EADE36635F8083D84F894702946A4F897
:1028200092300D9814F097FC04F1980318460F931A
:10283000FEF786FB04F1E00318461093FEF780FBD9
:1028400004F5947318461193FEF77AFB04F5B873F8
:1028500018461293FEF774FB04F5DC7318461393C5
:10286000FEF76EFB04F5007304F512771846149317
:10287000FEF766FB29463846ADF8B06013F04AF91A
:1028800004F53673294618460493ADF8B06013F08A
:1028900041F904F55A7304F57E78294618460593E4
:1028A000ADF8B06013F036F929464046ADF8B06097
:1028B00013F030F904F5916318461593FEF740FBC9
:1028C00004F59A6318461693FEF73AFB04F5A363E2
:1028D00018461793FEF734FB04F5AC6318461893BB
:1028E000FEF72EFB04F5B56318461993FEF728FB97
:1028F00004F5BE6318461A93FEF722FB04F5C7637E
:102900001846069312F07CF804F22C7318460793CD
:1029100012F076F804F502631846089312F070F886
:1029200004F614131846099312F06AF804F6082303
:1029300018460A9312F064F804F6FC2318460B9329
:1029400012F05EF804F53F6318460C9312F058F845
:1029500004F6E44318461B93FEF7F2FA04F62C53F0
:1029600018461C93FEF7ECFA04F6745304F6046B55
:10297000294618460393ADF8B06013F0CBF829460A
:102980005846ADF8B06013F0C5F804F694631846E5
:102990001D93FEF7D5FA04F6DC6318461E93FEF786
:1029A00093FD04F6147318461F93FEF78DFD04F68D
:1029B0004C7318462093FEF787FD04F6847318467F
:1029C0002193FEF781FD04F6BC7318462293FEF7AF
:1029D0007BFD04F6F47318462393FEF775FD04F5AA
:1029E00081530C3318460E9314F08EFB41F26803AA
:1029F0005549E218E15041F270035460534A494688
:102A0000E25041F2740344F803904FF4F0734A46E5
:102A1000009350464FF44873FFF7B6FE4FF07F43E4
:102A2000261DA3665146304611F03EFB4A464946F4
:102A30000D98FEF777FA482329460D98ADF8B03087
:102A400014F089FB0D99304611F02EFB43220F98AC
:102A500040F2E711FEF766FA4FF0FF330DF1900AEE
:102A6000C4F8C830A4F8CC900F99504613F010FF6A
:102A70009AE8070004F1D40383E80700344B2946A1
:102A80002C933C230F98ADF8B43014F09BF90F99B8
:102A9000304611F009FB1098432240F24B21FEF71B
:102AA00041FA4FF0FF32A4F81491C4F810211099A4
:102AB000504613F0EDFE9AE8070004F58E7383E8A4
:102AC0000700234B29462C933B231098ADF8B430D4
:102AD00014F078F91099304611F0E6FA1198432273
:102AE0005721FEF71FFA4FF0FF32A4F85C91C4F8AB
:102AF00058211199504613F0CBFE9AE8070004F5CF
:102B0000B27383E80700124B29462C933A2311989D
:102B1000ADF8B43014F056F91199304611F0C4FAFA
:102B20001298432240F21F11FEF7FCF94FF0FF32DA
:102B3000A4F8A491C4F8A0210CE000BFDC2904088B
:102B4000E0660408C0670408C42904086F27000869
:102B5000102804081299504613F09AFE9AE80700CC
:102B600004F5D67383E80700E64B29462C933923F6
:102B70001298ADF8B43014F025F91299304611F0DE
:102B800093FA13984322BD21FEF7CCF94FF0FF32A0
:102B9000A4F8EC91C4F8E8211399504613F078FE9C
:102BA0009AE8070004F5FA7383E80700D54B294635
:102BB0002C9338231398ADF8B43014F003F913991B
:102BC000304611F071FA1498432240F28311FEF757
:102BD000A9F94FF0FF32A4F83492C4F830221499C6
:102BE000504613F055FE9AE8070004F50F7383E88A
:102BF0000700C44B29462C9337231498ADF8B43002
:102C000014F0E0F81499304611F04EFA384670226C
:102C10004FF4F171FEF786F94FF0870229463846E6
:102C20009FEDB98AADF8B02013F016F94FF02811D6
:102C30009FEDB69AF3EE048AC4F85012384684ED3C
:102C40009D8A84ED9E8A12F0B1FFB7EE000A3846E5
:102C500013F013F9384684EDA89A12F0A7FF38460E
:102C6000C4EDA38AC4EDA48A84EDA59A12F09EFF58
:102C70003846C4EDA68AC4EDA78A12F097FFB0EEDD
:102C8000481AF0EE480AB0EE480A384613F0EDF85C
:102C900084F871923946304611F006FA0498702291
:102CA00040F24621FEF73EF94FF08702294604988C
:102CB0001746ADF8B02013F0CFF84FF02812049863
:102CC000C4F8E02284EDC18A84EDC28A12F06EFF5E
:102CD000B7EE000A049813F0D0F8049884EDCC9A6B
:102CE00012F064FF0498C4EDC78AC4EDC88A84ED6D
:102CF000C99A12F05BFF0498C4EDCA8AC4EDCB8A6E
:102D000012F054FFB0EE481AF0EE480AB0EE480A4E
:102D1000049813F0AAF884F801930499304611F04E
:102D2000C3F9702205984FF4BF71FEF7FBF82946EE
:102D30000598ADF8B07013F08FF84FF02812059891
:102D4000C4F8702384EDE58A84EDE68A12F02EFF44
:102D5000B7EE000A059813F090F8059884EDF09A04
:102D600012F024FF0598C4EDEB8AC4EDEC8A84EDE3
:102D7000ED9A12F01BFF0598C4EDEE8AC4EDEF8AC0
:102D800012F014FFB0EE481AF0EE480AB0EE480A0E
:102D9000059813F06AF884F891930599304611F07C
:102DA00083F9702240464FF48D71FEF7BBF8294637
:102DB0004046ADF8B07013F04FF84FF0281204F20F
:102DC0002443C4F8002483ED008A04F5856383ED71
:102DD000008A404612F0EAFEB7EE000A404613F0C1
:102DE0004CF804F58A6383ED009A404612F0DEFE4B
:102DF00004F23C43C3ED008A04F58863C3ED008A06
:102E000004F2444383ED009A404612F0CFFE04F5ED
:102E10008963C3ED008A04F24C43C3ED008A404647
:102E200012F0C4FEB0EE481AF0EE480AB0EE480ABE
:102E3000404613F01AF884F821944146304611F0C8
:102E400033F9159840F2BB123E21FEF76BF84FF0B4
:102E50007F42A4F8BC94C4F8B8241599504613F0E6
:102E600017FD9AE8070004F2C44383E807003623FD
:102E7000244F29461598ADF8B4302C9713F0A2FFD3
:102E80001599304611F010F940F2BB1216984FF424
:102E9000B571FEF747F84FF07F43A4F80495C4F8E6
:102EA00000351699504613F0F3FC9AE8070004F237
:102EB0000C5383E80700352329461698ADF8B43043
:102EC0002C9713F07FFF1699304611F0EDF840F281
:102ED000BB121798A221FEF725F84FF07F43A4F804
:102EE0004C95C4F848351799504613F0D1FC9AE830
:102EF000070004F2545383E8070034232946179847
:102F000006E000BF102804080000000000007A441A
:102F1000ADF8B4302C9713F055FF1799304611F0E7
:102F2000C3F840F2BB12189840F23221FDF7FAFFC5
:102F30004FF07F43A4F89495C4F890351899504603
:102F400013F0A6FC9AE8070004F29C5383E80700FC
:102F5000332329461898ADF8B4302C9713F032FF7C
:102F60001899304611F0A0F840F2BB12199840F2BF
:102F70009621FDF7D7FF4FF07F43A4F8DC95C4F806
:102F8000D8351999504613F083FC9AE8070004F2EB
:102F9000E45383E80700322329461998ADF8B4308A
:102FA0002C9713F00FFF1999304611F07DF840F27D
:102FB000BB121A984FF4E771FDF7B4FF4FF07F434F
:102FC000A4F82496C4F820361A99504613F060FCF1
:102FD0009AE8070004F22C6383E807004FF0310100
:102FE0001A98ADF8B41029462C9713F0EBFE1A99F5
:102FF000304611F059F80698D02240F2A721FDF78B
:1030000091FF6B234FF07E082BAFADF8B0303A46FE
:103010002B462AA90698ADF8A880ADF8AC8011F02F
:1030200049FD0C23AE220698CDE9009215211A46DF
:1030300011F08EFC64220698252111F000FB069801
:10304000252111F0C4FA0699304611F02DF80798A1
:10305000D02240F24321FDF765FF4FF01B012AA863
:10306000ADF8B0102B463A4601460798ADF8A88057
:10307000ADF8AC8011F01EFD0C23AE220798CDE90F
:10308000009215211A4611F063FC6422079825214D
:1030900011F0D5FA0798252111F099FA07993046D1
:1030A00011F002F80898D02240F2DF11FDF73AFF44
:1030B0004FF01B012AA8ADF8B0102B463A46014646
:1030C0000898ADF8A880ADF8AC8011F0F3FC0C23A3
:1030D000AE220898CDE9009215211A4611F038FC6D
:1030E00064220898252111F0AAFA0898252111F0E8
:1030F0006EFA0899304610F0D7FF0998D02240F2B6
:103100007B11FDF70FFF4FF01B012AA8ADF8B0109F
:103110002B463A4601460998ADF8A880ADF8AC8038
:1031200011F0C8FC0C23AE220998CDE900921521BC
:103130001A4611F00DFC64220998252111F07FFA3E
:103140000998252111F043FA0999304610F0ACFF97
:103150000A98D02240F21711FDF7E4FE4FF01B0150
:103160002AA8ADF8B0102B463A4601460A98ADF8A9
:10317000A880ADF8AC8011F09DFC0C23AE220A981B
:10318000CDE9009215211A4611F0E2FB64220A985B
:10319000252111F054FA0A98252111F018FA0A99FC
:1031A000304610F081FF0B98D022B321FDF7BAFE14
:1031B0004FF01B012AAA0492ADF8B0102B463A46F4
:1031C00004990B98ADF8A880ADF8AC8011F072FCB2
:1031D0000C23AB220B98CDE9009215211A4611F071
:1031E000B7FB64220B98252111F029FA0B982521B1
:1031F00011F0EDF90B99304610F056FF0C98D022E3
:103200004F21FDF78FFE4FF01B012B46ADF8B0109C
:103210003A4604990C98ADF8A880ADF8AC8011F04E
:1032200049FC0C23AB220C98CDE9009215211A46DB
:1032300011F08EFB64220C98252111F000FA0C98F5
:10324000252111F0C4F90C99304610F02DFFAA2366
:103250004A46009349461B983123FFF795FACC4B19
:10326000A4F8189DC4F8143D1B99504613F010FBA8
:103270009AE8070004F5526383E80700C54B294626
:103280002C9330231B98ADF8B43013F09BFD1B99A1
:10329000304610F009FF1C9840F2BB124FF48371C6
:1032A000FDF740FE4FF07F42A4F8609DC4F85C2D0E
:1032B0001C99504613F0ECFA9AE8070004F668539C
:1032C00083E80700B34B4FF087082C932F23294640
:1032D0001C98ADF8B43013F075FD1C99304610F011
:1032E000E3FE702203985221FDF71CFE2946039845
:1032F000ADF8B08012F0B0FD4FF02812C4F87C2D6C
:10330000039A82ED0B8A82ED0C8A104612F04EFC75
:10331000B7EE000A039812F0B0FD039A82ED169AF8
:10332000104612F043FC039AC2ED118AC2ED128AD4
:1033300082ED139A104612F039FC039AC2ED148AFA
:10334000C2ED158A104612F031FCB0EE481AF0EECC
:10335000480AB0EE480A039812F087FD84F89D9D54
:103360000399304610F0A0FE70225846B621FDF7B2
:10337000D9FD29465846ADF8B08012F06DFD4FF0EA
:1033800028125846C4F80C2E8BED0B8A8BED0C8A54
:1033900012F00CFCB7EE000A584612F06EFD5846CB
:1033A0008BED169A12F002FC5846CBED118ACBED4C
:1033B000128A8BED139A12F0F9FB5846CBED148A62
:1033C000CBED158A12F0F2FBB0EE481AF0EE480A87
:1033D000B0EE480A584612F048FD84F82D9E594632
:1033E000304610F061FE1D98432240F2BD21FDF7EA
:1033F00099FD4FF0FF32A4F8C89EC4F8C42E1D9961
:10340000504613F045FA9AE8070004F56D6383E827
:103410000700604B4FF00C092C932E234FF00D0842
:1034200029461D98ADF8B43013F0CCFC1D993046F8
:1034300010F03AFE1E98152240F23B21FDF772FD76
:103440002A4639461E98A4F8109FADF8AC80ADF816
:10345000B09013F011FD1E99304610F025FE1F9814
:10346000152240F2D711FDF75DFD2A4639461F9817
:10347000A4F8489FADF8AC80ADF8B09013F0FCFC18
:103480001F99304610F010FE2098152240F271115D
:10349000FDF748FD2A4639462098A4F8809FADF8EC
:1034A000AC80ADF8B09013F0E7FC2099304610F0F6
:1034B000FBFD2198152240F21111FDF733FD2A463C
:1034C00039462198A4F8B89FADF8AC80ADF8B0901B
:1034D00013F0D2FC2199304610F0E6FD2298152217
:1034E000AD21FDF71FFD2A4639462298A4F8F09F2A
:1034F000ADF8AC80ADF8B09013F0BEFC2299304628
:1035000010F0D2FD239815224721FDF70BFD41F263
:1035100028032A4624F8039039462398ADF8AC8056
:10352000ADF8B09013F0A8FC2399304610F0BCFD24
:103530000E98152240F2A121FDF7F4FC0723ADF807
:10354000A4300923ADF8A8306523049AADF8AC3057
:10355000ADF8B03029A93B460E98009513F03FFD19
:1035600041F264032422E25241F266030422E25251
:1035700041F2540204F5835308333046A3500E99A8
:1035800010F092FD20462FB0BDEC048BBDE8F08F0B
:10359000D15E5AFF102804087047704770470346F1
:1035A00030B4C56844686A10ED0704EB02009B68FC
:1035B00048BFA25830BC48BFD358184743682BB106
:1035C00083682BB9C06800F0010070471846704747
:1035D0000120704710B5044610213CF085FB2046C1
:1035E00010BD10B504464FF469713CF07DFB2046D8
:1035F00010BD00F55670884208B505D115F016FCCF
:10360000BDE8084000F094BB08BD00002DE9F04F74
:1036100004460025A046262691B017F065FBBA4B5C
:10362000E56348F8403B3246294640463DF0B5FF49
:103630004046FDF75FFCB54BFF2723644FF6FF7351
:1036400004F16C0A3246294684F86670A566504635
:10365000ADF838303DF0A1FF5046FDF74BFCAC4BC8
:1036600010AEE36636F8083D04F1980B3146A4F835
:10367000923084F89470504613F06DFD04F1E00927
:103680005846FDF75DFC484611F0BAF904F5EA73B7
:103690001846029311F0B4F904F5327318460393F7
:1036A000FDF74EFC04F5447318460493FDF748FCFF
:1036B00004F556731846059313F026FD954B2A46DC
:1036C000C4F89433944B2946C4F89C334046C4F85C
:1036D0009843C4F8A053FDF725FC40464FF44871C9
:1036E000FDF75BFA40464FF4F071FDF758FA4FF0E2
:1036F0007F43271DA3664146384610F0D5FC2A4675
:1037000029465046FDF70EFC382331465046ADF8A9
:10371000383013F020FD5146384610F0C5FC40F219
:10372000AF12584640F28F21FDF7FCFB4FF07F436C
:103730000DF11808C4F8C83059464046A4F8CC50DA
:1037400013F0A6F898E8070004F1D40383E8070013
:103750004723DFF8C8A131465846ADF83C30CDF8D4
:1037600038A013F02FFB5946384610F09DFC484610
:10377000422240F21921FDF7D5FB4FF00B034FF029
:103780001B024FF00A0B0DA9ADF83430ADF838200C
:1037900033460A4648460CA9ADF830B011F08AF914
:1037A0004FF496712B46CDE9005148460C22092171
:1037B00011F0CEF864222946484610F040FF294611
:1037C000484610F004FF4946384610F06DFC029858
:1037D00042224FF42671FDF7A5FB4FF00B034FF08B
:1037E0001B02ADF83430ADF8382033460DAA0CA9D1
:1037F0000298ADF830B011F05DF94FF4967302986D
:10380000CDE900530C222B46092111F0A1F86422C6
:103810002946029810F013FF2946029810F0D7FEAF
:103820000299384610F040FC422203985221FDF7DD
:1038300079FB4FF07F430399C4F8F8324046A4F86F
:10384000FC5213F025F898E8070004F5417383E86B
:103850000700492331460398ADF83C30CDF838A035
:1038600013F0B0FA0399384610F01EFC40F2AF1284
:10387000049840F20921FDF755FB4FF07F4304996E
:10388000C4F840334046A4F8445313F001F898E8D4
:10389000070004F5537383E8070048233146049872
:1038A000ADF83C30CDF838A013F08CFA04993846C6
:1038B00010F0FAFB05984FF4B1725221FDF732FB7C
:1038C0000123ADF82C300223ADF8303066230CAA6A
:1038D000ADF83430ADF838300BA90DAB0598009633
:1038E00013F07DFB0523A4F89033A4F8923304F57C
:1038F00065733846C4F88033059910F0D5FB20462F
:1039000011B0BDE8F08F00BF282A0408E066040863
:10391000C0670408102A0408F335000810280408BA
:1039200070477047704741607047002210B5B1F989
:103930000840B1F90A10028042808480C18010BD25
:103940007047704701230372704770477047704794
:10395000704770477047436800F110011A681846B5
:10396000526E1047436800F110011A681846126E33
:1039700010477047034610B4C46841686210E407FA
:1039800001EB02009B6848BF8A585DF8044B48BFB2
:10399000D358184743682BB183682BB9C06800F02F
:1039A00001007047184670470120704710B5044663
:1039B0000C213CF099F9204610BD10B504464FF497
:1039C000AE713CF091F9204610BD10B504461021AF
:1039D0003CF08AF9204610BD10B5044638213CF071
:1039E00083F9204610BD10B5044628213CF07CF92F
:1039F000204610BD10B5044640213CF075F9204624
:103A000010BD10B5044640213CF06EF9204610BDB3
:103A100010B515F00BFABDE810400368DB6B1847D2
:103A200070B5044690F8390094F838300130C0B2CF
:103A3000984284F8390005D901232372002384F8C1
:103A4000393070BDB4F93A20002117F0FFFA83B283
:103A500013F0010206D04FF6FF710028D8BF0A46C6
:103A6000981800B2638AC01AA08760680368DB698F
:103A7000984705464DB1E988A38F284619442B681D
:103A800009B25B6B9847AD69F4E76068BDE87040C8
:103A900003685B69184770B5044690F8390094F8DC
:103AA00038300130C0B2984284F8390005D901237A
:103AB0002372002384F8393070BDB4F93A20002114
:103AC00017F0C4FA83B213F0010206D04FF6FF716B
:103AD0000028D8BF0A46981800B2638AC01AA08787
:103AE00060680368DB69984705464DB1E988A38F94
:103AF000284619442B6809B25B6B9847AD69F4E717
:103B00006068BDE8704003685B691847054B1B7827
:103B10003BB143682BB11A6800F10C01526E184694
:103B20001047704747B20820054B1B783BB14368EC
:103B30002BB11A6800F10C01526E184610477047FD
:103B400047B2082070B5037A0546BBB940680368E0
:103B5000DB69984704464CB1E1886B8F2046C91A4F
:103B6000236809B25B6B9847A469F4E7686805F1BC
:103B70000C010368BDE870401B6E184770BD70B53E
:103B8000037A0546BBB940680368DB699847044679
:103B90004CB1E1886B8F2046C91A236809B25B6B70
:103BA0009847A469F4E7686805F10C010368BDE86B
:103BB00070401B6E184770BD37B50446807A637A33
:103BC0000130C0B29842A07205D9012323720023AC
:103BD000A37203B030BDB4F90C20002117F036FAFF
:103BE00083B213F0010226D1E0810025164BE18952
:103BF0001B881648628BB0F900005B1A9BB219B2A1
:103C0000ADF80400D31A60686183ADF80210ADF816
:103C10000050ADF80630036869461B699847A37ADF
:103C2000012BD6D10A4B1B78002BD2D015F0FEF811
:103C300015F002F9CDE74FF6FF710028D8BF0A460C
:103C40001344E381D1E700BF3EB208203CB2082014
:103C500046B2082070B50446154603689B6B98472A
:103C6000236829462046BDE87040DB6B18470000FA
:103C7000F8B50446002517460E4615F0C1F9104B5D
:103C8000C4F83C511C600F4BC4F8405123600E4BEC
:103C9000C4F84851C4F844310C4BC4F84C5118686E
:103CA000C4F85051C4F85471C4F8586103682946E7
:103CB0009B689847284601F01DFC2046F8BD00BFD0
:103CC00094B20820DC2A0408C42A040848B2082058
:103CD000064BC0F84801C0F84C310023C0F8503101
:103CE00000F5A273C0F84031704700BF153F0008CF
:103CF000064BC0F84801C0F84C310023C0F85031E1
:103D000000F5A273C0F84031704700BF11440008AD
:103D1000064BC0F84801C0F84C310023C0F85031C0
:103D200000F5A273C0F84031704700BFE1400008C1
:103D3000064BC0F84801C0F84C310023C0F85031A0
:103D400000F5A273C0F84031704700BF7545000808
:103D5000064BC0F84801C0F84C310023C0F8503180
:103D600000F5A273C0F84031704700BF414700081A
:103D7000064BC0F84801C0F84C310023C0F8503160
:103D800000F5A273C0F84031704700BF49420008F7
:103D9000064BC0F84801C0F84C310023C0F8503140
:103DA00000F5A273C0F84031704700BFA148000879
:103DB000064BC0F84801C0F84C310023C0F8503120
:103DC00000F5A273C0F84031704700BF014A0008F7
:103DD0002DE9F047074690689946036888461B6AB4
:103DE0001546DDF820A0984741F27703984205D8A0
:103DF000A321424B424A43483DF046FB68680368B2
:103E00001B6A98470F2803D83F4B3D4AA421F2E78D
:103E1000E86803681B6A98470B2803D83B4B384A6D
:103E2000A521E8E715F002F8043015F04CF8D9F8B0
:103E3000000010B10368DB689847D9F8000010B1A2
:103E400003681B689847386810B103685B69984736
:103E5000D8F8000010B103685B689847386810B163
:103E600003681B689847D8F8000010B103689B6886
:103E70009847E868002103685B6A9847044620B1C8
:103E8000002343600372224B0360A868002103688B
:103E90005B6A9847064608B1FCF74AFF686800214C
:103EA00003685B6A9847054610B13146FCF71AFF74
:103EB000C9F80040C8F800503E60E5B12B1DCAF8B3
:103EC0000030C5F808A03368F5633046DB689847D2
:103ED0002B6828461B6898472146304617F0B0F8F3
:103EE000236820461B699847236820465B699847EA
:103EF0002846BDE8F0872B46E1E700BFB82B040851
:103F0000EA2E0408462C0408872C04082A2D0408ED
:103F1000302B040807B5D0F8583100F59E71009396
:103F2000D0F85421034B0448FFF752FF03B05DF86B
:103F300004FB00BF88B2082084B208202DE9F84FA6
:103F4000074690689946036888461B6A9346DDF8E1
:103F500028A0984740F69333984205D8A321574BA1
:103F6000574A58483DF090FADBF8040003681B6A92
:103F700098470F2803D8544B514AA421F1E7DBF8A6
:103F80000C0003681B6A9847372803D84F4B4C4AEC
:103F9000A521E6E714F04AFF043014F094FFD9F8A5
:103FA000000010B10368DB689847D9F8000010B131
:103FB00003681B689847386810B103685B699847C5
:103FC000D8F8000010B103685B689847386810B1F2
:103FD00003681B689847D8F8000010B103689B6815
:103FE0009847DBF80C00002103685B6A9847044699
:103FF00048B3374B002503601423437200F11003CC
:10400000456005728572C5812822294618463DF013
:10401000C4FA012284F835202E4A2F4922612F4A02
:10402000A582B2F90020E58225836583A583E58317
:10403000258465842586658684F83450A281B1F98B
:104040000010FFF707FEDBF80800002103685B6A39
:104050009847064608B1FCF7CFFDDBF804000021C5
:1040600003685B6A9847054610B13146FCF7DEFDF0
:10407000C9F80040C8F800503E60E5B12B1DCAF8F1
:104080000030C5F808A03368F5633046DB68984710
:104090002B6828461B6898472146304616F0D0FF0B
:1040A000236820461B699847236820465B69984728
:1040B0002846BDE8F88F2B46E1E700BFB82B04087F
:1040C00019310408462C0408872C04082A2D0408FA
:1040D0009C2B04085C2A04083CB208203EB208204D
:1040E00007B5D0F8583100F59E710093D0F85421EF
:1040F000034B0448FFF722FF03B05DF804FB00BF49
:1041000088B2082084B208202DE9F047074690685D
:104110009946036888461B6A1546DDF820A0984733
:10412000B0F5EB6F05D2A321414B424A42483DF026
:10413000ABF9686803681B6A98470F2803D83F4BA0
:104140003C4AA421F2E7E86803681B6A98470B28F9
:1041500003D83B4B374AA521E8E714F067FE04304B
:1041600014F0B1FED9F8000010B10368DB6898477D
:10417000D9F8000010B103681B689847386810B17F
:1041800003685B699847D8F8000010B103685B6862
:104190009847386810B103681B689847D8F8000042
:1041A00010B103689B689847E868002103685B6A60
:1041B0009847044620B1002343600372214B0360FB
:1041C000A868002103685B6A9847064608B1FCF7B7
:1041D0006FFD6868002103685B6A9847054610B167
:1041E0003146FCF73FFDC9F80040C8F800503E607A
:1041F000E5B12B1DCAF80030C5F808A03368F56397
:104200003046DB6898472B6828461B68984721464C
:10421000304616F015FF236820461B69984723682F
:1042200020465B6998472846BDE8F0872B46E1E7C2
:10423000B82B04086E330408462C0408872C0408A5
:104240002A2D0408302B040807B5D0F8583100F5A2
:104250009E710093D0F85421034B0448FFF754FF9C
:1042600003B05DF804FB00BF88B2082084B20820C8
:10427000F8B50026054604460F46124B4660067206
:1042800045F80C3B284612F0A9F90F4B84F838701A
:104290001B7884F83960A6871BB901232372204656
:1042A000F8BD0A4B0A4FB3F90010B7F900202846B1
:1042B0002661FFF7CFFC284612F00CF93B885B42E1
:1042C0006387ECE7542B040847B208203CB208206F
:1042D0003EB208202DE9F0470746906899460368EA
:1042E00088461B6A1446DDF820A0984741F2770300
:1042F000984205D8A321414B414A42483DF0C4F8B9
:10430000606803681B6A98470F2803D83E4B3C4AF5
:10431000A421F2E7E06803681B6A98473F2803D8A6
:104320003A4B374AA521E8E714F080FD043014F039
:10433000CAFDD9F8000010B10368DB689847D9F8C6
:10434000000010B103681B689847386810B1036813
:104350005B699847D8F8000010B103685B6898471C
:10436000386810B103681B689847D8F8000010B18E
:1043700003689B689847E068002103685B6A984778
:10438000054610B11421FFF773FFA06800210368F0
:104390005B6A9847064608B1FCF7CAFC60680021D2
:1043A00003685B6A9847044610B13146FCF79AFCF3
:1043B000C9F80050C8F800403E60E4B1231DCAF8B7
:1043C0000030C4F808A03368F4633046DB689847CF
:1043D000236820461B6898472946304616F030FE71
:1043E0002B6828461B6998472B6828465B699847C5
:1043F0002046BDE8F0872346E1E700BFB82B04085C
:10440000F42F0408462C0408872C04082A2D0408DD
:1044100007B5D0F8583100F59E710093D0F85421BB
:10442000034B0448FFF756FF03B05DF804FB00BFE1
:1044300088B2082084B208202DE9F047074690682A
:104440009946036888461B6A1446DDF820A0984701
:1044500040F69333984205D8A321414B414A424844
:104460003DF012F8606803681B6A98470F2803D86C
:104470003E4B3C4AA421F2E7E06803681B6A984778
:104480003F2803D83A4B374AA521E8E714F0CEFC81
:10449000043014F018FDD9F8000010B10368DB688F
:1044A0009847D9F8000010B103681B68984738682E
:1044B00010B103685B699847D8F8000010B1036831
:1044C0005B689847386810B103681B689847D8F84C
:1044D000000010B103689B689847E06800210368FA
:1044E0005B6A9847054610B11421FFF7C1FEA0682A
:1044F000002103685B6A9847064608B1FCF77CFB1D
:104500006068002103685B6A9847044610B1314631
:10451000FCF78CFBC9F80050C8F800403E60E4B1DD
:10452000231DCAF80030C4F808A03368F46330468D
:10453000DB689847236820461B6898472946304621
:1045400016F07EFD2B6828461B6998472B68284685
:104550005B6998472046BDE8F0872346E1E700BF46
:10456000B82B040843320408462C0408872C04089E
:104570002A2D040807B5D0F8583100F59E71009334
:10458000D0F85421034B0448FFF756FF03B05DF801
:1045900004FB00BF88B2082084B2082003685B6A6D
:1045A00018470000F8B50026054604460F46124B92
:1045B0004660067245F80C3B284612F00FF80F4B88
:1045C00084F838701B7884F83960A6871BB90123FA
:1045D00023722046F8BD0A4B0A4FB3F90010B7F911
:1045E000002028462661FFF735FB284611F072FFB0
:1045F0003B886387EDE700BF782B040847B20820AB
:104600003CB208203EB208202DE9F04707469068EA
:104610009946036888461B6A1446DDF820A098472F
:10462000B0F5697F05D2A321404B414A41483CF097
:104630002BFF606803681B6A98470F2803D83E4B1E
:104640003B4AA421F2E7E06803681B6A98473F28C9
:1046500003D83A4B364AA521E8E714F0E7FB0430CB
:1046600014F031FCD9F8000010B10368DB689847FA
:10467000D9F8000010B103681B689847386810B17A
:1046800003685B699847D8F8000010B103685B685D
:104690009847386810B103681B689847D8F800003D
:1046A00010B103689B6898470021E068FFF776FF28
:1046B000054610B11421FFF775FFA06800210368BB
:1046C0005B6A9847064608B1FCF772FB60680021F8
:1046D00003685B6A9847044610B13146FCF742FB19
:1046E000C9F80050C8F800403E60E4B1231DCAF884
:1046F0000030C4F808A03368F4633046DB6898479C
:10470000236820461B6898472946304616F098FCD7
:104710002B6828461B6998472B6828465B69984791
:104720002046BDE8F0872346E1E700BFB82B040828
:104730007D350408462C0408872C04082A2D04081B
:1047400007B5D0F8583100F59E710093D0F8542188
:10475000034B0448FFF758FF03B05DF804FB00BFAC
:1047600088B2082084B208202DE9F04707469068F7
:104770009946036888461B6A1446DDF820A09847CE
:10478000B0F5EB6F05D2A321404B414A41483CF0C4
:104790007BFE606803681B6A98470F2803D83E4B6E
:1047A0003B4AA421F2E7E06803681B6A98473F2868
:1047B00003D83A4B364AA521E8E714F037FB04301A
:1047C00014F081FBD9F8000010B10368DB6898474A
:1047D000D9F8000010B103681B689847386810B119
:1047E00003685B699847D8F8000010B103685B68FC
:1047F0009847386810B103681B689847D8F80000DC
:1048000010B103689B6898470021E068FFF7C6FE77
:10481000054610B11421FFF7C5FEA068002103680A
:104820005B6A9847064608B1FCF742FA60680021C7
:1048300003685B6A9847044610B13146FCF712FAE8
:10484000C9F80050C8F800403E60E4B1231DCAF822
:104850000030C4F808A03368F4633046DB6898473A
:10486000236820461B6898472946304616F0E8FB27
:104870002B6828461B6998472B6828465B69984730
:104880002046BDE8F0872346E1E700BFB82B0408C7
:1048900068340408462C0408872C04082A2D0408D0
:1048A00007B5D0F8583100F59E710093D0F8542127
:1048B000034B0448FFF758FF03B05DF804FB00BF4B
:1048C00088B2082084B208202DE9F0470746906896
:1048D0009946036888461B6A1446DDF820A098476D
:1048E000B0F5697F05D2A321404B414A41483CF0D5
:1048F000CBFD606803681B6A98470F2803D83E4BBE
:104900003B4AA421F2E7E06803681B6A98473F2806
:1049100003D83A4B364AA521E8E714F087FA043069
:1049200014F0D1FAD9F8000010B10368DB68984799
:10493000D9F8000010B103681B689847386810B1B7
:1049400003685B699847D8F8000010B103685B689A
:104950009847386810B103681B689847D8F800007A
:1049600010B103689B6898470021E068FFF716FEC6
:10497000054610B11421FFF715FEA0680021036859
:104980005B6A9847064608B1FCF7F0F860680021BA
:1049900003685B6A9847044610B13146FCF7BEF8DD
:1049A000C9F80050C8F800403E60E4B1231DCAF8C1
:1049B0000030C4F808A03368F4633046DB689847D9
:1049C000236820461B6898472946304616F038FB76
:1049D0002B6828461B6998472B6828465B699847CF
:1049E0002046BDE8F0872346E1E700BFB82B040866
:1049F000CD2D0408462C0408872C04082A2D040811
:104A000007B5D0F8583100F59E710093D0F85421C5
:104A1000034B0448FFF758FF03B05DF804FB00BFE9
:104A200088B2082084B208207047000030B5124DCB
:104A30008FB02B6813F001031BD13F2209920F4A5C
:104A4000012408920E4ACDE90B33079204220A93FF
:104A5000CDE90232CDE90534019316230494009385
:104A600020220849084800F06BF808482C603CF008
:104A700029FD05480FB030BD403306202C2606081E
:104A800070240608F8C6040844330620294A0008A2
:104A900013B5002249B102AB019203F8052D02685B
:104AA000946801AAA04702B010BD0846FBE7C08980
:104AB0007047008A7047C088704780887047807A46
:104AC00000F07F007047807AC0097047002070476F
:104AD0009FED010A704700BF00000000406A704768
:104AE000806A704770478B88C069DB0A0A6850F893
:104AF00023001044704710B5C2B1137BB3B1547B8F
:104B0000D27A240204F4E0641443026A98B202EBFD
:104B1000840213888B4202D192F9020010BD05D89D
:104B2000013880B204320028F3D1F7E70020F5E71E
:104B300010B504462C213BF0D7F8204610BD0000EC
:104B400030B504468BB0BDF860500895BDF85C5098
:104B500007959DF8505006959DF84C5005959DF889
:104B6000485004959DF8445003959DF84050029597
:104B70009DF83C500195BDF83850009515F0CAFDE0
:104B80002046064B2360159BE361169B2362199B0D
:104B900063621A9BA3620BB030BD00BFA03604084D
:104BA0007047000030B5124C8FB0236813F001033A
:104BB0001BD13F2209920F4ACDE90B3308920E4ACE
:104BC0000A93CDE90632059304220125CDE901338C
:104BD0004123CDE9032500930C2208490848FFF73B
:104BE000AFFF084825603CF06DFC05480FB030BDB4
:104BF00070330620102606087824060888D4040896
:104C000074330620A14B00087047000030B5134CE8
:104C10008FB0236813F001031CD13F220992104A80
:104C2000CDE90B3308920F4A0A93CDE9063205937A
:104C300004220125CDE901331423CDE90325009396
:104C40002B22172308490948FFF77AFF08482560F7
:104C50003CF038FC05480FB030BD00BFA033062043
:104C6000702506080025060830D50408A433062060
:104C7000094C00087047000030B5124C8FB0236813
:104C800013F001031BD13F2209920F4ACDE90B33E8
:104C900008920E4A0A93CDE90632059304220125B3
:104CA000CDE901335A23CDE9032500930C220849AD
:104CB0000848FFF745FF084825603CF003FC05481D
:104CC0000FB030BDD0330620582606086C250608E4
:104CD0008CD70408D4330620754C000870470000B8
:104CE00030B5134C8FB0236813F001031CD13F2261
:104CF0000992104ACDE90B3308920F4A0A93CDE985
:104D00000632059304220125CDE901334123CDE983
:104D1000032500931B22492308490948FFF710FF88
:104D2000084825603CF0CEFB05480FB030BD00BF01
:104D300000340620602606087425060834D80408C6
:104D400004340620DD4C00087047000030B5124CDA
:104D50008FB0236813F001031BD13F2209920F4A41
:104D6000CDE90B3308920E4A0A93CDE9063205933A
:104D700004220125CDE901332423CDE90325009345
:104D80000C2208490848FFF7DBFE084825603CF084
:104D900099FB05480FB030BD303406205426060874
:104DA00078250608B0D9040834340620494D000897
:104DB0007047000030B5124C8FB0236813F0010328
:104DC0001BD13F2209920F4ACDE90B3308920E4ABC
:104DD0000A93CDE90632059304220125CDE901337A
:104DE0007823CDE9032500930B2208490848FFF7F3
:104DF000A7FE084825603CF065FB05480FB030BDB4
:104E0000603406205026060884250608F02E050882
:104E100064340620B14D00087047000030B5134CD3
:104E20008FB0236813F001031CD13F220992104A6E
:104E3000CDE90B3308920F4A0A93CDE90632059368
:104E400004220125CDE901332023CDE90325009378
:104E50002822262308490948FFF772FE08482560E2
:104E60003CF030FB05480FB030BD00BF9034062049
:104E700034270608882506088C2F05089434062058
:104E8000194E00087047000030B5134C8FB02368EE
:104E900013F001031CD13F220992104ACDE90B33D4
:104EA00008920F4A0A93CDE90632059304220125A0
:104EB000CDE901333723CDE90325009317224123A0
:104EC00008490948FFF73CFE084825603CF0FAFA1B
:104ED00005480FB030BD00BFC0340620802506084D
:104EE000F4250608F0650508C4340620854E000840
:104EF0007047000030B5134C8FB0236813F00103E6
:104F00001CD13F220992104ACDE90B3308920F4A77
:104F10000A93CDE90632059304220125CDE9013338
:104F20000B23CDE90325009319220D2308490948D5
:104F3000FFF706FE084825603CF0C4FA05480FB0AC
:104F400030BD00BFF0340620742406080C26060885
:104F50001CA60508F4340620F14E00087047000036
:104F600030B5134C8FB0236813F001031CD13F22DE
:104F70000992104ACDE90B3308920F4A0A93CDE902
:104F80000632059304220125CDE901332623CDE91C
:104F9000032500931B222A2308490948FFF7D0FD67
:104FA000084825603CF08EFA05480FB030BD00BFC0
:104FB000203506207C24060814260608A0C1050812
:104FC000243506205D4F00087047000030B5124CB4
:104FD0008FB0236813F001031BD13F2209920F4ABF
:104FE000CDE90B3308920E4A0A93CDE906320593B8
:104FF00004220125CDE901333023CDE903250093B7
:105000000E2208490848FFF79BFD084825603CF040
:1050100059FA05480FB030BD5035062068250608FE
:10502000182606081CC3050854350620C94F000879
:105030007047000030B5124C8FB0236813F00103A5
:105040001BD13F2209920F4ACDE90B3308920E4A39
:105050000A93CDE90632059304220125CDE90133F7
:105060001423CDE9032500930B2208490848FFF7D4
:1050700067FD084825603CF025FA05480FB030BDB3
:1050800080350620042506081C260608E0C305080E
:1050900084350620315000087047000030B5134CAD
:1050A0008FB0236813F001031CD13F220992104AEC
:1050B000CDE90B3308920F4A0A93CDE906320593E6
:1050C00004220125CDE901331A23CDE903250093FC
:1050D00026221E2308490948FFF732FD08482560AB
:1050E0003CF0F0F905480FB030BD00BFB0350620E8
:1050F0007C250608202606087CC40508B435062051
:10510000995000087047000030B5134C8FB02368E9
:1051100013F001031CD13F220992104ACDE90B3351
:1051200008920F4A0A93CDE906320593042201251D
:10513000CDE901331A23CDE90325009326221D234F
:1051400008490948FFF7FCFC084825603CF0BAF91B
:1051500005480FB030BD00BFE03506200825060821
:105160002426060890C60508E435062005510008E7
:105170007047000030B5124D8FB02B6813F001035B
:105180001BD13F2209920F4A012408920E4ACDE911
:105190000B33079204220A93CDE90232CDE905349C
:1051A0000193102304940093212208490848FFF733
:1051B000C7FC08482C603CF085F905480FB030BDAD
:1051C000103606206425060828260608A4C8050807
:1051D000143606207151000810B5002404600C60DC
:1051E00014601C6010BD704730B5134C8FB023683D
:1051F00013F001031CD13F220992104ACDE90B3371
:1052000008920F4A0A93CDE906320593042201253C
:10521000CDE901332023CDE9032500932522242362
:1052200008490948FFF78CFC084825603CF04AF91A
:1052300005480FB030BD00BF403606208C2506085B
:105240005C260608DC14060844360620E7510008F0
:10525000704708B5132953D8DFE801F00A0E12167B
:105260001A1E2226462A2E32363A3E4A42464A4ED6
:1052700000F08AF8006808BD00F086F84068FAE798
:1052800000F082F88068F6E700F07EF8C068F2E788
:1052900000F07AF80069EEE700F076F84069EAE796
:1052A00000F072F88069E6E700F06EF8C069E2E7A6
:1052B00000F06AF8406ADEE700F066F8806ADAE734
:1052C00000F062F8C06AD6E700F05EF8006BD2E743
:1052D00000F05AF8406BCEE700F056F8806BCAE752
:1052E00000F052F8006CC6E700F04EF8006AC2E722
:1052F00000F04AF8C06BBEE700F046F8406CBAE731
:105300000020B8E710B5044604213AF0EDFC204631
:1053100010BD704730B5124C8FB0236813F00103F5
:105320001BD13F2209920F4ACDE90B3308920E4A56
:105330000A93CDE90632059304220125CDE9013314
:105340001E23CDE903250093122208490848FFF7E0
:10535000F7FB084825603CF0B5F805480FB030BDB4
:1053600070360620F825060830270608742306083C
:105370007436062013530008004870471437040899
:10538000B52070476420704700487047A03606205B
:1053900010B5FFF779FD1B4C2060FFF77FFE6060C2
:1053A000FFF734FCA060FFF7FDFBE060FFF702FDB4
:1053B0002061FFF73BFB6061FFF7DCFEA061FFF7B8
:1053C0008FFCE061FFF736FE2062FFF727FD606289
:1053D000FFF7FCFDA062FFF74FFCE062FFF794FED1
:1053E0002063FFF701FF6063FFF7BAFDA063FFF7DB
:1053F00081FDE063FFF78EFF2064FFF7A7FC606488
:1054000010BD00BFA0360620002070470020704766
:105410000EB403B503AB53F8042B0021019314F031
:1054200079FC02B05DF804EB03B070470CB407B52B
:1054300004AB53F8042B019314F06CFC03B05DF83B
:1054400004EB02B07047000010B5436C044673B320
:10545000038F2BB9C521184B184A19483CF014F892
:10546000C38E00EB43035B8C0BB316F074FB238FEE
:10547000012B03D8134B144ACB21EEE7E28E40F602
:105480003F10531C9BB21946092B88BFA3F10A0198
:1054900004EB4101498C814209D10A2B28BF00232A
:1054A00004EB4202508C04EB4303588451842046A1
:1054B000BDE8104016F052BA3845040865460408A5
:1054C00041450408854504089345040816F00DBAC3
:1054D00010B586B002AC84E806001A460AAB059304
:1054E0000193099B21460093089B13F021F806B015
:1054F00010BD000038B5D8B9114B12481B681249CD
:10550000BBB11A689C681A4402605A681C441A4469
:105510000A606CB100220D4B1A80FFF735FF05467B
:10552000FFF730FF0A4B1C600A4B1D600A4B1880C6
:1055300038BD0A4B03600A4B0B600A4B1C68E8E756
:10554000E8360620EC360620F0360620F436062033
:1055500098B20820A0B208209CB20820C02A0608F1
:1055600064280608BC2A0608044B1B6853F821006F
:10557000034B1B6803EB4000704700BFF03606206A
:10558000EC360620012380F8781080F879307047D7
:10559000002070474164003118BF0121014B197090
:1055A000704700BF47B2082000207047836B0BB1E3
:1055B0000846184770474FF6FF7070474068036809
:1055C0009B69184770477047704700009022044B52
:1055D00083F8762383F8872383F88423704700BFFA
:1055E00000E100E0094A0A49D3680A48C3F30A0304
:1055F000013B9BB20B801169C1F30A0101390180A3
:105600001364536B43F00103536370470068014018
:105610002E3706202C370620014B986A704700BFB2
:10562000846801400122024B996243F8602C704764
:10563000846801407047242303FB0101002381F8A3
:105640002430704780F82C10704710B50446302184
:105650003AF04AFB204610BD38B504464FF40051DD
:1056600017F07EFA23685D6E13F0E0FB01462046DA
:10567000A8472368064AD3F88850064900232046E5
:10568000A8476268044B5A64044A536038BD00BF9F
:10569000289C142028E4082030370620FC360620F9
:1056A00010B531B90A4B0B4A40F2D2210A483BF0FF
:1056B000EBFEC0E90F12003218BF012207490A7041
:1056C00002681946BDE81040D2F88C20104700BF90
:1056D00036480408C75504086E48040846B2082036
:1056E00008B5094B1B888B4203D8084B1B88934293
:1056F00005D9074B074A9E2107483BF0C5FE074BDB
:105700001980074B1A8008BD3CB208203EB2082021
:10571000D3470408845504086E48040842B20820A0
:1057200044B2082008B531B1044B054A4FF49171D9
:1057300004483BF0A9FE90F8250008BD5047040836
:10574000544B04086447040810B531B1064B074AAE
:105750004FF48E7106483BF097FE40681146BDE855
:10576000104003681B6B1847504704089F510408FA
:105770006447040808B531B1044B054A4FF48A71F7
:1057800004483BF081FEC06808BD00BF50470408D4
:10579000E65204086447040870B504460D4629B172
:1057A0000D4B0E4A5E210E483BF06EFE40681146DE
:1057B0000368DB689847606803689B6A98472368BA
:1057C000E06084F828505E6A29462B462046B4469D
:1057D000BDE870400122604750470408404F04086C
:1057E000644704082DE9F041044617460D4629B1E7
:1057F0000E4B0F4A4E210F483BF046FE406839469B
:10580000026896681A46B047606803689B6A9847C2
:105810002368E06084F828505E6A29462B462046BB
:10582000B446BDE8F0410122604700BF504704087C
:10583000CC4D04086447040808B529B1054B064A55
:10584000402106483BF020FEC0E90532816001613D
:1058500008BD00BF50470408774C0408644704089B
:1058600017F0BCB817F0EEB80FF069B90FF0D9BA5D
:1058700010B504460FF00CFF23682046BDE8104029
:10588000D3F8AC3018470FF08DBA90F87A301BB1CE
:10589000406803681B6818471846704710B590F8B1
:1058A000784090F834100C4B8C421A7809D03AB9F1
:1058B0000A490B4A08881488108001220C801A704B
:1058C00010BD002AFCD0064A0449148808880C80C0
:1058D00010800022F3E700BF40B208203EB208204B
:1058E0003CB2082070B5044629B1274B274A6E21E7
:1058F00027483BF0C9FD052A2BD8DFE802F0032535
:105900002B30373F406803681B69984708B3012371
:1059100084F82530002384F82630A360236194F8AE
:105920002730B3B96468236820469B6A9847236888
:105930000546DB6A2046984785420AD123682046FF
:10594000BDE870409B691847002380F8253080F837
:10595000263070BDC3610023A3602361F9E7C361F2
:10596000012380F8263080F82830F4E70023012254
:1059700080F8253080F82630C261EDE7003318BF8B
:10598000012380F82730E4E750470408AD480408B5
:10599000644704082DE9F34105461646984629B1A7
:1059A000164B174AE92117483BF06EFD4068036823
:1059B0001B699847F8B1144C012120680FF0CAFE0A
:1059C00007464146684614F06BFB104BBDF90210C8
:1059D0001B88BDF90020686803FB0122016807EB02
:1059E0004202CD693146A84720680368DB6A02B0ED
:1059F000BDE8F041184702B0BDE8F0815047040807
:105A0000345404086447040848B2082042B208200D
:105A100008B590F8243033B1084B094A40F26B11B5
:105A200008483BF031FD012280F8242081F8343011
:105A3000CB860B870B63184608BD00BFA34704083D
:105A40007F50040864470408F8B5044629B13F4B69
:105A50003F4AA9213F483BF017FD90F825301BB97C
:105A600090F82630002B6FD000273B4B1B6893F833
:105A70006B10236984F826700B44236194F8283056
:105A8000002B54D0136810465B6965689847E66937
:105A90002B682EB331465B6A284698472B68284608
:105AA000DB6AE669984786422CBF00260126E7613B
:105AB0002B6828469B6A9847A368E0600133A3607F
:105AC000D4E90432A0695A43A36843439A4239D9BE
:105AD00094F82C1069BB012184F828103046F8BDD9
