:020000040800F2
:1000000000002F2029D300081557000817570008B3
:10001000195700081B5700081D57000879D300081E
:1000200000000000000000000000000061B00008B7
:100030001F57000800000000F1AF00080DCC0008B9
:1000400079D3000879D3000879D3000879D3000860
:1000500079D3000879D3000879D3000879D3000850
:1000600079D3000879D3000879D3000879D3000840
:1000700079D3000879D3000879D3000879D3000830
:100080002157000879D3000879D3000879D30008F4
:1000900079D3000879D3000879D3000879D3000810
:1000A00079D3000879D3000879D3000879D3000800
:1000B00079D30008295700083557000879D300087C
:1000C00079D3000879D3000879D3000879D30008E0
:1000D00079D3000879D3000879D3000879D30008D0
:1000E00079D3000879D3000879D3000879D30008C0
:1000F00079D3000879D3000879D3000879D30008B0
:1001000079D300084157000879D3000879D3000853
:1001100079D3000879D3000879D3000879D300088F
:1001200079D3000879D3000879D3000879D300087F
:1001300079D3000879D3000879D3000879D300086F
:1001400079D3000879D3000879D3000879D300085F
:1001500079D3000879D3000879D3000879D300084F
:1001600079D3000879D3000879D3000879D300083F
:1001700079D3000879D3000879D3000879D300082F
:1001800079D3000879D3000879D3000879D300081F
:1001900079D3000879D3000879D3000879D300080F
:1001A00079D3000879D3000879D3000879D30008FF
:1001B00079D3000879D3000879D3000879D30008EF
:1001C00079D3000879D3000879D3000879D30008DF
:1001D00079D3000879D3000879D3000879D30008CF
:1001E00079D3000879D3000879D3000879D30008BF
:1001F00079D3000879D3000879D3000879D30008AF
:1002000079D3000879D3000879D3000879D300089E
:1002100079D3000879D300084D57000879D3000836
:1002200079D3000879D3000879D3000879D300087E
:1002300079D3000879D3000879D3000879D300086E
:1002400079D3000879D3000879D3000859570008FA
:10025000655700087157000879D300087D570008DA
:100260008957000879D3000879D3000879D30008AA
:040270008D5700089E
:1002800010B5054C237833B9044B13B1044800E092
:1002900000BF0123237010BD0833062000000000BA
:1002A00028B3030808B5034B1BB10349034800E01A
:1002B00000BF08BD000000000C33062028B303086F
:1002C00081F0004102E000BF83F0004330B54FEA07
:1002D00041044FEA430594EA050F08BF90EA020F74
:1002E0001FBF54EA000C55EA020C7FEA645C7FEA07
:1002F000655C00F0E2804FEA5454D4EB5555B8BF2A
:100300006D420CDD2C4480EA020281EA030382EA9A
:10031000000083EA010180EA020281EA0303362D2C
:1003200088BF30BD11F0004F4FEA01314FF4801CFF
:100330004CEA113102D0404261EB410113F0004F11
:100340004FEA03334CEA133302D0524263EB4303C8
:1003500094EA050F00F0A780A4F10104D5F1200E66
:100360000DDB02FA0EFC22FA05F2801841F10001C1
:1003700003FA0EF2801843FA05F359410EE0A5F195
:1003800020050EF1200E012A03FA0EFC28BF4CF0C6
:10039000020C43FA05F3C01851EBE37101F000457C
:1003A00007D54FF0000EDCF1000C7EEB00006EEB89
:1003B0000101B1F5801F1BD3B1F5001F0CD3490813
:1003C0005FEA30004FEA3C0C04F101044FEA44526A
:1003D00012F5800F80F09A80BCF1004F08BF5FEAF1
:1003E000500C50F1000041EB045141EA050130BDD1
:1003F0005FEA4C0C404141EB010111F4801FA4F174
:100400000104E9D191F0000F04BF01460020B1FAC8
:1004100081F308BF2033A3F10B03B3F120020CDA00
:100420000C3208DD02F1140CC2F10C0201FA0CF0DE
:1004300021FA02F10CE002F11402D8BFC2F1200C43
:1004400001FA02F120FA0CFCDCBF41EA0C019040F9
:10045000E41AA2BF01EB0451294330BD6FEA040442
:100460001F3C1CDA0C340EDC04F11404C4F120022D
:1004700020FA04F001FA02F340EA030021FA04F33F
:1004800045EA030130BDC4F10C04C4F1200220FA96
:1004900002F001FA04F340EA0300294630BD21FAD4
:1004A00004F0294630BD94F0000F83F4801306BF9A
:1004B00081F480110134013D4EE77FEA645C18BF8E
:1004C0007FEA655C29D094EA050F08BF90EA020F25
:1004D00005D054EA000C04BF1946104630BD91EA1D
:1004E000030F1EBF0021002030BD5FEA545C05D120
:1004F0004000494128BF41F0004130BD14F580045F
:100500003CBF01F5801130BD01F0004545F0FE41D2
:1005100041F470014FF0000030BD7FEA645C1ABF07
:10052000194610467FEA655C1CBF0B46024650EA3E
:10053000013406BF52EA033591EA030F41F400216A
:1005400030BD00BF90F0000F04BF0021704730B5F0
:100550004FF4806404F132044FF000054FF00001C5
:1005600050E700BF90F0000F04BF0021704730B586
:100570004FF4806404F1320410F0004548BF40425B
:100580004FF000013EE700BF42004FEAE2014FEAB0
:1005900031014FEA02701FBF12F07F4393F07F4F8B
:1005A00081F06051704732F07F4208BF704793F08E
:1005B0007F4F04BF41F40021704730B54FF46074A1
:1005C00001F0004521F000411CE700BF50EA0102A4
:1005D00008BF704730B54FF000050AE050EA01024D
:1005E00008BF704730B511F0004502D5404261EBBD
:1005F00041014FF4806404F132045FEA915C3FF4FE
:10060000D8AE4FF003025FEADC0C18BF03325FEA9A
:10061000DC0C18BF033202EBDC02C2F1200300FA4B
:1006200003FC20FA02F001FA03FE40EA0E0021FA70
:1006300002F11444BDE600BF70B54FF0FF0C4CF45E
:10064000E06C1CEA11541DBF1CEA135594EA0C0F10
:1006500095EA0C0F00F0DEF82C4481EA030621EA4B
:100660004C5123EA4C5350EA013518BF52EA033586
:1006700041F4801143F4801338D0A0FB02CE4FF038
:100680000005E1FB02E506F00042E0FB03E54FF068
:100690000006E1FB03569CF0000F18BF4EF0010E60
:1006A000A4F1FF04B6F5007F64F5407404D25FEA5C
:1006B0004E0E6D4146EB060642EAC62141EA55510F
:1006C0004FEAC52040EA5E504FEACE2EB4F1FD0C51
:1006D00088BFBCF5E06F1ED8BEF1004F08BF5FEACF
:1006E000500E50F1000041EB045170BD06F0004681
:1006F00046EA010140EA020081EA0301B4EB5C042E
:10070000C2BFD4EB0C0541EA045170BD41F4801125
:100710004FF0000E013C00F3AB8014F1360FDEBF4A
:10072000002001F0004170BDC4F10004203C35DA26
:100730000C341BDC04F11404C4F1200500FA05F3A9
:1007400020FA04F001FA05F240EA020001F000424A
:1007500021F0004110EBD37021FA04F642EB0601C0
:100760005EEA430E08BF20EAD37070BDC4F10C04EA
:10077000C4F1200500FA04F320FA05F001FA04F2AE
:1007800040EA020001F0004110EBD37041F100019A
:100790005EEA430E08BF20EAD37070BDC4F12005A5
:1007A00000FA05F24EEA020E20FA04F301FA05F20D
:1007B00043EA020321FA04F001F0004121FA04F2B5
:1007C00020EA020000EBD3705EEA430E08BF20EA85
:1007D000D37070BD94F0000F0FD101F000464000BF
:1007E00041EB010111F4801F08BF013CF7D041EA41
:1007F000060195F0000F18BF704703F00046520045
:1008000043EB030313F4801F08BF013DF7D043EA15
:100810000603704794EA0C0F0CEA135518BF95EACB
:100820000C0F0CD050EA410618BF52EA4306D1D152
:1008300081EA030101F000414FF0000070BD50EA71
:10084000410606BF1046194652EA430619D094EAFB
:100850000C0F02D150EA013613D195EA0C0F05D1E5
:1008600052EA03361CBF104619460AD181EA030139
:1008700001F0004141F0FE4141F470014FF00000F1
:1008800070BD41F0FE4141F4780170BD70B54FF08C
:10089000FF0C4CF4E06C1CEA11541DBF1CEA13550C
:1008A00094EA0C0F95EA0C0F00F0A7F8A4EB0504EE
:1008B00081EA030E52EA03354FEA013100F08880E5
:1008C0004FEA03334FF0805545EA131343EA1263AE
:1008D0004FEA022245EA111545EA10654FEA002663
:1008E0000EF000419D4208BF964244F1FD0404F51C
:1008F000407402D25B084FEA3202B61A65EB030578
:100900005B084FEA32024FF480104FF4002CB6EB34
:10091000020E75EB030E22BFB61A754640EA0C00B4
:100920005B084FEA3202B6EB020E75EB030E22BFF4
:10093000B61A754640EA5C005B084FEA3202B6EB35
:10094000020E75EB030E22BFB61A754640EA9C00F4
:100950005B084FEA3202B6EB020E75EB030E22BFC4
:10096000B61A754640EADC0055EA060E18D04FEA82
:10097000051545EA16754FEA06164FEAC30343EA22
:1009800052734FEAC2025FEA1C1CC0D111F4801FEF
:100990000BD141EA00014FF000004FF0004CB6E7E8
:1009A00011F4801F04BF01430020B4F1FD0C88BF87
:1009B000BCF5E06F3FF6AFAEB5EB030C04BFB6EB92
:1009C000020C5FEA500C50F1000041EB045170BD85
:1009D0000EF0004E4EEA113114EB5C04C2BFD4EBB2
:1009E0000C0541EA045170BD41F480114FF0000E36
:1009F000013C90E645EA060E8DE60CEA135594EAB2
:100A00000C0F08BF95EA0C0F3FF43BAF94EA0C0FB4
:100A10000AD150EA01347FF434AF95EA0C0F7FF429
:100A200025AF104619462CE795EA0C0F06D152EA7D
:100A300003353FF4FDAE1046194622E750EA410661
:100A400018BF52EA43067FF4C5AE50EA41047FF472
:100A50000DAF52EA43057FF4EBAE12E74FEA4102D5
:100A6000B2F1E04324BFB3F5001CDCF1FE5C0DD90C
:100A700001F0004C4FEAC0024CEA5070B2F1004F56
:100A800040EB830008BF20F00100704711F0804F59
:100A900021D113F13872BCBF01F00040704741F41E
:100AA00080114FEA5252C2F11802C2F1200C10FA22
:100AB0000CF320FA02F018BF40F001004FEAC12306
:100AC0004FEAD32303FA0CFC40EA0C0023FA02F3AA
:100AD0004FEA4303CCE77FEA625307D150EA013380
:100AE0001EBF4FF0FE4040F44000704701F0004050
:100AF00040F0FE4040F40000704700BF70470438EB
:100B00007047704710B50446102138F017F820469A
:100B100010BDA0F10400F5E7002210B58260044A80
:100B2000C16002F1080420320460426010BD00BFC1
:100B300010B40308704770477047704710B50446FB
:100B4000024B036000F0CFF8204610BD40B403080C
:100B500010B50446FFF7F2FF2046E02137F0EEFF24
:100B6000204610BD10B5044600F0F4F8014B2046B5
:100B7000236010BD40B4030800F0B6B870470438D5
:100B80007047704710B50446102137F0D7FF204654
:100B900010BDA0F10400F5E7002210B58260044A00
:100BA000C16002F1080420320460426010BD00BF41
:100BB0006CB403087047000010B50446024B036094
:100BC00000F082F9204610BD9CB4030810B504461D
:100BD000FFF7F2FF204641F2483137F0AFFF2046E1
:100BE00010BD000010B5044600F018FA014B204675
:100BF000236010BD9CB4030800F067B900220260B6
:100C000070477047704700F598730868496803C3D8
:100C10007047704701F036BB10B504464FF4AE7113
:100C200037F08CFF204610BD10B50446D0F85801AF
:100C3000FFF7E7FF2046BDE8104011F0CBB810B534
:100C40000446D0F8400158B10368DB68984738B1D2
:100C5000D4F8400103689B6898470023C4F84031EA
:100C600010BD000010B5044601F0DCFA014B20462F
:100C7000236010BDD0B4030890F8252012B103689A
:100C80005B69184770470020704781807047C180BA
:100C900070470181704741817047704770477047C6
:100CA00070477047C38810B4D21A838812B2C91A29
:100CB000036809B25B6D5DF8044B18474FF6FF738C
:100CC00083814FF0FF3303621368C3611060704784
:100CD00090F825201AB190F8242002B118607047CE
:100CE0007047704770477047704710B50446082139
:100CF00037F024FF204610BD10B50446E02137F040
:100D00001DFF204610BD00000A4A026000228280BA
:100D1000C280028142818281C28102824282C0E914
:100D20000522C2610284428480F82420012280F8D6
:100D30002520704734E9030870B50446154603685A
:100D40001B6B9847236829462046BDE870405B6BC3
:100D5000184700002DE9F04F0446002526464FF0C5
:100D6000260BFF274FF6FF7A87B012F0E7FE504BB5
:100D7000E56346F8403B5A462946304639F035FB94
:100D80003046FFF7C1FF4B4B04F16C085A46236411
:100D9000294684F86670A5664046ADF810A039F083
:100DA00024FB4046FFF7B0FF434B0DF11809E36603
:100DB00039F8083D84F89470A4F8923004F198074B
:100DC000494640460FF0E3F95A462946384639F07D
:100DD0000CFB3846FFF798FF384BDFF8E8B0C4F853
:100DE00098304FF47F032A46C4F8CC30A4F8C4A04E
:100DF000C4F8C85084F8D05084F8D150A4F8D45026
:100E0000A4F8D650A4F8D8A0A4F8DAA0C4F8DC500E
:100E100029463046C4F8C0B0FFF78EFF30464FF485
:100E20004871FFF736FF30464FF4F071FFF733FF9C
:100E30004FF07F4304F1040AA366314650460CF09C
:100E4000D5FA2A4629464046FFF776FF2B23494626
:100E50004046ADF810300FF09AF9414650460CF07C
:100E6000C5FA062238460821FFF766FFA4F8CC50E1
:100E70006D46134B3946C4F8C83028460EF0C2FD03
:100E800095E8070004F1D40383E807002E234946C0
:100E90003846ADF81430CDF810B00FF04DF850468C
:100EA00039460CF0A3FA204607B0BDE8F08F00BF2A
:100EB00034B5030898E7030874E8030808E7030853
:100EC000F2824EFF24B5030870477047704703460F
:100ED00030B4C56844686A10ED0704EB02009B68F3
:100EE00048BFA25830BC48BFD358184743682BB1FD
:100EF00083682BB9C06800F001007047184670473E
:100F00000120704710B50446102137F017FE204627
:100F100010BD10B5044641F2483137F00FFE2046AF
:100F200010BD00F595501C30814208B505D110F078
:100F3000A7FEBDE8084001F0B5B908BD70B504468C
:100F40001E46BDF91050FFF7F7FE236831462046D4
:100F50009A6B9047236829462046BDE87040DB6BBA
:100F60001847000038B504460D462622002139F006
:100F70003CFA2046FFF7C8FE064B204623602B882C
:100F80002946E384FF2384F828300FF000F9204637
:100F900038BD00BF74E8030810B5044626220021BE
:100FA00039F023FA2046FFF7AFFE0C4B4FF6FF72E5
:100FB00023600B4B4FF47F01A3620023A285C4E999
:100FC0000C3184F8383084F83930A387E387A4F8EB
:100FD0004020A4F842206364204610BD08E70308BF
:100FE00024B5030810B504462622002139F0FDF986
:100FF0002046FFF789FE0023A36284F82C300123EA
:1010000084F82430044B204623604FF6FF73E385B9
:10101000238684F8323010BD00E803082DE9F04F34
:1010200004462DED048B00272546BBB012F086FD4B
:10103000DC4BE76345F8403B26223946284639F029
:10104000D4F92846FFF760FED74B4FF6FF782364AC
:10105000FF233AAE26F8088D04F16C0984F8663057
:101060003146A7664846FFF77DFF04F198033146F5
:1010700018462593ADF8E080FFF774FF04F1C40330
:1010800004F1F00A314618462693ADF8E080FFF7E8
:1010900069FF31465046ADF8E080FFF763FF04F585
:1010A0008E7318461593FFF777FF04F5B273184651
:1010B0001693FFF771FF04F5D67318461793FFF7E1
:1010C0006BFF04F5FA7318461893FFF765FF04F5F4
:1010D0000F7318461993FFF75FFF04F52173184645
:1010E0001A93FFF759FF04F5337318461B93FFF764
:1010F00053FF04F5457318461C93FFF74DFF04F5A5
:10110000577318461D93FFF747FF04F56973184698
:101110001E93FFF741FF04F57B7318461F93FFF7FB
:101120003BFF04F2344318462793FFF75BFF04F5B7
:101130008D6318462893FFF755FF04F29C43184629
:101140002993FFF74FFF04F59A6318462A93FFF798
:1011500049FF04F2045318462B93FFF743FF04F5AD
:10116000A76318462C93FFF73DFF04F26C53184613
:101170002D93FFF737FF04F5B46318462E93FFF75E
:1011800031FF04F2D45318462F93FFF72BFF04F5D9
:10119000C16318463093FFF725FF04F23C633146E4
:1011A00018460393ADF8E0800DF048FE04F2CC63DE
:1011B000314618460493ADF8E0800DF03FFE04F28E
:1011C0005C7304F2EC7B314618460593ADF8E08081
:1011D0000DF034FE31465846ADF8E0800DF02EFE9D
:1011E00004F67C0318462093FFF7D6FE04F6C403EA
:1011F00018462193FFF7D0FE04F60C1318462293ED
:10120000FFF7CAFE04F6541318462393FFF7C4FEF3
:1012100004F69C1318462493FFF7BEFE04F6E4136D
:1012200018460A930CF080FD04F6D82318460B9359
:101230000CF07AFD04F6CC3318460C930CF074FDD8
:1012400004F54C6318461193FFF7A6FE04F6085305
:1012500018460D930CF068FD04F6FC5318460E93E7
:101260000CF062FD04F56F6318460F930CF05CFD03
:1012700004F6E473184610930CF056FD04F58653FB
:10128000183318460893FFF787FE04F5895318466C
:101290001293FFF781FE04F58B530833314618464D
:1012A0000693ADF8E0800DF0C9FD04F58F531833B7
:1012B000314618460793ADF8E0800DF0BFFD04F508
:1012C0009453083318461393FFF78CFE04F5955397
:1012D0001C3318461493FFF785FE04F5975310331B
:1012E00018460993FFF758FE41F238332F49E218A8
:1012F000E15054602E4A04F59A531A6041F2443387
:10130000E7504FF4F0733A460093394628464FF4BD
:101310004873FFF713FE4FF07F4304F10408A36600
:101320002946404631930CF061F83A463946484622
:10133000FFF702FD4FF034031D4631464846ADF835
:10134000E0300EF024FF494640460CF04FF83A4694
:1013500039462598FFF7F0FC31462598ADF8E05066
:101360000EF015FF259940460CF040F83A463946F4
:101370002698FFF7E1FC314626984FF0FF39ADF88B
:10138000E0500EF004FF269940460CF02FF83A4644
:1013900039465046FFF7D0FC31465046ADF8E05094
:1013A00008E000BF80B5030898E7030868B50308A4
:1013B000230F00080EF0EBFE51464FF02F0A404677
:1013C00032AD0CF013F82A2215984FF41171FFF783
:1013D000B3FCC4F84C9115992846A4F850710EF04E
:1013E00011FB95E8070004F5AC7CD64B8CE80700B0
:1013F000314615983893ADF8E4A00EF09DFD15998F
:1014000040460BF0F3FF2A2216984FF4F071FFF7D5
:1014100093FCC4F8949116992846A4F898710EF09C
:10142000F1FA95E8070004F5D07C8CE8070030223B
:10143000C44B314616983893ADF8E4200EF07CFD8D
:10144000169940460BF0D2FF2A2217984FF4BE712E
:10145000FFF772FCC4F8DC9117992846A4F8E071F4
:101460000EF0D0FA95E8070004F5F47C8CE807004C
:101470003122B44B314617983893ADF8E4200EF082
:101480005BFD179940460BF0B1FF2A2218984FF4E4
:101490008C71FFF751FCC4F8249218992846A4F8DF
:1014A00028720EF0AFFA95E8070004F50C7C8CE882
:1014B00007003222A34B314618983893ADF8E42048
:1014C0000EF03AFD189940460BF090FF55221998FE
:1014D00040F2E711FFF730FCC4F86C9219992846E6
:1014E000A4F870720EF08EFA95E8070004F51E7CE1
:1014F0008CE807004FF03402924B3146199838932C
:10150000ADF8E4200EF018FD199940460BF06EFF7F
:1015100055221A9840F24B21FFF70EFCC4F8B49202
:101520001A992846A4F8B8720EF06CFA95E80700EC
:1015300004F5307C8CE807003322824B31461A9840
:101540003893ADF8E4200EF0F7FC1A9940460BF002
:101550004DFF55221B985721FFF7EEFBC4F8FC9274
:101560001B992846A4F800730EF04CFA95E8070082
:1015700004F5427C8CE807003522724B31461B98FB
:101580003893ADF8E4200EF0D7FC1B9940460BF0E1
:101590002DFF55221C9840F21F11FFF7CDFBC4F818
:1015A00044931C992846A4F848730EF02BFA95E84A
:1015B000070004F5547C8CE807003622614B314665
:1015C0001C983893ADF8E4200EF0B6FC1C99404608
:1015D0000BF00CFF55221D98BD21FFF7ADFBC4F8A1
:1015E0008C931D992846A4F890730EF00BFA95E899
:1015F000070004F5667C8CE807003722514B314622
:101600001D983893ADF8E4200EF096FC1D994046E5
:101610000BF0ECFE2A221E98B421FFF78DFBC4F8D4
:10162000D4931E992846A4F8D8730EF0EBF995E8E8
:10163000070004F5787C8CE807003822414B3146DE
:101640001E983893ADF8E4200EF076FC1E994046C3
:101650000BF0CCFE55221F9840F28311FFF76CFB74
:10166000C4F81C941F992846A4F820740EF0CAF9F7
:1016700095E8070004F5856C8CE8070039224FF0E7
:101680002E09304B31461F983893ADF8E4200EF008
:1016900053FC1F9940460BF0A9FE27980C2240F2FC
:1016A0004621FFF749FB324637A92798ADF8DC9071
:1016B000ADF8E0A00EF09EFC279940460BF096FE98
:1016C00028980C224FF4BF71FFF736FB324637A93A
:1016D0002898ADF8DC90ADF8E0A00EF08BFC2899CE
:1016E00040460BF083FE29980C224FF4F171FFF76E
:1016F00023FB324637A92998ADF8DC90ADF8E0A07D
:101700000EF078FC299940460BF070FE2A980C22C6
:101710004FF48D71FFF710FB324637A92A98ADF8C8
:10172000DC90ADF8E0A00EF065FC2A9940460BF085
:101730005DFE2B980C22B621FFF7FEFAADF8DC9087
:1017400006E000BF24B503080000000000007A4452
:10175000ADF8E0A04FF05E094FF02A0A324637A9F3
:101760002B980EF047FC2B9940460BF03FFE2C982F
:10177000422240F24621FFF7DFFA324637A92C9881
:10178000ADF8DCA0ADF8E0900EF034FC2C994046AA
:101790000BF02CFE2D9842224FF4F171FFF7CCFA9A
:1017A000324637A92D98ADF8DCA0ADF8E0900EF0E8
:1017B00021FC2D9940460BF019FE2E9842224FF441
:1017C000BF71FFF7B9FA324637A92E98ADF8DCA001
:1017D000ADF8E0900EF00EFC2E9940460BF006FEA0
:1017E0002F9842224FF48D71FFF7A6FA324637A99F
:1017F0002F98ADF8DCA0ADF8E0900EF0FBFB2F9930
:1018000040460BF0F3FD30984222B621FFF794FAE0
:10181000ADF8DCA04FF0700A1FED358AADF8E0900E
:101820004FF028191FED379AF3EE048A324637A994
:1018300030980EF0DFFB309940460BF0D7FD702258
:1018400003984FF4F171FFF777FA31460398ADF83A
:10185000E0A00DF095FC039BC4F84496184683ED78
:101860000B8A83ED0C8A0DF035FBB7EE000A039866
:101870000DF097FC039B83ED169A18460DF02AFB9A
:10188000039BC3ED118AC3ED128A83ED139A1846A8
:101890000DF020FB039BC3ED148AC3ED158A184697
:1018A0000DF018FBB0EE481AF0EE480AB0EE480A08
:1018B00003980DF06EFC0399404684F865760BF0B2
:1018C00095FD5246049840F24621FFF735FA31461D
:1018D0000498ADF8E0A00DF053FC049BC4F8D49636
:1018E000184683ED0B8A83ED0C8A0DF0F3FAB7EE00
:1018F000000A04980DF055FC049B83ED169A1846D7
:101900000DF0E8FA049BC3ED118AC3ED128A83ED52
:10191000139A18460DF0DEFA049BC3ED148AC3ED4A
:10192000158A18460DF0D6FAB0EE481AF0EE480ABD
:10193000B0EE480A04980DF02CFC0499404684F857
:10194000F5760BF053FD524605984FF4BF71FFF743
:10195000F3F931460598ADF8E0A00DF011FC059BB8
:10196000C4F86497184683ED0B8A83ED0C8A0DF05A
:10197000B1FAB7EE000A05980DF013FC059B83ED54
:10198000169A18460DF0A6FA059BC3ED118AC3ED11
:10199000128A83ED139A18460DF09CFA059BC3ED4D
:1019A000148AC3ED158A18460DF094FAB0EE481A61
:1019B000F0EE480AB0EE480A05980DF0EAFB0599EA
:1019C000404684F885770BF011FD524658464FF497
:1019D0008D71FFF7B1F931465846CDF810A0ADF83A
:1019E000E0A00DF0CDFBC4F8F49758468BED0B8AC0
:1019F0008BED0C8ACDF814900DF06CFAB7EE000A5E
:101A000058460DF0CEFB8BED169A58460DF062FA53
:101A1000CBED118ACBED128A8BED139A58460DF05F
:101A200059FACBED148ACBED158A58460DF052FACF
:101A3000B0EE481AF0EE480AB0EE480A58460DF0EB
:101A4000A8FB5946404684F815780BF0CFFC40F2CD
:101A5000BB1220983E21FFF76FF9319B2099C4F803
:101A6000AC382846A4F8B07803930DF0CBFF95E886
:101A7000070004F6B80383E80700D64B31463893D5
:101A80003E232098ADF8E4300EF056FA20994046F7
:101A90000BF0ACFC40F2BB1221984FF4B571FFF78C
:101AA0004BF9039B2199C4F8F4382846A4F8F87838
:101AB0000DF0A8FF95E8070004F5106383E8070020
:101AC000C44B314638933C232198ADF8E4300EF0F6
:101AD00033FA219940460BF089FC40F2BB12229860
:101AE000A221FFF729F9039B2299C4F83C39284623
:101AF000A4F840790DF086FF95E8070004F6481336
:101B000083E80700B34B314638933F232298ADF862
:101B1000E4300EF011FA229940460BF067FC40F2D7
:101B2000BB12239840F23221FFF706F9039B239959
:101B3000C4F884392846A4F888790DF063FF95E845
:101B4000070004F5196383E80700A24B3146389378
:101B500040232398ADF8E4300EF0EEF92399404687
:101B60000BF044FC40F2BB12249840F29621FFF7A0
:101B7000E3F8039B2499C4F8CC392846A4F8D0791B
:101B80000DF040FF95E8070004F6D81383E807003E
:101B9000904B314638933B232498ADF8E4300EF057
:101BA000CBF9249940460BF021FC0A98D0224FF43F
:101BB0001471FFF7C1F84FF00D034FF0680A0DF1F3
:101BC000DC0BADF8E0305A46334636A90A984FF0A0
:101BD0001009ADF8D8A0ADF8DCA00CF0FFF8C822D1
:101BE0003B460192CDF800900A980C2209210CF096
:101BF0005EF8642239460A980BF0C3FE49460A98FB
:101C00000BF087FE0A9940460BF0F0FB0B98D022B0
:101C10004FF42D71FFF790F855235A46ADF8E03098
:101C200036A933460B98ADF8D8A0ADF8DCA00CF07F
:101C3000D5F8C8223B46CDE900920B980C22092129
:101C40000CF035F8642239460B980BF09AFE4946A1
:101C50000B980BF05EFE0B9940460BF0C7FB0C98FF
:101C6000D0224FF4C471FFF767F84FF00D035A46C6
:101C7000ADF8E03036A933460C98ADF8D8A0ADF8F1
:101C8000DCA00CF0ABF8C8223B46CDE900920C98E2
:101C90000C2209210CF00BF8642239460C980BF049
:101CA00070FE49460C980BF034FE0C9940460BF040
:101CB0009DFB40F2BB1211984FF4E771FFF73CF81F
:101CC000039B1199C4F8F03C2846A4F8F47C0DF06D
:101CD00099FE95E80700119B3C3383E807003D4BD4
:101CE000314638933D231198ADF8E4300EF024F9D5
:101CF000119940460BF07AFB0D98D0224FF4F67103
:101D0000FFF71AF84FF00D035A46ADF8E03036A948
:101D100033460D98ADF8D8A0ADF8DCA00CF05EF815
:101D2000C8223B46CDE900920D980C2209210BF008
:101D3000BEFF642239460D980BF023FE49460D98EC
:101D40000BF0E7FD0D9940460BF050FB0E98D022AA
:101D50004FF49271FEF7F0FF4FF00D035A46ADF8C5
:101D6000E03036A933460E98ADF8D8A0ADF8DCA027
:101D70000CF034F8C8223B46CDE900920E980C22B4
:101D800009210BF094FF642239460E980BF0F9FDFF
:101D900049460E980BF0BDFD0E9940460BF026FB10
:101DA0000F98D0225C21FEF7C7FF4FF00D035A4673
:101DB000ADF8E03036A933460F98ADF8D8A0ADF8AD
:101DC000DCA00CF00BF8C8223B46CDE900920F983E
:101DD0000C2201E024B5030809210BF068FF6422FE
:101DE00039460F980BF0CDFD49460F980BF091FD49
:101DF0000F9940460BF0FAFA1098D022C021FEF756
:101E00009BFF4FF00D035A46ADF8E03036A933463C
:101E10001098ADF8D8A0ADF8DCA00BF0DFFFC82318
:101E20001098CDE900930C223B460A210BF03FFFAE
:101E30006422394610980BF0A4FD494610980BF027
:101E400068FD109940460BF0D1FAAA233A46009358
:101E5000394608983123FFF771F841F208134FF023
:101E600042098F4A0899E25004F58653A3F84C7052
:101E700028460DF0C7FD95E80700089BADF8E490F3
:101E80003C3383E80700874B3146089838930EF0BF
:101E900053F8089940460BF0A9FA129840F2BB1289
:101EA0004FF48371FEF748FF41F25013039A1299E1
:101EB000E25004F589539F8628460DF0A3FD95E86E
:101EC0000700129B04F58B5A3C3383E80700754BDF
:101ED0003146389341231298ADF8E4300EF02CF8D7
:101EE000129940460BF082FA049A06985221FEF7A6
:101EF00023FF049B31460698ADF8E0300DF040F921
:101F000041F27013059A0698E2508AED0D8A8AED27
:101F10000E8A0CF0DFFFB7EE000A06980DF041F9CB
:101F20008AED189A06980CF0D5FFCAED138ACAED0F
:101F3000148A8AED159A06980CF0CCFFCAED168A21
:101F4000CAED178A06980CF0C5FFB0EE481AF0EEFD
:101F5000480AB0EE480A06980DF01BF98AF831706D
:101F6000069940460BF042FA049A0798B621FEF70C
:101F7000E3FE049B31460798ADF8E0300DF000F920
:101F8000059A04F5905304F58F5A1A6007988AED64
:101F9000118A8AED128A0CF09DFFB7EE000A0798AD
:101FA0000DF0FFF807988AED1C9A0CF093FF079844
:101FB000CAED178ACAED188A8AED199A0CF08AFFC1
:101FC0000798CAED1A8ACAED1B8A0CF083FFB0EE9F
:101FD000481AF0EE480AB0EE480A07980DF0D9F812
:101FE000079940468AF841700BF000FA4A46139868
:101FF0005221FEF7A1FE4FF02A095E2332465946D0
:102000001398ADF8E030ADF8DC900DF0F3FF1399C4
:1020100040460BF0EBF914980C225221FEF78CFE8F
:102020002E23ADF8DC302F23324659461498ADF8F4
:10203000E0300DF0DFFF41F2E42204F5995318334C
:10204000A350149940460BF0D1F94A460998502103
:10205000FEF772FE4FF0FF3204F599531A6004F553
:102060009753A3F84470099928460DF0CBFC95E8E6
:102070000700099B3C3383E807000A4B314638933D
:102080003A230998ADF8E4300DF056FF404609991F
:102090000BF0ACF920463BB0BDEC048BBDE8F08FF3
:1020A000D15E5AFF24B503087047704770474160FE
:1020B0007047002210B5B1F90840B1F90A1002804A
:1020C00042808480C18010BD704770470123037235
:1020D00070477047704770477047436800F11001C0
:1020E0001A681846526E1047436800F110011A68CA
:1020F0001846126E10477047034610B4C468416812
:102100006210E40701EB02009B6848BF8A585DF843
:10211000044B48BFD358184743682BB183682BB989
:10212000C06800F0010070471846704701207047F2
:1021300010B504460C2136F001FD204610BD10B547
:1021400004464FF4AE7136F0F9FC204610BD10B5D0
:102150000446102136F0F2FC204610BD10B50446AE
:10216000382136F0EBFC204610BD10B5044628217E
:1021700036F0E4FC204610BD10B50FF081FDBDE83F
:1021800010400368DB6B184737B50446807A637AE2
:102190000130C0B29842A07205D9012323720023F6
:1021A000A37203B030BDB4F90C20002111F078FE09
:1021B00083B213F0010226D1E0810025164BE1899C
:1021C0001B881648628BB0F900005B1A9BB219B2EB
:1021D000ADF80400D31A60686183ADF80210ADF861
:1021E0000050ADF80630036869461B699847A37A2A
:1021F000012BD6D10A4B1B78002BD2D00FF040FD1B
:102200000FF044FDCDE74FF6FF710028D8BF0A4616
:102210001344E381D1E700BF8642082084420820AE
:102220008E420820F8B50446002517460E460FF0EA
:1022300011FE104BC4F83C511C600F4BC4F84051C8
:1022400023600E4BC4F84851C4F844310C4BC4F819
:102250004C511868C4F85051C4F85471C4F858610E
:10226000036829469B689847284600F02DFF2046C2
:10227000F8BD00BFDC42082034B603081CB60308D2
:1022800090420820064BC0F84801C0F84C310023AA
:10229000C0F8503100F5A273C0F84031704700BF5C
:1022A00009240008064BC0F84801C0F84C3100234F
:1022B000C0F8503100F5A273C0F84031704700BF3C
:1022C000DD2500082DE9F047074690689946036828
:1022D00088461B6A1546DDF820A0984741F247332F
:1022E000984205D8A321424B424A434837F0F4FFB5
:1022F000686803681B6A98470F2803D83F4B3D4A1C
:10230000A421F2E7E86803681B6A98470B2803D802
:102310003B4B384AA521E8E70FF0B2FC04300FF040
:10232000FCFCD9F8000010B10368DB689847D9F8C5
:10233000000010B103681B689847386810B1036843
:102340005B699847D8F8000010B103685B6898474C
:10235000386810B103681B689847D8F8000010B1BE
:1023600003689B689847E868002103685B6A9847A0
:10237000044620B1002343600372224B0360A86827
:10238000002103685B6A9847064608B1FEF72AFCFD
:102390006868002103685B6A9847054610B13146BA
:1023A000FEF7FAFBC9F80040C8F800503E60E5B1FE
:1023B0002B1DCAF80030C5F808A03368F563304615
:1023C000DB6898472B6828461B68984721463046AB
:1023D00011F060FD236820461B699847236820465A
:1023E0005B6998472846BDE8F0872B46E1E700BFC8
:1023F000C8B60308DDB8030856B7030897B7030843
:102400003AB8030888B6030807B5D0F8583100F584
:102410009E710093D0F85421034B0448FFF752FFFC
:1024200003B05DF804FB00BFD0420820CC42082076
:102430002DE9F84F074690689946036888461B6A5D
:102440009346DDF828A09847DF2805D8A3215A4BEA
:102450005A4A5B4837F040FFDBF8040003681B6A08
:1024600098470F2803D8574B544AA421F1E7DBF8CB
:102470000C0003681B6A9847372803D8524B4F4A11
:10248000A521E6E70FF0FCFB04300FF046FCD9F87D
:10249000000010B10368DB689847D9F8000010B15C
:1024A00003681B689847386810B103685B699847F0
:1024B000D8F8000010B103685B689847386810B11D
:1024C00003681B689847D8F8000010B103689B6840
:1024D0009847DBF80C00002103685B6A98470446C4
:1024E00000282FD0394B00250360142300F110067B
:1024F0004560057243728572C5812946282230469F
:1025000037F073FF012384F83530314BA582236106
:10251000304BE58225836583A583E5832584658427
:102520002586658684F83450B3F900502A4B30462E
:10253000B3F90010A581FEF7ACFB23692946DB6BDC
:1025400030469847DBF80800002103685B6A98472B
:10255000064608B1FEF706FBDBF80400002103681D
:102560005B6A9847054610B13146FEF7D5FAC9F8BF
:102570000040C8F800503E60E5B12B1DCAF800309D
:10258000C5F808A03368F5633046DB6898472B68C8
:1025900028461B6898472146304611F07BFC23688B
:1025A00020461B699847236820465B699847284660
:1025B000BDE8F88F2B46E1E7C8B60308E7B9030882
:1025C00056B7030897B703083AB80308ACB6030830
:1025D000B4B50308864208208442082007B5D0F825
:1025E000583100F59E710093D0F85421034B0448F4
:1025F000FFF71EFF03B05DF804FB00BFD0420820C8
:10260000CC4208207047000030B5124D8FB02B68C7
:1026100013F001031BD13F2209920F4A01240892B3
:102620000E4ACDE90B33079204220A93CDE9023218
:10263000CDE9053401931623049400932022084920
:10264000084800F06BF808482C6037F063FE054836
:102650000FB030BD24330620608E0508A48C050819
:102660007C3A0408283306200526000813B500220A
:1026700049B102AB019203F8052D0268946801AAE2
:10268000A04702B010BD0846FBE7C0897047008A2A
:102690007047C088704780887047807A00F07F005C
:1026A0007047807AC0097047002070479FED010A8B
:1026B000704700BF00000000406A7047806A7047A2
:1026C00070478B88C069DB0A0A6850F82300104401
:1026D000704710B5C2B1137BB3B1547BD27A2402D8
:1026E00004F4E0641443026A98B202EB8402138893
:1026F0008B4202D192F9020010BD05D8013880B298
:1027000004320028F3D1F7E70020F5E710B50446BE
:102710002C2136F013FA204610BD000030B50446D7
:102720008BB0BDF860500895BDF85C5007959DF8DA
:10273000505006959DF84C5005959DF848500495CD
:102740009DF8445003959DF8405002959DF83C50EB
:102750000195BDF83850009510F006FF2046064B55
:102760002360159BE361169B2362199B63621A9B8E
:10277000A3620BB030BD00BF1CBB03087047000054
:1027800030B5124C8FB0236813F001031BD13F22E8
:1027900009920F4ACDE90B3308920E4A0A93CDE90C
:1027A0000632059304220125CDE901334123CDE909
:1027B000032500930C2208490848FFF7AFFF08489B
:1027C000256037F0A7FD05480FB030BD5433062013
:1027D000448E0508AC8C05080C48040858330620C4
:1027E0007D2700087047000030B5134C8FB0236878
:1027F00013F001031CD13F220992104ACDE90B339B
:1028000008920F4A0A93CDE9063205930422012566
:10281000CDE901331423CDE90325009325221723A5
:1028200008490948FFF77AFF0848256037F072FD2C
:1028300005480FB030BD00BF84330620A48D0508C5
:10284000348D0508B448040888330620E5270008BD
:102850007047000030B5124C8FB0236813F00103AD
:102860001BD13F2209920F4ACDE90B3308920E4A41
:102870000A93CDE90632059304220125CDE90133FF
:102880005A23CDE9032500930C2208490848FFF795
:1028900045FF0848256037F03DFD05480FB030BDC5
:1028A000B43306208C8E0508A08D0508BC4A0408A8
:1028B000B8330620512800087047000030B5134C8B
:1028C0008FB0236813F001031CD13F220992104AF4
:1028D000CDE90B3308920F4A0A93CDE906320593EE
:1028E00004220125CDE901334123CDE903250093DD
:1028F0001B22492308490948FFF710FF08482560B3
:1029000037F008FD05480FB030BD00BFE4330620A6
:10291000948E0508A88D0508644B0408E83306204A
:10292000B92800087047000030B5124C8FB02368FA
:1029300013F001031BD13F2209920F4ACDE90B335B
:1029400008920E4A0A93CDE9063205930422012526
:10295000CDE901332423CDE9032500930C22084956
:102960000848FFF7DBFE0848256037F0D3FC054830
:102970000FB030BD14340620888E0508AC8D0508D4
:10298000E04C040818340620252900087047000090
:1029900030B5124C8FB0236813F001031BD13F22D6
:1029A00009920F4ACDE90B3308920E4A0A93CDE9FA
:1029B0000632059304220125CDE901337823CDE9C0
:1029C000032500930B2208490848FFF7A7FE084893
:1029D000256037F09FFC05480FB030BD4434062019
:1029E000848E0508B88D050820A204084834062006
:1029F0008D2900087047000030B5134C8FB0236854
:102A000013F001031CD13F220992104ACDE90B3388
:102A100008920F4A0A93CDE9063205930422012554
:102A2000CDE901332023CDE9032500932822262375
:102A300008490948FFF772FE0848256037F06AFC2C
:102A400005480FB030BD00BF74340620688F0508FC
:102A5000BC8D0508BCA2040878340620F5290008BE
:102A60007047000030B5124C8FB0236813F001039B
:102A70001BD13F2209920F4ACDE90B3308920E4A2F
:102A80000A93CDE90632059304220125CDE90133ED
:102A90003723CDE9032500930F2208490848FFF7A3
:102AA0003DFE0848256037F035FC05480FB030BDC5
:102AB000A4340620B48D0508288E050820D9040802
:102AC000A8340620612A00087047000030B5134C76
:102AD0008FB0236813F001031CD13F220992104AE2
:102AE000CDE90B3308920F4A0A93CDE906320593DC
:102AF00004220125CDE901330B23CDE90325009301
:102B000019220D2308490948FFF708FE08482560E7
:102B100037F000FC05480FB030BD00BFD4340620AC
:102B2000A88C0508408E0508DC180508D834062056
:102B3000C92A00087047000030B5134C8FB02368D5
:102B400013F001031CD13F220992104ACDE90B3347
:102B500008920F4A0A93CDE9063205930422012513
:102B6000CDE901332623CDE9032500931B222A2337
:102B700008490948FFF7D2FD0848256037F0CAFB2D
:102B800005480FB030BD00BF04350620B08C0508E5
:102B9000488E05086034050808350620352B0008E6
:102BA0007047000030B5124C8FB0236813F001035A
:102BB0001BD13F2209920F4ACDE90B3308920E4AEE
:102BC0000A93CDE90632059304220125CDE90133AC
:102BD0003023CDE9032500930B2208490848FFF76D
:102BE0009DFD0848256037F095FB05480FB030BDC6
:102BF000343506209C8D05084C8E0508DC3505080B
:102C000038350620A12B00087047000030B5124C63
:102C10008FB0236813F001031BD13F2209920F4AA2
:102C2000CDE90B3308920E4A0A93CDE9063205939B
:102C300004220125CDE901331423CDE903250093B6
:102C40000B2208490848FFF769FD0848256037F05E
:102C500061FB05480FB030BD64350620388D05088E
:102C6000508E05087836050868350620092C0008BE
:102C70007047000030B5124C8FB0236813F0010389
:102C80001BD13F2209920F4ACDE90B3308920E4A1D
:102C90000A93CDE90632059304220125CDE90133DB
:102CA0001A23CDE903250093172208490848FFF7A6
:102CB00035FD0848256037F02DFB05480FB030BDC5
:102CC00094350620B08D0508548E05081437050884
:102CD00098350620712C00087047000030B5134C61
:102CE0008FB0236813F001031CD13F220992104AD0
:102CF000CDE90B3308920F4A0A93CDE906320593CA
:102D000004220125CDE901331A23CDE903250093DF
:102D100026221D2308490948FFF700FD08482560C1
:102D200037F0F8FA05480FB030BD00BFC4350620B3
:102D30003C8D0508588E050858380508C83506200A
:102D4000D92C00087047000030B5124D8FB02B68A9
:102D500013F001031BD13F2209920F4A012408926C
:102D60000E4ACDE90B33079204220A93CDE90232D1
:102D7000CDE90534019310230494009321220849DE
:102D80000848FFF7CBFC08482C6037F0C3FA054829
:102D90000FB030BDF4350620988D05085C8E05080F
:102DA0006C3A0508F8350620452D000810B50024BA
:102DB00004600C6014601C6010BD704730B5134C8B
:102DC0008FB0236813F001031CD13F220992104AEF
:102DD000CDE90B3308920F4A0A93CDE906320593E9
:102DE00004220125CDE901332023CDE903250093F9
:102DF0002522242308490948FFF790FC084825604C
:102E000037F088FA05480FB030BD00BF24360620E1
:102E1000C08D0508908E0508E48105082836062037
:102E2000BB2D0008704708B5132953D8DFE801F01F
:102E30000A0E12161A1E2226462A2E32363A3E4A0A
:102E400042464A4E00F08AF8006808BD00F086F855
:102E50004068FAE700F082F88068F6E700F07EF854
:102E6000C068F2E700F07AF80069EEE700F076F863
:102E70004069EAE700F072F88069E6E700F06EF872
:102E8000C069E2E700F06AF8406ADEE700F066F841
:102E9000806ADAE700F062F8C06AD6E700F05EF810
:102EA000006BD2E700F05AF8406BCEE700F056F81E
:102EB000806BCAE700F052F8006CC6E700F04EF8ED
:102EC000006AC2E700F04AF8C06BBEE700F046F8BF
:102ED000406CBAE70020B8E710B50446042135F08D
:102EE0002DFE204610BD704730B5124C8FB02368C0
:102EF00013F001031BD13F2209920F4ACDE90B3396
:102F000008920E4A0A93CDE9063205930422012560
:102F1000CDE901331E23CDE9032500931222084990
:102F20000848FFF7FBFB0848256037F0F3F9054830
:102F30000FB030BD543606202C8E0508648F05086E
:102F4000A88B050858360620E72E00080048704771
:102F500090BB030899207047432070470048704792
:102F60008436062010B5FFF77DFD1B4C2060FFF76F
:102F700081FE6060FFF738FCA060FFF701FCE060B5
:102F8000FFF706FD2061FFF73FFB6061FFF7DCFE06
:102F9000A061FFF793FCE061FFF738FE2062FFF7C6
:102FA0002BFD6062FFF7FEFDA062FFF753FCE062BD
:102FB000FFF794FE2063FFF701FF6063FFF7BCFD9E
:102FC000A063FFF783FDE063FFF78EFF2064FFF748
:102FD000ABFC606410BD00BF843606200020704743
:102FE000002070470EB403B503AB53F8042B002147
:102FF00001930FF0B9FD02B05DF804EB03B0704728
:103000000CB407B504AB53F8042B01930FF0ACFDDF
:1030100003B05DF804EB02B07047000010B5436CDC
:10302000044673B3038F2BB9C521184B184A1948AE
:1030300037F052F9C38E00EB43035B8C0BB311F0F6
:10304000B4FC238F012B03D8134B144ACB21EEE79A
:10305000E28E40F63F10531C9BB21946092B88BFE5
:10306000A3F10A0104EB4101498C814209D10A2BE9
:1030700028BF002304EB4202508C04EB4303588426
:1030800051842046BDE8104011F092BB84C703086C
:10309000B1C803088DC70308D1C70308DFC70308F9
:1030A00011F04DBB10B586B002AC84E806001A469C
:1030B0000AAB05930193099B21460093089B0EF0F0
:1030C00061F906B010BD000038B5D8B9114B1248EF
:1030D0001B681249BBB11A689C681A4402605A689E
:1030E0001C441A440A606CB100220D4B1A80FFF791
:1030F00035FF0546FFF730FF0A4B1C600A4B1D6089
:103100000A4B188038BD0A4B03600A4B0B600A4B10
:103110001C68E8E7CC360620D0360620D4360620D8
:10312000D8360620E0420820E8420820E442082081
:1031300030920508989005082C920508044B1B68EE
:1031400053F82100034B1B6803EB4000704700BF9E
:10315000D4360620D0360620012380F8781080F877
:1031600079307047002070474164003118BF012159
:10317000014B1970704700BF8F4208200020704734
:10318000836B0BB10846184770474FF6FF707047C6
:10319000406803689B691847704770477047000094
:1031A0009022044B83F8762383F8872383F88423C3
:1031B000704700BF00E100E0094A0A49D3680A48A5
:1031C000C3F30A03013B9BB20B801169C1F30A01EF
:1031D000013901801364536B43F00103536370475B
:1031E000006801401237062010370620014B986A0C
:1031F000704700BF846801400122024B996243F886
:10320000602C7047846801407047242303FB010150
:10321000002381F82430704780F82C10704710B5D7
:103220000446302135F08AFC204610BD38B50446EE
:103230004FF4005112F0BEFB23685D6E0EF020FDCE
:1032400001462046A8472368064AD3F88850064915
:1032500000232046A8476268044B5A64044A53601E
:1032600038BD00BF60251420606D0820143706208B
:10327000E036062010B531B90A4B0B4A40F2D22194
:103280000A4837F029F8C0E90F12003218BF0122AE
:1032900007490A7002681946BDE81040D2F88C2030
:1032A000104700BF82CA030813D80308BACA03082C
:1032B0008E42082008B5094B1B888B4203D8084B67
:1032C0001B88934205D9074B074A9E21074837F0D0
:1032D00003F8074B1980074B1A8008BD8442082069
:1032E000864208201FCA0308D0D70308BACA0308B9
:1032F0008A4208208C42082008B531B1044B054AA7
:103300004FF49171044836F0E7FF90F8250008BDAE
:103310009CC90308A0CD0308B0C9030810B531B19A
:10332000064B074A4FF48E71064836F0D5FF4068C9
:103330001146BDE8104003681B6B18479CC9030881
:10334000EBD30308B0C9030808B531B1044B054AF3
:103350004FF48A71044836F0BFFFC06808BD00BF53
:103360009CC9030832D50308B0C9030870B50446E8
:103370000D4629B10D4B0E4A5E210E4836F0ACFFCA
:10338000406811460368DB689847606803689B6A79
:1033900098472368E06084F828505E6A29462B46E7
:1033A0002046B446BDE87040012260479CC903082E
:1033B0008CD10308B0C903082DE9F0410446174633
:1033C0000D4629B10E4B0F4A4E210F4836F084FFAF
:1033D00040683946026896681A46B04760680368D4
:1033E0009B6A98472368E06084F828505E6A294603
:1033F0002B462046B446BDE8F0410122604700BF9D
:103400009CC9030818D00308B0C9030808B529B13E
:10341000054B064A4021064836F05EFFC0E90532FA
:103420008160016108BD00BF9CC90308C3CE0308C9
:10343000B0C9030812F0FCB912F02EBA0AF013BD9D
:103440000AF083BE10B504460BF0B6FA2368204696
:10345000BDE81040D3F8AC3018470AF037BE90F8FA
:103460007A301BB1406803681B68184718467047DC
:1034700010B590F8784090F834100C4B8C421A78C4
:1034800009D03AB90A490B4A0888148810800122E9
:103490000C801A7010BD002AFCD0064A044914881A
:1034A00008880C8010800022F3E700BF88420820C3
:1034B000864208208442082070B5044629B1274B73
:1034C000274A6E21274836F007FF052A2BD8DFE868
:1034D00002F003252B30373F406803681B6998478B
:1034E00008B3012384F82530002384F82630A36034
:1034F000236194F82730B3B96468236820469B6A37
:10350000984723680546DB6A2046984785420AD1DA
:1035100023682046BDE870409B691847002380F867
:10352000253080F8263070BDC3610023A36023617D
:10353000F9E7C361012380F8263080F82830F4E7EA
:103540000023012280F8253080F82630C261EDE7A3
:10355000003318BF012380F82730E4E79CC9030833
:10356000F9CA0308B0C903082DE9F3410546164618
:10357000984629B1164B174AE921174836F0ACFE98
:10358000406803681B699847F8B1144C0121206812
:103590000BF074FA0746414668460FF0ABFC104B3F
:1035A000BDF902101B88BDF90020686803FB0122E9
:1035B000016807EB4202CD693146A84720680368DD
:1035C000DB6A02B0BDE8F041184702B0BDE8F08107
:1035D0009CC9030880D60308B0C90308904208209C
:1035E0008A42082008B590F8243033B1084B094AC4
:1035F00040F26B11084836F06FFE012280F824205B
:1036000081F83430CB860B870B63184608BD00BFAA
:10361000EFC90308CBD20308B0C90308F8B50446C4
:1036200029B13F4B3F4AA9213F4836F055FE90F85B
:1036300025301BB990F82630002B6FD000273B4B6C
:103640001B6893F86B10236984F826700B44236180
:1036500094F82830002B54D0136810465B696568D5
:103660009847E6692B682EB331465B6A284698472F
:103670002B682846DB6AE669984786422CBF0026FD
:103680000126E7612B6828469B6A9847A368E0609B
:103690000133A360D4E90432A0695A43A3684343C9
:1036A0009A4239D994F82C1069BB012184F828106A
:1036B0003046F8BD226A62B1D3E9097328469847BB
:1036C000216A01442846B847A368226A2662134447
:1036D000A36094F827602B6826B19B692846984719
:1036E0000646CFE79B6A284698472B680746DB6A61
:1036F00028469847874201D22B68EEE784F8256078
:10370000C0E70126C6E7D31AB3FBF0F30BB9236277
:10371000CBE7013B2362C9E70021C7E70126C7E7E2
:103720009CC9030866CC0308B0C90308904208206E
:103730004FF48002034BDA6080221A6110221A6172
:10374000704700BF00E100E04FF480020A4BC3F86D
:103750008C20BFF34F8FBFF36F8F8022C3F8902070
:10376000BFF34F8FBFF36F8F1022C3F89020BFF3CA
:103770004F8FBFF36F8F704700E100E008B5054B36
:103780001A68D20704D4012203481A6036F0C2FD39
:10379000024808BDDC3606209D31000804000020E8
:1037A00010B5144C236823B3134B144A1B6C1188B7
:1037B0008B4213D1124B198806F096FC226892F8BE
:1037C0006A30013382F86A3000F0CEFB20680BF0DB
:1037D000F3F8BDE81040002001F09ABB06F084FC2D
:1037E000206803681B6A9847BDE81040002001F07C
:1037F000A9BB10BD90420820006801401237062086
:103800001037062008B50E4800F05AFD0D4B0E4A41
:1038100001211A600022C3E90222C3E90422C3E99C
:10382000062283F8242083F8252083F8262083F8B5
:10383000271083F8282083F82C105A6008BD00BF99
:1038400014370620E036062064C9030803685B6C61
:10385000184701207047FEE7104B82B0D3F888204C
:1038600042F48022C3F88820D3F8882002F4802212
:103870000192019A1A6E42F480221A661A6E22F49C
:1038800080221A66064B074A1A62074A5A624FF4A8
:103890008002064BDA6002B0704700BF000C02469F
:1038A000A0470820B93800085738000800E100E0B8
:1038B00040F2EF3070470000024B1B685868036805
:1038C0005B6918479042082008B50B280BD8DFE841
:1038D00000F01206100A0A0A0A080808080801205F
:1038E00008BD0520FCE7054B054A7021054836F068
:1038F000F3FC0020F4E70220F2E700BF7BD80308C6
:103900004ED9030896D8030808B50A2809D8DFE875
:1039100000F010060E08080808060606060001203A
:1039200008BD054B054A9121054836F0D5FC00201D
:10393000F6E70220F4E700BF7BD8030898D9030814
:1039400096D80308F8B50C46487FFFF7BDFFA77F60
:1039500005463846FFF7B8FF06463846FFF7D4FF5E
:10396000A38A628BD21A494B1A64A18A628B521ABB
:103970009A61A18A228B521A1A615863A18AE28A3B
:1039800042EA01425A642269DA636268DA602268B4
:10399000402A70D010D8042A3BD0202A6BD0237F35
:1039A00045EA0365394B45F40035DD61617FA27F4F
:1039B000914267D0364A4BE0B2F5807F1BD0B2F51A
:1039C000007F23D0802AEAD1A068021DDA62227F1C
:1039D00045EA026545F40035DD615E6222695A619F
:1039E0000278EAB1012A35D02A4B2B4A40F21B114A
:1039F0002A4836F071FC217F294A42EA0162DA61E5
:103A0000E2681A625E6222695A6120E0217F254ADB
:103A1000F3E7227F45EA026545F40035DD61F1E711
:103A2000D9694288501E21F47F42012122F0100200
:103A300042EA0022DA61154BDA6942F02002DA61CB
:103A4000DA699206FCD410229A600029B2D0164A94
:103A50001A60F8BDDA69408822F47F42217F22F0A3
:103A60001002013842F01002FF3942EA002218BF6A
:103A70000121DA61DFE7237F45EA036545F400357C
:103A8000024BCBE742F20132E2E700BF00B0024056
:103A90000123010061D8030810D9030896D8030850
:103AA0000A000200090002000123020010B5887F0D
:103AB0000C46FFF729FF1C4B5863A18AE28A42EAB1
:103AC00001425A642269DA63628BA18A521A1A642B
:103AD0002268082A16D1A18A628B521A9A61A18A99
:103AE000628B521A1A615862217F104A42EA0162BF
:103AF000DA61E2681A6222695A612269DA600C4A64
:103B00001A6010BD0022D8611A61E1680A0A4809EA
:103B100002F4784200F4FC600243C1F3C4010A439A
:103B20009A63044AECE700BF00B0024009000100BC
:103B300001230200012303004FF48002044B0360C1
:103B4000044BC3F88C20BFF34F8FBFF36F8F7047C8
:103B5000C8D8030800E100E010B50446FFF7ECFF09
:103B6000204640F6A45134F0E9FF204610BD000085
:103B700001231C22084903720868084B02FB00302D
:103B8000007E20B1086802FB003001F0B7B8086879
:103B900002FB003001F070B85464062010000020D1
:103BA00010B590F8A03D0446ABB903689B6A9847EE
:103BB000174B1A681C235343164AD35C012B09D1B7
:103BC000154A126832B9227A22B984F8A03D2046FB
:103BD000FFF7CEFF10BD037A4BB1002303721C2008
:103BE0000B4B1A680B4B00FB023001F009F96068BF
:103BF00003681B6898470028ECD1637A002BE9D052
:103C0000236884F8A00D5B6A2046BDE81040184781
:103C100054640620100000205064062010B50446AD
:103C2000406803681B68984758B9637A4BB1237A98
:103C30003BB984F8A03D23682046BDE810405B6A8C
:103C40001847084B1A681C235343074AD35C012BBF
:103C500006D1227A22B984F8A03D2046FFF788FFDA
:103C600010BD00BF546406201000002070B505464A
:103C700000262C460A4B0C3068602E726E7244F897
:103C8000203B602221460AF0F7FF05F55A63E66003
:103C90002434A342FBD185F8A06D284670BD00BF37
:103CA000C8D80308034B1A68D207FCD423229A60B1
:103CB000704700BF00B0024030B50E4C2568ED07DC
:103CC000FCD42325A5600225120442F00102FF2B3B
:103CD00065636264E063E16008D01B0643F0021391
:103CE000E361054B65626061236030BD034BE361B6
:103CF0000123F9E700B0024001000200020002FFC8
:103D000030B50B4C2568ED07FCD42325A5600225B2
:103D100012041B0643F4003342F00102656362643F
:103D2000E063E160E361034B65626061236030BD85
:103D300000B002400100020030B50F4C2568ED07CD
:103D4000FCD42325A560012509042943FF2B6563C5
:103D50006164E0630CD00949656241EA0363E36191
:103D600022F07F42064B22626061E060236030BD3A
:103D7000E561044BA263F9E700B0024009000100CD
:103D8000010002000100030030B50D4C2568ED076D
:103D9000FCD42325A560012512042A43FF2B65636B
:103DA0006264E063E16007D0064A42EA0363E361CC
:103DB00065626061226030BD034BE3612560FAE714
:103DC00000B0024001000200010002FF30B50B4CC0
:103DD0002568ED07FCD42325A560012512041B06E8
:103DE00043F400332A4365636264E063E160E361A6
:103DF000034B65626061236030BD00BF00B00240CC
:103E00000100020070B5104C256815F00105FBD1CA
:103E10002326090441F00101FF2BA660656361645C
:103E2000E0630CD00949656241EA0363E36122F073
:103E30007F42074B22626061E060236070BDE561F4
:103E4000044BA263F9E700BF00B002400900010083
:103E5000010002000100030070B50F4C256815F049
:103E60000105FBD12326FF2B08BF02234FEA0242A4
:103E700042F00102A66018BF1B0665636264074A30
:103E800018BF43F00213E063E16017BFE361E36131
:103E900065626061226070BD00B0024001000200F6
:103EA00070B50F4C256815F00105FBD123261204CF
:103EB00042F00102A660656362640022FF2B1CBF12
:103EC0001B0643F40033E063E16018BFE361044B79
:103ED00008BFE5615A62034A58611A6070BD00BFAD
:103EE00000B0024001000200012108B5002208468E
:103EF00008F02BFF0A4B186028B92821094B0A4A01
:103F00000A4836F0E9F900220421012008F0C4FF34
:103F1000074B186018B9074B034A2C21F0E708BD7E
:103F200060370620E3D9030897DA03082CDA030880
:103F30005C37062055DA0308024B4FF0FF31186852
:103F400008F052BF60370620014B186808F07ABFAE
:103F500060370620024B0021186808F045BF00BFFB
:103F600060370620FFF7F0BF002303481A460349D5
:103F7000006808F0D1BF00BF5C37062008000020B1
:103F8000002313B5074C1A4601A9206808F0F8FF72
:103F90004FF0FF33002201A9206808F0F1FF02B0C2
:103FA00010BD00BF5C3706200120704738207047E5
:103FB000382303FB010008307047382303FB01005E
:103FC000083070470120704741F24830704741F295
:103FD000483303FB01000830704741F2483303FBCC
:103FE000010008307047012070471020704700EB37
:103FF00001100830704700EB011008307047084688
:10400000FEF740B910B50446024B036009F0D8F939
:10401000204610BD38DB030810B50446FFF7F2FF59
:104020002046402134F08AFD204610BD10B50446DC
:10403000024B036009F0C4F9204610BD04DB0308FD
:1040400010B50446FFF7F2FF204641F2503134F03C
:1040500075FD204610BD000010B50446024B0360FC
:1040600009F0AEF9204610BDD0DA030810B50446B9
:10407000FFF7F2FF2046182134F060FD204610BD06
:1040800010B50446084B036000F59B501C30FFF749
:10409000B9FF04F12C00FFF7C9FF04F11400FFF78A
:1040A000DBFF204610BD00BF6CDB030808B50248EB
:1040B000FFF7E6FF08BD00BF6837062010B50446CD
:1040C000FFF7DEFF204641F21C5134F037FD204659
:1040D00010BD00002DE9F341FEF738FF002405462E
:1040E000FEF738FF2346014622462846009411F089
:1040F00085F8234D234B244A20461A60FEF7E4FF3F
:10410000214628461AF0EAFA204B214FAB6021489D
:1041100010F0DCFF3B68DB072CD41F4C1F4E04F56E
:104120009E551F4B04F1140004F12C086060C4F884
:104130000880E6602561236009F044F9194B404688
:10414000636109F03FF9184B3046E36209F03AF930
:10415000164B281F3360FCF751FD2246291F2846C5
:10416000FCF780FD2846FEF78DF8012310483B60E0
:1041700036F0D0F80F4802B0BDE8F04100F07EBE46
:10418000005B0620EC420820FC5A0620844C0620E6
:10419000643706200C00002068370620E44A062019
:1041A0006CDB0308D0DA030804DB030838DB030800
:1041B000AD400008485A062008B525F025F94FF40F
:1041C000F0714FF4487001222DF044FDBDE8084025
:1041D0000121084631F0FABB014809F0A8BE00BF32
:1041E000485A0620F7B5134D134B144F144E28466A
:1041F0003B60FFF73BFD30461AF062FA11480EF0C3
:1042000093FE4FF448734FF4F0720F4CCDE9003237
:1042100029463B463246204611F064FB0B4B236097
:104220000023C4F8AC30C4F8B030094BC4F8A8304F
:1042300003B0F0BDA44C062018DF0308A04C0620F4
:10424000005B0620844C0620485A062040DE030806
:1042500030DF03080148FFF76FBC00BFA44C062005
:104260004069704790F840007047036B23B9C06AFB
:10427000003018BF012070470120704780687047E8
:10428000704710B50C4604300FC884E80F0010BD0D
:104290007047000008B5034A034B40F2F31103488E
:1042A00036F01AF852DD0308F8E30308C1DB03080F
:1042B00010B50446482134F041FC204610BD0000F2
:1042C00000220E4B10B5114604460360C0E90522DA
:1042D000C0E90722C0E90922C0E90B22C0E90D228A
:1042E000C26380F84020C0E90322C0E90122012016
:1042F00008F02BFD024B1860204610BD88DC030837
:10430000C8FC062030B41546026B42B1C46B406B4A
:104310000C1B2044294630BC1A4636F035BCC06A16
:104320000844F7E710B5036B73B1C36B426BC91A4E
:10433000531898785C780004525C40EA0420DB78DB
:10434000104340EA036010BDC26A5318525C5978AA
:104350009878000440EA0120F1E7036B43B1C36B96
:10436000C91A436B5A185278585C40EA02207047C9
:10437000C36A5A18585C537840EA0320704700001B
:1043800070B50446006B0D461646D8B1A36B934238
:1043900008D209230D4A84F84030AF210C4B0D4858
:1043A00035F09AFF0368DB689847206B3246036854
:1043B000616B1B69984710B90D2384F84030606B1E
:1043C000E56370BDE06A0844FBE700BFDADD03087F
:1043D0006ADC0308C1DB03082DE9F04143690446A8
:1043E0002BB9214B214AF521214835F075FF0822D0
:1043F0008169FFF7C5FFA16920460431FFF792FFED
:1044000043F2300646F26435A169A36A084400F11C
:1044100008029A4220D263690930013320F0010179
:1044200063610822A1612046FFF7AAFFA169204627
:10443000FFF793FFA169804602312046FFF78DFF09
:10444000A169074604312046FFF76CFFB045DBD178
:10445000AF42D9D1012004E0012300206361236A27
:10446000A361BDE8F08100BF78DB0308C4DC03086A
:10447000C1DB030870B50368002914BF0D46012590
:10448000DB6A04469847A84204D223682046DB6AC8
:1044900098470546E66905F18053013B06EB031694
:1044A000102206F108012046FFF76AFF06F110010D
:1044B0002046FFF737FF236A043B0344C4E9055352
:1044C00070BD000000212DE9F0410446816180F8B3
:1044D00040104822FFF754FFA5690423634A294688
:1044E0002046FFF70FFF48B1032340F23D1184F847
:1044F00040305F4A5F4B604835F0EEFE05F1080141
:10450000A16104235D4A2046FFF7FCFE38B1042375
:10451000574A84F8403040F24511594BEBE705F11A
:104520000C01A1610423574A2046FFF7EBFE074622
:1045300038B105234E4A84F840304FF4A671524BEF
:10454000D9E705F110012046FFF7ECFEA669054604
:1045500020B94E4B464A4FF4A971CCE706F1080842
:1045600004234B4A41462046FFF7CCFE002846D0A4
:10457000062384F840300423464A06F10C01204605
:10458000FFF7C0FE00283CD0072384F840304544A4
:104590000C2229462046FFF7F3FE3F4F05F108069F
:1045A00004233A4631462046FFF7ACFE94F84030EB
:1045B000002845D1002B53D105F10C030435A3612C
:1045C00029462046FFF7AEFE304460622946204669
:1045D000FFF7A8FE0644042231462046FFF7D0FE2E
:1045E00004232E4A31462046FFF78CFE00283BD19B
:1045F00001236361A369E6612362BDE8F0810127BD
:10460000B9E7002FC3D006F114012046FFF78AFE58
:104610004FF47A73B0FBF3F006F12401606020469A
:10462000FFF780FE06F13401A0602046FFF77AFE16
:1046300006F13801E0602046FFF774FE2061A6E72E
:1046400073B9A36AAB42B7D9291D2046FFF76AFEAA
:10465000083005440C2229462046FFF791FE9DE7CD
:104660000A2384F84030C8E70B23FAE7F4DB030899
:10467000ADDD0308F9DB0308C1DB030812DC030826
:1046800017DC03082FDC030834DC03084ADC0308CA
:1046900056DC03085BDC030860DC030865DC030808
:1046A000C0E90A2100220263FFF70CBF002310B506
:1046B0000163C3620B6804469B6808469847A06282
:1046C0002046BDE81040FFF7FDBE000073B51E4C4C
:1046D0001E4D236000232B601D4D1E4C29601E4D76
:1046E00023602A6001251D4C1D4A23601D4C236058
:1046F00013601D4A13601D4A1370C2E90233C2E9F8
:104700000433137693761377C2E90933C2E90B3386
:1047100082F8343082F8353082F83630144B5576D2
:104720005E6B06B115761C25246805FB0422DC6847
:104730004FF4C0736343009353684FF4504204F046
:10474000DDFB002002B070BDA8FC0620B4FC0620F2
:10475000BCFC0620B8FC0620C0FC062054640620E1
:1047600058640620C4FC06209CFC06201000002093
:104770005CFC06204B68012B0ED1CB681A071EBFCC
:1047800023F00F031033CB608B68180703D023F09E
:104790000F0310338B607047022B0DD1CB681A07C3
:1047A00003D023F00F031033CB608B685A07F2D08D
:1047B00023F007030833EDE7002BECD1CB68580753
:1047C000F3D023F007030833EEE7000030B40B4BBF
:1047D0001A680A441A600A4B1B689A420CD2094CA8
:1047E0009A1A2568B2F5504F2944216028BF4FF42A
:1047F000504230BC04F0F2BB30BC7047B4FC062021
:10480000C0FC0620BCFC06202DE9F843474CDFF82D
:1048100038E12368DFF834C1103323601C23DEF84D
:104820000010DFF82C9103FB01C1D9F80060404F64
:104830004E6140493F680D6980467D4306EB051691
:10484000C9F800604D6926682746B542744665463A
:104850000E460CD3CA684FF4C071DEF800404A43DC
:1048600003FB04C35968BDE8F84304F0BABB012058
:10487000DEF8001059430CF80100DEF8001003FBCD
:1048800001C18A600021DEF8002003FB02C2116131
:10489000326B22B1DEF8002003FB02C318763B68BE
:1048A000B2699A4225D91C22236802FB03530022D5
:1048B0009A762368013323602368012B4FF01C0391
:1048C00088BF226022685343EB5C33B1022140462B
:1048D00004F051FB0122184B1A601C212368F26876
:1048E00001FB03534FF4C07140464A43596804F03A
:1048F00078FB3B68B2699A420BD81C2223680221DC
:1049000002FB035501230D4AAB764046136004F0C9
:1049100032FB0B4B1B681B7A2BB90A4B1868BDE89E
:10492000F84308F08FBABDE8F88300BF9CFC06206E
:10493000A4FC06205CFC0620B8FC0620B0FC062087
:10494000A0FC0620C8FC0620C4FC062010000020A5
:10495000A8FC062072B6FEE70122014B1A607047E0
:10496000B0FC062038B51B4D04462A6842B11A4BEC
:104970001B682BB104F026FF042827D0012038BD86
:10498000164B1868037A6BB9154B1A681C235343EE
:10499000144AD35C012B05D10F4B1B6813B9036874
:1049A0001B699847104A1368012B0DD10F4B1968EA
:1049B0001C234B430B49CB5C33B92B6823B9022131
:1049C0002046136004F0A4FD0220D8E7204604F03E
:1049D0000BFBD3E7B0FC062050640620A0FC0620A9
:1049E0005464062010000020B8FC0620C4FC0620F9
:1049F00070B50546002A36D0002B34D002241A4860
:104A00000461EC6826071CBF24F00F041034046016
:104A10004FF4C86444600468144E2409C4602C69CF
:104A200014F00F0418BFC4F110048460104C0F4838
:104A3000FFF74CFE6A6C25460E4B1A603046FFF7B6
:104A400091FF20602368022B05D10B4B4FF0FF3103
:104A5000186808F0C9F92B68012BEFD10023074A29
:104A60001360074A136070BD5CFC062008480820EC
:104A7000ACFC0620A0FC0620C8FC0620B0FC0620EA
:104A8000506406202DE9FF479846436904460E46C8
:104A900017462BB92A4B2B4AC1212B4835F01CFC59
:104AA00008228169FFF76CFCA1692046FFF755FCDD
:104AB000A169824602312046FFF74FFCA169814679
:104AC00004312046FFF72EFCA169A36A0831421881
:104AD0009A42054626D243F230039A4516D146F251
:104AE0006433994512D188B10246A1612046FFF78F
:104AF00047FC0C9B0146CDE90183009733462A46CB
:104B00002046FFF775FF636901336361A3692B4496
:104B10008DB1A361A369626A013323F0010393425B
:104B2000A3610AD10120236A6061A36180F00100C2
:104B300004B0BDE8F0870833EBE70020F6E700BFDC
:104B400078DB0308F7DC0308C1DB03082DE9F84331
:104B5000044688461746816908221E46FFF710FC66
:104B6000A16920460431FFF7DDFBA1690546024635
:104B700008312046FFF704FC0222374B0146E0686B
:104B80001A6102071EBF20F00F0210321A604FF4A4
:104B9000C86208BF18605A601A68B8F90290120912
:104BA000DA60B8F80620B8F900E04A440FFA82FC4F
:104BB0002269C3F81490624528BF624694469A6100
:104BC000B8F804204FEA1E18724412B2824228BF7D
:104BD000024602F10F001A62000912F00F029862F9
:104BE00018BFC2F11002A0EB0800D8629A630EF061
:104BF0000F001CF00F02186318BFC2F1100209F079
:104C00000F005863DA63C3F81CE02A46C3F8248017
:104C100012483B46FFF75AFD626C114C114B25467A
:104C20001A60114B1E600D4E3046FFF79BFE206050
:104C30002368022B05D10D4B4FF0FF31186808F0A7
:104C4000D3F828680128EFD10023094A1360094AE4
:104C50001360BDE8F88300BF5CFC0620084808200C
:104C6000ACFC0620A0FC0620A4FC0620C8FC062004
:104C7000B0FC062050640620F0B51C490369CD6ADB
:104C80004FF4C077EC1A056102258A6BC2EB04125F
:104C90004C6A12F00F0623440C6907FB03F74FEA36
:104CA000041403FB04F4124B18BFC6F110065D6335
:104CB00090F81AC01504BCF1000F13D0C96BC1F1F4
:104CC0001001294359644169C2F548720C44DC6300
:104CD0001A64084A1E61DA6142683A44DA60064A98
:104CE0001A60F0BD45F010055D64ECE75CFC062041
:104CF00000B002400B0009FF012301002DE9F04F35
:104D000001698BB00446374A002966D1136BD06A1B
:104D1000677E01388142D2F83490A07E0CBFD2F871
:104D200038804FF00008002F14BFCE464FF0000E21
:104D3000002854D0D2F83CC04FF0320A4FF4C0756E
:104D4000D2F810B0506A0EFB0BF60AFB06FA0844C4
:104D500003FB0BF245430BFB00A0013102EB0010FB
:104D6000216102EB06120026B9F1000F00D007B94D
:104D700026760121C3F11003A3EB0803ADF8183028
:104D8000CEF11003A3EB0C03ADF81A30164B174FFE
:104D9000079363693A441844154B059018680292CA
:104DA000049601918DF821608DF82260036801A9B5
:104DB0005B68984702220F4B5A634FF010125A64F7
:104DC0000D4ADF631E641E61DA61626815440B4A96
:104DD000DD601A600BB0BDE8F08F002397E78446D2
:104DE000AAE700BF5CFC0620100020035C640620DC
:104DF000A0FC062000B002400B0009FF01230100C7
:104E00000D4B0269DB6A9A4215D100230B4A0370ED
:104E100011688360013111601168037601294376BE
:104E200088BF1360837E13B10122054B1A60054BC6
:104E3000186808F007B870475CFC06205464062028
:104E400050640620C8FC0620704770477047000079
:104E500010B505480C464FF4005103F085FC08B12D
:104E60000120207010BD00BF0008024210B50446AA
:104E7000082133F063FE204610BD704738B5044664
:104E800004F1A805FEF7D2F9284600F007F901233E
:104E900084F87030014B2561636138BDCCFC06207D
:104EA000FEF7A4B9FEF7A8B9FEF7C8BAFEF7C8BA6C
:104EB000FEF776B9FEF73CBCFEF746BCFEF77CB9C0
:104EC000FEF7B8BAFEF7B8BA08F0C7BF10B5044687
:104ED000B42133F033FE204610BD000008B5054B69
:104EE00001461B6800B10121184609F07FFD012031
:104EF00008BD00BF904208200248034B0360FFF743
:104F0000A5BF00BFCCFC062024DE030870470000CC
:104F1000032814D8DFE800F002070B0F0122114626
:104F2000074803F027BC01224FF48061F8E7012213
:104F30004FF40061F4E701224FF48051F0E770472D
:104F400000080242032814D8DFE800F002070B0F24
:104F500000220121074803F00DBC00224FF48061BC
:104F6000F8E700224FF40061F4E700224FF480518B
:104F7000F0E7704700080242032810D8DFE800F08D
:104F80000206090C0121064803F0F9BB4FF48061C9
:104F9000F9E74FF40061F6E74FF48051F3E770470B
:104FA000000802427047704710B50446042133F0F0
:104FB000C5FD204610BD00002DE9F04F17464FF00B
:104FC000000A4FF480322C4B89B08DF817A0894627
:104FD000C3F88020BFF34F8FBFF36F8FDFF8A0803F
:104FE00098F8003003F0FF04002B3BD04FF0010B8A
:104FF0004FF0FF3506AE022348F24E12BA21CDE93A
:1050000001B500961D4802F031FD9DF818400DF1E4
:1050100017030093CDE901B5022348F24E12BA21DD
:10502000164804F00F0402F047FC88F800A0CCB149
:10503000042348F25012CDE9006302950223BA21FD
:105040000E4802F013FD9DF819209DF8183003EB6F
:105050000223C9F800309DF81B209DF81A3003EB9D
:1050600002233B604FF48032034B1A60201C18BFB0
:10507000012009B0BDE8F08F00E100E060480820A1
:10508000D4FC0620202802BF0122014B1A70704771
:10509000D4FC06204068704741607047094A136895
:1050A00043F080731360A2F54E424C3A1168064BF0
:1050B0000B431360A2F57B62136843F00103136096
:1050C000704700BFFCED00E055CEACC5521A02EBB4
:1050D0005302B2FBF3F07047014B1868704700BFF2
:1050E000041000E0704710B504460C2133F026FD93
:1050F000204610BD10B5036804461B6931B19847BE
:10510000A26863689B1A1844606010BD9847A0604D
:10511000FBE7000001220E48D0F8883043F470030A
:10512000C0F888300B4B1A600022DA611A625A62AA
:10513000196821F0A85121F4102119609A621968A8
:1051400021F4802119601A654FF000638360704775
:1051500000ED00E0000C024608B5012007F0E6FD76
:10516000FBE700000149002007F038B9DD4E0008D8
:1051700008B5074A0021074807F08CFD064B074A8F
:1051800018600021064807F085FD064B186008BD31
:10519000CCDF030859510008A8460820A8DF0308FF
:1051A0004FAF0008A446082070B51F4B88B0D3F855
:1051B0009C20694642F01002C3F89C20D3F89C3032
:1051C000064603F01003019302A8184C019B01F05E
:1051D00009FD01F0F7FC164B236040F2E733E36072
:1051E000144BB0FBF3F000230138606020462361CC
:1051F000A36004F0A9FD054668B9204604F0B8FB99
:10520000054640B90F2E0CD802463146312003F036
:10521000B9F8094B1E60312003F0E8F8284608B0C1
:1052200070BD0125F7E700BF000C0246AC46082020
:105230000010004040420F005000002030B59FB0E9
:105240006022002106A835F0D0F818220021684617
:1052500035F0CBF84FF4403000F072FD08B172B673
:10526000FEE701224FF480330325CDE90623042411
:10527000022350221790CDE91C0006A8CDE9143571
:105280001694CDE91823CDE91A3301F01FF808B1BF
:1052900072B6FEE71F23CDE90200CDE904002146E6
:1052A0006846CDE9003500F0A9FE08B172B6FEE708
:1052B0001FB030BD80B598B004F05CFFFFF7BEFFB3
:1052C00000F0B2FD022000F083FD054608B172B681
:1052D000FEE74FF01409C04C01464A460BA835F0D2
:1052E00084F8D4F88C30012643F01003C4F88C30D5
:1052F000D4F88C304FF0100803F010030493049B93
:10530000D4F88C304FF0200A43F00403C4F88C30FA
:10531000D4F88C30012203F004030593059BD4F8E4
:105320008C30502143F02003C4F88C30D4F88C30FA
:10533000AA4803F020030693069BD4F88C3002277A
:1053400043F08003C4F88C30D4F88C3003F0800331
:105350000793079BD4F88C3043F00203C4F88C30D9
:10536000D4F88C3003F002030893089BD4F88C30F7
:1053700043F00803C4F88C30D4F88C3003F00803F1
:105380000993099BD4F88C3043F48073C4F88C30B3
:10539000D4F88C3003F480730A930A9B03F0EAF983
:1053A0002A4641F601418E4803F0E4F901224946BC
:1053B0008C4803F0DFF90BA98848CDE90B86CDE9CD
:1053C0000D5503F0D9F8884B0BA98448CDE90BA300
:1053D0000D964FF0110A03F0CFF840230BA97F4838
:1053E000CDE90B3ACDE90D5503F0C6F84FF4005363
:1053F0000BA97B48CDE90B350D9703F0BDF841F6BD
:1054000001430BA97648CDE90B36CDE90D5603F0E3
:10541000B3F80BA97348CDE90B9ACDE90D5603F00B
:10542000ABF82A460521404602F0ACFF404602F0A8
:10543000DDFFD4F888302A463343C4F88830D4F8E6
:1054400088300521334003931D20039B02F09AFF0F
:105450001D2002F0CBFF2A4605211E2002F092FFFC
:105460001E2002F0C3FF284605F060FC08B172B6AA
:10547000FEE705F06BFC08B172B6FEE74FF00045A1
:105480005A485B4BC0E9003503F040F808B172B6EA
:10549000FEE75848584BC0E9003503F037F8054699
:1054A00008B172B6FEE7D4F8A83043F00203C4F89E
:1054B000A830D4F8A83003F002030293029B04F052
:1054C000A7FE4E484E4A85800260C0E90555066237
:1054D00005F0F0FB054608B172B6FEE7342201463E
:1054E0000BA834F082FF474C474B4FF44B7CC4E988
:1054F00000350423C4E905330C23C4E907334FF412
:10550000F6734FF44D7EC4E909C34FF4FD73C4E94B
:1055100002552561C4E90BE3A58684F83650204680
:1055200004F0DCFC024608B172B6FEE74FF44871A5
:105530000B90CDE90C10FF204FF48065CDE91002EF
:1055400005204FF4F073CDE91250CDE91421204627
:105550000BA9CDE90E371693ADF85C208DF85E20CF
:1055600004F099FD08B172B6FEE74FF44032274BC4
:10557000274CC3E90260C3E906001846C3E90042AC
:1055800004F023F908B172B6FEE72248224B03600B
:1055900002F072FF08B172B6FEE704231F4C2049E7
:1055A0004FF08072C4E9001300230226C4E90232DE
:1055B0001A222046C4E90426C4E90633C4E90833A4
:1055C000C4E90A332363C4E90E3301F0CFFC054676
:1055D00040B372B6FEE700BF000C02460010024264
:1055E00000080242000C024200002110544A082028
:1055F00000140340284A082000180340044A0820E9
:1056000000300240F846082000680140A04708200A
:1056100000B00240804A082000F00240A44908205F
:1056200000340D4202460146204607F01EFE2A467F
:105630002946204607F048FE642004F0D7FD2A469C
:105640002946204607F035FD07232A4600932946C0
:105650004FF44073204607F0ABFD2A46294620460A
:1056600007F027FD2B462A4629462046009607F0DC
:105670009FFD282004F0BAFD0121204607F0CAFC56
:10568000194C1A4A1A4B2046C4E900230123A5608D
:10569000C4E90335C4E90555C4E9075502F0AFF87C
:1056A000014608B172B6FEE7204602F0FBFD014656
:1056B00008B172B6FEE7204602F020FE08B172B6CD
:1056C000FEE70C480C4B036003F054FA08B172B6C5
:1056D000FEE705F035FC05F032FC07F0A5FAFFF710
:1056E00047FD07F0B7FAFEE7604808200058004081
:1056F000FF7BF0000848082000A002400268034B2E
:105700009A4201D104F060BD704700BF0010004014
:1057100072B6FEE7FEE7FEE7FEE7FEE7FEE770474C
:10572000202003F037B80000014802F0D5BC00BFCC
:105730002C490820014802F0CFBC00BFB448082023
:10574000014804F075B900BFAC460820014804F0D8
:105750007EB800BFA0470820014801F05BBE00BF33
:10576000A4490820014802F0A3BE00BF804A0820D7
:10577000014802F0B0BE00BF804A0820014804F092
:1057800029BC00BFF8460820FFF7F8BF014803F026
:10579000B9BF00BF084808200A4B0F21D3F8942056
:1057A0006FF0010042F00402C3F894200022D3F805
:1057B000943082B003F004030193019B02B002F025
:1057C000E1BD00BF000C02460268094B82B09A425C
:1057D0000CD1084BD3F8882042F48052C3F88820BB
:1057E000D3F8883003F480530193019B02B07047D3
:1057F00000300240000C02460368124A82B0934215
:105800000ED1114BD3F8882042F08042C3F8882093
:10581000D3F8883003F080430093009B02B07047B8
:105820000A4A9342FAD1084BD3F8882042F4001276
:10583000C3F88820D3F8883003F400130193019B48
:10584000ECE700BF00140340000C024600180340C0
:1058500007B50F4B02689A4217D10E4B0521D3F8BA
:105860008820762042F48022C3F88820D3F888303C
:10587000002203F480230193019B02F083FD762034
:1058800003B05DF804EB02F0B1BD03B05DF804FBBA
:1058900000B00240000C024607B5194B02689A425C
:1058A0002BD1184B0521D3F88820842042F4801294
:1058B000C3F88820D3F8882002F480120092009A5E
:1058C000D3F8882042F40012C3F88820D3F8883037
:1058D000002203F400130193019B02F053FD842086
:1058E00002F084FD00220521852002F04BFD852079
:1058F00003B05DF804EB02F079BD03B05DF804FB82
:1059000000F00240000C0246F0B50446C1B014227B
:10591000002103A834F069FDE022002108A834F03A
:1059200064FD2268324B9A425FD101230022CDE907
:1059300008234FF400030321389304234220CDE9C8
:105940000A130223CDE90C03CDE90E334FF40033E3
:1059500008A8129304F03CFD08B1FFF7D9FE254BCF
:105960000024D3F89020022742F48052C3F89020FC
:10597000D3F89020032602F480520092009AD3F8C4
:105980008C20082542F08002C3F88C20D3F88C20AC
:1059900003A902F080020192019AD3F88C201648E4
:1059A00042F48072C3F88C20D3F88C30CDE90546E0
:1059B00003F480730293029B4FF47E430795CDE975
:1059C000033702F0D9FD0F2303A90C48CDE90337B3
:1059D000CDE90546079502F0CFFD8320224605213B
:1059E00002F0D0FC832002F001FD41B0F0BD00BF09
:1059F00000340D42000C0246001C0242002002420C
:105A000010B50446C0B01422002103A834F0EDFC08
:105A1000E022002108A834F0E8FC22681A4B9A42E0
:105A20002FD18022002308A8CDE9082304F0D0FC60
:105A300008B1FFF76DFE154C0322D4F88C3003A992
:105A400043F02003C4F88C30D4F88C30104803F0B5
:105A500020030193019B1223CDE903230023CDE909
:105A600005330423079302F087FDD4F89C3043F4F8
:105A70008003C4F89C30D4F89C3003F48003029374
:105A8000029B40B010BD00BF00580040000C024611
:105A9000001402427FB53E4B026806469A4274D11A
:105AA0003C4B4FF40025D3F888203B4C42F4004295
:105AB000C3F888200222D3F888304FF4003CC4E9B0
:105AC00005524FF4400203F400430193019BC4E9E3
:105AD00007C27D2308223148C4E90922C4E9000332
