:020000040800F2
:1000000000002F20F91B01086D6600086F660008CC
:10001000716600087366000875660008491C0108CF
:1000200000000000000000000000000031F900089E
:100030007766000800000000C1F80008DD14010820
:10004000491C0108491C0108491C0108491C0108F8
:10005000491C0108491C0108491C0108491C0108E8
:10006000491C0108491C0108491C0108491C0108D8
:10007000491C0108491C0108491C0108491C0108C8
:1000800079660008491C0108491C0108491C01083F
:10009000491C0108491C0108491C0108491C0108A8
:1000A000491C0108491C0108491C0108491C010898
:1000B000491C0108816600088D66000899660008E1
:1000C000A5660008B1660008BD660008491C010865
:1000D000491C0108491C0108491C0108491C010868
:1000E000491C0108491C0108491C0108491C010858
:1000F000491C0108491C0108491C0108491C010848
:10010000491C0108C9660008491C0108491C01086E
:10011000491C0108491C0108491C0108491C010827
:10012000491C0108491C0108491C0108491C010817
:10013000491C0108491C0108491C0108491C010807
:10014000491C0108491C0108491C0108491C0108F7
:10015000491C0108D5660008491C0108491C010812
:10016000491C0108491C0108491C0108491C0108D7
:10017000491C0108491C0108491C0108491C0108C7
:10018000491C0108491C0108491C0108491C0108B7
:10019000491C0108491C0108491C0108491C0108A7
:1001A000491C0108491C0108491C0108491C010897
:1001B000491C0108491C0108491C0108491C010887
:1001C000491C0108491C0108491C0108491C010877
:1001D000491C0108491C0108491C0108491C010867
:1001E000491C0108491C0108491C0108491C010857
:1001F000491C0108491C0108491C0108491C010847
:10020000491C0108491C0108491C0108491C010836
:10021000491C0108491C0108E1660008491C010845
:10022000491C0108491C0108491C0108491C010816
:10023000491C0108491C0108491C0108491C010806
:10024000491C0108491C0108491C0108ED66000809
:10025000F966000805670008491C010811670008D5
:100260001D670008491C0108491C0108491C0108B8
:0402700021670008FA
:1002800010B5054C237833B9044B13B1044800E092
:1002900000BF0123237010BD24330620000000009E
:1002A00000FE030808B5034B1BB10349034800E0F7
:1002B00000BF08BD000000002833062000FE030830
:1002C00081F0004102E000BF83F0004330B54FEA07
:1002D00041044FEA430594EA050F08BF90EA020F74
:1002E0001FBF54EA000C55EA020C7FEA645C7FEA07
:1002F000655C00F0E2804FEA5454D4EB5555B8BF2A
:100300006D420CDD2C4480EA020281EA030382EA9A
:10031000000083EA010180EA020281EA0303362D2C
:1003200088BF30BD11F0004F4FEA01314FF4801CFF
:100330004CEA113102D0404261EB410113F0004F11
:100340004FEA03334CEA133302D0524263EB4303C8
:1003500094EA050F00F0A780A4F10104D5F1200E66
:100360000DDB02FA0EFC22FA05F2801841F10001C1
:1003700003FA0EF2801843FA05F359410EE0A5F195
:1003800020050EF1200E012A03FA0EFC28BF4CF0C6
:10039000020C43FA05F3C01851EBE37101F000457C
:1003A00007D54FF0000EDCF1000C7EEB00006EEB89
:1003B0000101B1F5801F1BD3B1F5001F0CD3490813
:1003C0005FEA30004FEA3C0C04F101044FEA44526A
:1003D00012F5800F80F09A80BCF1004F08BF5FEAF1
:1003E000500C50F1000041EB045141EA050130BDD1
:1003F0005FEA4C0C404141EB010111F4801FA4F174
:100400000104E9D191F0000F04BF01460020B1FAC8
:1004100081F308BF2033A3F10B03B3F120020CDA00
:100420000C3208DD02F1140CC2F10C0201FA0CF0DE
:1004300021FA02F10CE002F11402D8BFC2F1200C43
:1004400001FA02F120FA0CFCDCBF41EA0C019040F9
:10045000E41AA2BF01EB0451294330BD6FEA040442
:100460001F3C1CDA0C340EDC04F11404C4F120022D
:1004700020FA04F001FA02F340EA030021FA04F33F
:1004800045EA030130BDC4F10C04C4F1200220FA96
:1004900002F001FA04F340EA0300294630BD21FAD4
:1004A00004F0294630BD94F0000F83F4801306BF9A
:1004B00081F480110134013D4EE77FEA645C18BF8E
:1004C0007FEA655C29D094EA050F08BF90EA020F25
:1004D00005D054EA000C04BF1946104630BD91EA1D
:1004E000030F1EBF0021002030BD5FEA545C05D120
:1004F0004000494128BF41F0004130BD14F580045F
:100500003CBF01F5801130BD01F0004545F0FE41D2
:1005100041F470014FF0000030BD7FEA645C1ABF07
:10052000194610467FEA655C1CBF0B46024650EA3E
:10053000013406BF52EA033591EA030F41F400216A
:1005400030BD00BF90F0000F04BF0021704730B5F0
:100550004FF4806404F132044FF000054FF00001C5
:1005600050E700BF90F0000F04BF0021704730B586
:100570004FF4806404F1320410F0004548BF40425B
:100580004FF000013EE700BF42004FEAE2014FEAB0
:1005900031014FEA02701FBF12F07F4393F07F4F8B
:1005A00081F06051704732F07F4208BF704793F08E
:1005B0007F4F04BF41F40021704730B54FF46074A1
:1005C00001F0004521F000411CE700BF50EA0102A4
:1005D00008BF704730B54FF000050AE050EA01024D
:1005E00008BF704730B511F0004502D5404261EBBD
:1005F00041014FF4806404F132045FEA915C3FF4FE
:10060000D8AE4FF003025FEADC0C18BF03325FEA9A
:10061000DC0C18BF033202EBDC02C2F1200300FA4B
:1006200003FC20FA02F001FA03FE40EA0E0021FA70
:1006300002F11444BDE600BF70B54FF0FF0C4CF45E
:10064000E06C1CEA11541DBF1CEA135594EA0C0F10
:1006500095EA0C0F00F0DEF82C4481EA030621EA4B
:100660004C5123EA4C5350EA013518BF52EA033586
:1006700041F4801143F4801338D0A0FB02CE4FF038
:100680000005E1FB02E506F00042E0FB03E54FF068
:100690000006E1FB03569CF0000F18BF4EF0010E60
:1006A000A4F1FF04B6F5007F64F5407404D25FEA5C
:1006B0004E0E6D4146EB060642EAC62141EA55510F
:1006C0004FEAC52040EA5E504FEACE2EB4F1FD0C51
:1006D00088BFBCF5E06F1ED8BEF1004F08BF5FEACF
:1006E000500E50F1000041EB045170BD06F0004681
:1006F00046EA010140EA020081EA0301B4EB5C042E
:10070000C2BFD4EB0C0541EA045170BD41F4801125
:100710004FF0000E013C00F3AB8014F1360FDEBF4A
:10072000002001F0004170BDC4F10004203C35DA26
:100730000C341BDC04F11404C4F1200500FA05F3A9
:1007400020FA04F001FA05F240EA020001F000424A
:1007500021F0004110EBD37021FA04F642EB0601C0
:100760005EEA430E08BF20EAD37070BDC4F10C04EA
:10077000C4F1200500FA04F320FA05F001FA04F2AE
:1007800040EA020001F0004110EBD37041F100019A
:100790005EEA430E08BF20EAD37070BDC4F12005A5
:1007A00000FA05F24EEA020E20FA04F301FA05F20D
:1007B00043EA020321FA04F001F0004121FA04F2B5
:1007C00020EA020000EBD3705EEA430E08BF20EA85
:1007D000D37070BD94F0000F0FD101F000464000BF
:1007E00041EB010111F4801F08BF013CF7D041EA41
:1007F000060195F0000F18BF704703F00046520045
:1008000043EB030313F4801F08BF013DF7D043EA15
:100810000603704794EA0C0F0CEA135518BF95EACB
:100820000C0F0CD050EA410618BF52EA4306D1D152
:1008300081EA030101F000414FF0000070BD50EA71
:10084000410606BF1046194652EA430619D094EAFB
:100850000C0F02D150EA013613D195EA0C0F05D1E5
:1008600052EA03361CBF104619460AD181EA030139
:1008700001F0004141F0FE4141F470014FF00000F1
:1008800070BD41F0FE4141F4780170BD70B54FF08C
:10089000FF0C4CF4E06C1CEA11541DBF1CEA13550C
:1008A00094EA0C0F95EA0C0F00F0A7F8A4EB0504EE
:1008B00081EA030E52EA03354FEA013100F08880E5
:1008C0004FEA03334FF0805545EA131343EA1263AE
:1008D0004FEA022245EA111545EA10654FEA002663
:1008E0000EF000419D4208BF964244F1FD0404F51C
:1008F000407402D25B084FEA3202B61A65EB030578
:100900005B084FEA32024FF480104FF4002CB6EB34
:10091000020E75EB030E22BFB61A754640EA0C00B4
:100920005B084FEA3202B6EB020E75EB030E22BFF4
:10093000B61A754640EA5C005B084FEA3202B6EB35
:10094000020E75EB030E22BFB61A754640EA9C00F4
:100950005B084FEA3202B6EB020E75EB030E22BFC4
:10096000B61A754640EADC0055EA060E18D04FEA82
:10097000051545EA16754FEA06164FEAC30343EA22
:1009800052734FEAC2025FEA1C1CC0D111F4801FEF
:100990000BD141EA00014FF000004FF0004CB6E7E8
:1009A00011F4801F04BF01430020B4F1FD0C88BF87
:1009B000BCF5E06F3FF6AFAEB5EB030C04BFB6EB92
:1009C000020C5FEA500C50F1000041EB045170BD85
:1009D0000EF0004E4EEA113114EB5C04C2BFD4EBB2
:1009E0000C0541EA045170BD41F480114FF0000E36
:1009F000013C90E645EA060E8DE60CEA135594EAB2
:100A00000C0F08BF95EA0C0F3FF43BAF94EA0C0FB4
:100A10000AD150EA01347FF434AF95EA0C0F7FF429
:100A200025AF104619462CE795EA0C0F06D152EA7D
:100A300003353FF4FDAE1046194622E750EA410661
:100A400018BF52EA43067FF4C5AE50EA41047FF472
:100A50000DAF52EA43057FF4EBAE12E74FEA4102D5
:100A6000B2F1E04324BFB3F5001CDCF1FE5C0DD90C
:100A700001F0004C4FEAC0024CEA5070B2F1004F56
:100A800040EB830008BF20F00100704711F0804F59
:100A900021D113F13872BCBF01F00040704741F41E
:100AA00080114FEA5252C2F11802C2F1200C10FA22
:100AB0000CF320FA02F018BF40F001004FEAC12306
:100AC0004FEAD32303FA0CFC40EA0C0023FA02F3AA
:100AD0004FEA4303CCE77FEA625307D150EA013380
:100AE0001EBF4FF0FE4040F44000704701F0004050
:100AF00040F0FE4040F40000704700BF7047704770
:100B000070477047704790F8252012B103685B6901
:100B10001847704781807047C180704701817047D6
:100B20004181704770477047704770477047C3886E
:100B300010B4D21A838812B2C91A036809B25B6D65
:100B40005DF8044B1847806A7047704710B504463B
:100B5000024B036000F064F9204610BDF0FE03086C
:100B600010B50446FFF7F2FF204640F648313CF04E
:100B70004FFD204610BD000010B5044600F07CF982
:100B8000014B2046236010BDF0FE030800F049B978
:100B9000704704387047704710B5044610213CF088
:100BA00037FD204610BDA0F10400F5E7002210B586
:100BB0008260044AC16002F108042032046042608D
:100BC00010BD00BF1CFF0308704704387047704712
:100BD00010B5044610213CF01BFD204610BDA0F1CD
:100BE0000400F5E7002210B58260044AC16002F1FA
:100BF000080420320460426010BD00BF4CFF0308AF
:100C00007047000010B50446024B036000F002FF7D
:100C1000204610BD84FF030810B50446FFF7F2FF1D
:100C2000204641F248313CF0F3FC204610BD000064
:100C300010B5044600F072FF014B2046236010BD42
:100C400084FF030800F0E7BE00220260704770478F
:100C5000704700F598730868496803C37047704788
:100C600002F094B810B504464FF4AE713CF0D0FCDD
:100C7000204610BD10B50446D0F85801FFF7E7FF35
:100C80002046BDE8104015F00FBE10B50446D0F860
:100C9000400158B10368DB68984738B1D4F8400187
:100CA00003689B6898470023C4F8403110BD0000DA
:100CB00010B5044602F03AF8014B2046236010BDFF
:100CC000B8FF0308002070474FF6FF7383814FF091
:100CD000FF3303621368C3611060704790F82520EA
:100CE0001AB190F8242002B118607047704770471D
:100CF000704710B5044608213CF08AFC204610BD20
:100D00000A4A026000228280C2800281428182817E
:100D1000C28102824282C0E90522C2610284428409
:100D200080F82420012280F825207047B03704087D
:100D300070B50446154603681B6B9847236829461F
:100D40002046BDE870405B6B1847000010B50446B4
:100D5000262200213EF0B5F82046FFF7D1FF0C4BCC
:100D60004FF6FF7223600B4B4FF47F01A362002309
:100D7000A285C4E90C3184F8383084F83930A3876F
:100D8000E387A4F84020A4F842206364204610BD05
:100D9000103504080C000408F8B51A4B018F1B88A5
:100DA00006468B4229D9184B1B682BB9174B184A9A
:100DB0006C2118483DF0FCFF13F81120164B1B68FE
:100DC00053F82250154B186802F042FF2B68074673
:100DD0009B6B284698472B6804469B6C39462846EF
:100DE00098472B6814FB00F45B6A394628469847FD
:100DF000A4B22044A6F84600F8BD0023A0F846306F
:100E0000FAE700BF24930820209308201400040868
:100E10009700040856000408289308202C93082003
:100E20007047704710B5044640F648313CF0F0FB7F
:100E3000204610BD1388838613F06FBD10B504469D
:100E4000262200213EF03DF82046FFF759FF0023FF
:100E5000A36284F82C30012384F824304FF6FF730A
:100E6000044AE385238684F832302260A386204634
:100E700010BD00BF9C3404082DE9F04F0446B3B008
:100E800017F0C6FB002327462625E363DE4B2A46E0
:100E900047F8403B002138463EF013F83846FFF74C
:100EA0002FFFDA4BFF2623640023A3664FF6FF7360
:100EB00004F16C082A4684F8666000214046ADF8CB
:100EC000C0303DF0FEFF4046FFF71AFFD04B32AD79
:100ED000E36635F8083D84F894602946A4F892301A
:100EE000404613F0CCFD04F198031846019313F02B
:100EF00007FF04F1E00304F58C7918461893FFF717
:100F00009DFF484613F0FCFE04F5B0731846199394
:100F1000FFF794FF04F5CC731846029313F0F0FE2C
:100F200004F5F07318461A93FFF788FF04F506736B
:100F30001846039313F0E4FE04F5187318461B9348
:100F4000FFF77CFF04F526731846049313F0D8FED0
:100F500004F5387318461C93FFF770FF04F54673C9
:100F60001846059313F0CCFE04F5587318461D93EC
:100F7000FFF764FF04F566731846069313F0C0FE8E
:100F800004F5787318461E93FFF758FF04F5836342
:100F90001846079313F0B4FE04F58C6318461F93AC
:100FA000FFF74CFF04F593631846089313F0A8FE6F
:100FB00004F59C6318462093FFF740FF04F5A363F4
:100FC0001846099313F09CFE04F5AC631846219370
:100FD000FFF734FF04F5B36318460A93FFF7B6FE34
:100FE00004F5BC6318460B9313F08AFE04F5C56341
:100FF00018460C9313F084FE04F5CE631846229332
:10100000FFF71CFF04F5D56318460D9313F078FE27
:1010100004F5DE6318462393FFF710FF04F5E5633C
:1010200018460E9313F06CFE04F5EE6318462493F5
:10103000FFF704FF04F5F56318460F9313F060FE05
:1010400004F5FE6318462593FFF7F8FE04F628031F
:1010500018461093FFF77AFE04F5076318461193BC
:10106000FFF774FE04F6B80318461293FFF76EFEFE
:1010700004F5106318462693FFF7E0FE04F63813D4
:1010800018461393FFF762FE04F51863184614938D
:1010900013F036FE04F6C81318462793FFF7CEFE6A
:1010A00004F520631846159313F02AFE04F648232E
:1010B00018462893FFF7C2FE04F5286318462993C3
:1010C000FFF7BCFE04F6B82318461693FFF73EFE62
:1010D00004F530631846179313F012FE00223846C9
:1010E0001146FFF725FE38464FF44871FFF716FD0D
:1010F00038464FF4F071FFF713FD4FF07F43261D84
:10110000A3663946304610F0D7FD0022404611460E
:10111000FFF70EFE382329464046ADF8C03013F0E5
:10112000AEFC4146304610F0C7FD0198782240F2EF
:1011300025114FF0030BFFF7FBFD4FF004032A4688
:101140002FA90198ADF8C030ADF8BCB013F0E5FBA5
:101150004A234FF0FF3A4FF033083927A4F8D03034
:101160000198FFF719FE01993046C4E935AA10F03D
:10117000A3FD1898A72240F23111FFF7D9FD2A46A6
:101180002FA91898ADF8C070ADF8BC80FFF752FEDB
:101190001899304610F090FD4846E02240F22511A3
:1011A000FFF7C6FD4FF004032FA92A464846ADF8C5
:1011B000C030ADF8BCB013F0B0FB4B224846A4F8E9
:1011C0005021FFF7E9FD49464FF004093046C4F8C5
:1011D00054A1C4F858A110F06FFD199840F20F12F5
:1011E0004FF49871FFF7A4FD2A462FA91998ADF87E
:1011F000C070ADF8BC80FFF71DFE1999304610F0A5
:101200005BFD029806E000BFDC000408A03504087E
:101210007C360408122240F22511FFF789FD2FA920
:101220002A460298ADF8C090ADF8BCB013F075FB3B
:101230004C220298A4F8D021FFF7AEFD0299304667
:10124000C4F8D4A1C4F8D8A110F036FD1A984122F0
:1012500040F23111FFF76CFD2A462FA91A98ADF81C
:10126000C070ADF8BC80FFF7E5FD1A99304610F06C
:1012700023FD0398782240F29D11FFF759FD2FA915
:101280002A460398ADF8C090ADF8BCB013F045FB0A
:1012900047220398A4F85022FFF77EFD03993046B9
:1012A000C4F854A2C4F858A210F006FD1B98A82256
:1012B00040F2A711FFF73CFD2A462FA91B98ADF875
:1012C000C070ADF8BC80FFF7B5FD1B99304610F03B
:1012D000F3FC0498E02240F29D11FFF729FD2FA9AD
:1012E0002A460498ADF8C090ADF8BCB013F015FBD9
:1012F00048220498A4F8D022FFF74EFD0499304606
:10130000C4F8D4A2C4F8D8A210F0D6FC1C9840F2BD
:101310000F1240F2A711FFF70BFD2A462FA91C98C8
:10132000ADF8C070ADF8BC80FFF784FD1C99304665
:1013300010F0C2FC0598122240F29D11FFF7F8FC54
:101340002FA92A460598ADF8C090ADF8BCB013F0AF
:10135000E4FA49220598A4F85023FFF71DFD0599EA
:101360003046C4F854A3C4F858A310F0A5FC1D9847
:10137000412240F2A711FFF7DBFC2A462FA91D9856
:10138000ADF8C070ADF8BC80FFF754FD1D99304634
:1013900010F092FC0698782240F21521FFF7C8FC65
:1013A0002FA92A460698ADF8C090ADF8BCB013F04E
:1013B000B4FA44220698A4F8D023FFF7EDFC06996E
:1013C0003046C4F8D4A3C4F8D8A310F075FC1E9816
:1013D000A8224FF40871FFF7ABFC2A462FA91E98EC
:1013E000ADF8C070ADF8BC80FFF724FD1E99304603
:1013F00010F062FC0798E02240F21521FFF798FCFC
:101400002FA92A460798ADF8C090ADF8BCB013F0EC
:1014100084FA45220798A4F85024FFF7BDFC0799E9
:101420003046C4F854A4C4F858A410F045FC1F98E2
:1014300040F20F124FF40871FFF77AFC2A462FA9E9
:101440001F98ADF8C070ADF8BC80FFF7F3FC1F9992
:10145000304610F031FC0898122240F21521FFF7B7
:1014600067FC2FA92A460898ADF8C090ADF8BCB02B
:1014700013F053FA46220898A4F8D024FFF78CFC06
:1014800008993046C4F8D4A4C4F8D8A410F014FCC9
:10149000209841224FF40871FFF74AFC2A462FA9F1
:1014A0002098ADF8C070ADF8BC80FFF7C3FC209960
:1014B000304610F001FC0998782240F28D21FFF7A8
:1014C00037FC2A462FA90998ADF8C090ADF8BCB0FA
:1014D00013F023FA4FF041030998A4F85035FFF7B1
:1014E0005BFC09993046C4F854A5C4F858A510F01F
:1014F000E3FB2198A8224FF42671FFF719FC2A4636
:101500002FA92198ADF8C070ADF8BC80FFF792FC10
:101510002199304610F0D0FB40F263120A9840F255
:101520008E21FFF705FC4FF07F43C4F8C8354FF01C
:1015300000030DF1A809A4F8CC350A99484612F029
:10154000F7FE99E8070004F2D45C8CE807003B2220
:10155000D74B29460A983093ADF8C42013F082F98E
:101560000A99304610F0A8FB0B98E02240F28D213A
:10157000FFF7DEFB4FF004022FA9ADF8C0200B9857
:101580002A46ADF8BCB013F0C8F942220B98A4F873
:101590001826FFF701FC0B993046C4F81CA6C4F8C6
:1015A00020A610F089FB0C981222AD21FFF7C0FB9A
:1015B0004FF004022FA9ADF8C0200C982A46ADF8D0
:1015C000BCB013F0AAF94F220C98A4F86026FFF7DC
:1015D000E3FB0C993046C4F864A6C4F868A610F082
:1015E0006BFB229840F20F124FF42671FFF7A0FB1D
:1015F0002A462FA92298ADF8C070ADF8BC80FFF73D
:1016000019FC2299304610F057FB0D98122240F237
:101610008D21FFF78DFB4FF004022FA9ADF8C020FC
:101620000D982A46ADF8BCB013F077F943220D9817
:10163000A4F8E026FFF7B0FB0D993046C4F8E4A605
:10164000C4F8E8A610F038FB239841224FF4267125
:10165000FFF76EFB2A462FA92398ADF8C070ADF8AE
:10166000BC80FFF7E7FB2399304610F025FB0E986E
:101670007822AD21FFF75CFB4FF004022FA9ADF8F3
:10168000C0200E982A46ADF8BCB013F046F94D22A2
:101690000E98A4F86027FFF77FFB0E993046C4F838
:1016A00064A7C4F868A710F007FB2498A822BC21FF
:1016B000FFF73EFB2A462FA92498ADF8C070ADF87D
:1016C000BC80FFF7B7FB2499304610F0F5FA0F986D
:1016D000E022AD21FFF72CFB4FF004022FA9ADF85B
:1016E000C0200F982A46ADF8BCB013F016F94E2270
:1016F0000F98A4F8E027FFF74FFB0F993046C4F886
:10170000E4A7C4F8E8A710F0D7FA259840F20F1222
:10171000BC21FFF70DFB2A462FA92598ADF8C07014
:10172000ADF8BC80FFF786FB2599304610F0C4FA6F
:1017300040F26312109840F22711FFF7F9FA4FF0C8
:101740007F404FF00001C4F85808A4F85C184846E0
:10175000109912F0EDFD99E8070004F6640C8CE88E
:1017600007003E22524B294610983093ADF8C42012
:1017700013F078F81099304610F09EFA40F2631298
:1017800011984FF4CF71FFF7D3FA4FF07F404FF02D
:101790000001C4F8A008A4F8A4184846119912F052
:1017A000C7FD99E8070004F6AC0C8CE807003D2261
:1017B0003F4B294611983093ADF8C42013F052F8EE
:1017C0001199304610F078FA40F26312129840F204
:1017D0001621FFF7ADFA4FF07F404FF00001C4F83B
:1017E000E808A4F8EC184846129912F0A1FD99E80F
:1017F000070004F6F40C8CE807003C222C4B294629
:1018000012983093ADF8C42013F02CF8129930469A
:1018100010F052FA26984122BC21FFF789FA2FA82E
:101820002A4601462698ADF8C070ADF8BC80FFF797
:1018300001FB2699304610F03FFA40F263121398EC
:10184000AE21FFF775FA4FF07F404FF00001C4F86A
:101850006809A4F86C194846139912F069FD99E8D3
:101860000700134B04F6741C30933F238CE80700E9
:1018700029461398ADF8C430019312F0F3FF139981
:10188000304610F019FA149879223421FFF750FAF3
:101890004FF004022FA80146ADF8C02014982A4644
:1018A000ADF8BCB013F039F85122149802E000BF33
:1018B0000C000408A4F8B829FFF76EFA1499304612
:1018C000C4F8BCA9C4F8C0A910F0F6F9019B279888
:1018D0001946A922FFF72CFA2FA82A460146279875
:1018E000ADF8C070ADF8BC80FFF7A4FA2799304678
:1018F00010F0E2F91598E0223521FFF719FA4FF0C0
:1019000004022FA80146ADF8C02015982A46ADF86C
:10191000BCB013F002F850221598A4F8382AFFF74B
:101920003BFA15993046C4F83CAAC4F840AA10F016
:10193000C3F9289840F20F124021FFF7F9F92FA8B8
:101940002A4601462898ADF8C070ADF8BC80FFF774
:1019500071FA2899304610F0AFF9019B2998194681
:101960004122FFF7E5F92FA82A4601462998ADF84C
:10197000C070ADF8BC80FFF75DFA2999304610F0D1
:101980009BF9169840F263123521FFF7D1F94FF019
:101990007F424FF00001C4F8E82AA4F8EC1A484648
:1019A000169904F6F42712F0C3FC99E8070087E8BB
:1019B00007004022164B294616983093ADF8C420F4
:1019C00012F050FF1699304610F076F9179812224F
:1019D0003521FFF7ADF905222FA9ADF8C0201798E2
:1019E0002A46ADF8BCB012F098FF2E221798A4F842
:1019F000382BFFF7D1F93046C4F83CABC4F840AB04
:101A0000179910F059F9204633B0BDE8F08F00BFA8
:101A10000C000408704770477047034630B4C5682F
:101A200044686A10ED0704EB02009B6848BFA258A7
:101A300030BC48BFD358184743682BB183682BB9D3
:101A4000C06800F0010070471846704701207047D9
:101A500010B5044610213BF0DBFD204610BD10B54B
:101A6000044641F248313BF0D3FD204610BD00F55D
:101A700095501C30814208B505D114F06BFEBDE8CD
:101A8000084001F093B908BD70B504461E46BDF983
:101A90001050FFF74DF92368314620469A6B904766
:101AA000236829462046BDE87040DB6B18470000DC
:101AB00038B504460D46262200213DF002FA2046A4
:101AC000FFF71EF9064B204623602B882946E38446
:101AD000FF2384F8283012F0D2FF204638BD00BF23
:101AE0007C36040810B50446262200213DF0E9F9B1
:101AF0002046FFF705F90023A36284F82C30012368
:101B000084F82430044B204623604FF6FF73E385AE
:101B1000238684F8323010BD083604082DE9F04FD2
:101B200004462DED048B00272546BBB016F070FD52
:101B3000DD4BE76345F8403B2622394628463DF019
:101B4000C0F92846FFF7DCF8D84B4FF6FF7823643E
:101B5000FF233AAE26F8088D04F16C0904F1980AC7
:101B600084F866303146A7664846FFF7A1FF314644
:101B70005046ADF8E080FFF79BFF04F1C403314607
:101B800018462593ADF8E080FFF792FF04F1F003CB
:101B9000314618462693ADF8E080FFF789FF04F53B
:101BA0008E7318461593FFF7D1F804F5B2731846F3
:101BB0001693FFF7CBF804F5D67318461793FFF783
:101BC000C5F804F5FA7318461893FFF7BFF804F543
:101BD0000F7318461993FFF7B9F804F521731846E7
:101BE0001A93FFF7B3F804F5337318461B93FFF706
:101BF000ADF804F5457318461C93FFF7A7F804F5F4
:101C0000577318461D93FFF7A1F804F5697318463A
:101C10001E93FFF79BF804F57B7318461F93FFF79D
:101C200095F804F2344318462793FFF75BFF04F559
:101C30008D6318462893FFF755FF04F29C4318461E
:101C40002993FFF74FFF04F59A6318462A93FFF78D
:101C500049FF04F2045318462B93FFF743FF04F5A2
:101C6000A76318462C93FFF73DFF04F26C53184608
:101C70002D93FFF737FF04F5B46318462E93FFF753
:101C800031FF04F2D45318462F93FFF72BFF04F5CE
:101C9000C16318463093FFF725FF04F23C633146D9
:101CA00018460393ADF8E08011F02EFD04F2CC63EA
:101CB000314618460493ADF8E08011F025FD04F29A
:101CC0005C7304F2EC7B314618460593ADF8E08076
:101CD00011F01AFD31465846ADF8E08011F014FDC0
:101CE00004F67C0318462093FFF730F804F6C4038B
:101CF00018462193FFF72AF804F60C13184622938E
:101D0000FFF724F804F6541318462393FFF71EF840
:101D100004F69C1318462493FFF718F804F6E4130E
:101D200018460A9310F066FC04F6D82318460B9365
:101D300010F060FC04F6CC3318460C9310F05AFCFB
:101D400004F54C6318461193FFF700F804F60853A6
:101D500018460D9310F04EFC04F6FC5318460E93F3
:101D600010F048FC04F56F6318460F9310F042FC26
:101D700004F6E4731846109310F03CFC04F5865307
:101D8000183318460893FEF7E1FF04F58953184607
:101D90001293FEF7DBFF04F58B53083331461846E8
:101DA0000693ADF8E08011F0AFFC04F58F531833C3
:101DB000314618460793ADF8E08011F0A5FC04F514
:101DC0009453083318461393FFF78CFE04F595538C
:101DD0001C3318461493FFF785FE04F59753103310
:101DE00018460993FEF7B2FF41F238333049E21842
:101DF000E15054602F4A04F59A531A6041F244337B
:101E0000E7504FF4F0733A460093394628464FF4B2
:101E10004873FFF739FE4FF07F4304F10408A366CF
:101E20002946404631930FF047FF3A463946484627
:101E3000FEF77EFF4FF042031D4631464846ADF89F
:101E4000E03012F01CFE494640464FF0FF390FF0DB
:101E500033FF3A4639465046FEF76AFF3146504650
:101E6000ADF8E05012F00BFE51464FF0550A4046D7
:101E70000FF022FF3A4639462598FEF759FF3146C2
:101E80002598ADF8E05012F0FAFD259940460FF084
:101E900013FF3A4639462698FEF74AFF3146269800
:101EA000ADF8E05008E000BF28010408A0350408A0
:101EB000100104086F1A000812F0E1FD269940464F
:101EC00032AD0FF0F9FE2A2215984FF41171FEF78A
:101ED0002FFFC4F84C9115992846A4F8507112F0C0
:101EE00027FA95E8070004F5AC7CD64B8CE8070090
:101EF000314615983893ADF8E4A012F0B3FC15996B
:101F000040460FF0D9FE2A2216984FF4F071FEF7E2
:101F10000FFFC4F8949116992846A4F8987112F00E
:101F200007FA95E8070004F5D07C8CE807005622F4
:101F3000C44B314616983893ADF8E42012F092FC69
:101F4000169940460FF0B8FE2A2217984FF4BE713A
:101F5000FEF7EEFEC4F8DC9117992846A4F8E0716C
:101F600012F0E6F995E8070004F5F47C8CE8070028
:101F70004FF05702B34B314617983893ADF8E42031
:101F800012F070FC179940460FF096FE2A2218981E
:101F90004FF48C71FEF7CCFEC4F8249218992846B1
:101FA000A4F8287212F0C4F995E8070004F50C7C37
:101FB0008CE807005822A34B314618983893ADF8A7
:101FC000E42012F04FFC189940460FF075FE52467F
:101FD000199840F2E711FEF7ABFEC4F86C9219991C
:101FE0002846A4F8707212F0A3F995E8070004F5EA
:101FF0001E7C8CE807005A22924B31461998389380
:10200000ADF8E42012F02EFC199940460FF054FE72
:1020100052461A9840F24B21FEF78AFEC4F8B49259
:102020001A992846A4F8B87212F082F995E80700C8
:1020300004F5307C8CE807005922824B31461A980F
:102040003893ADF8E42012F00DFC1A9940460FF0D9
:1020500033FE52461B985721FEF76AFEC4F8FC92E5
:102060001B992846A4F8007312F062F995E807005E
:1020700004F5427C8CE807005B22724B31461B98CA
:102080003893ADF8E42012F0EDFB1B9940460FF0B9
:1020900013FE52461C9840F21F11FEF749FEC4F889
:1020A00044931C992846A4F8487312F041F995E826
:1020B000070004F5547C8CE807005C22614B314634
:1020C0001C983893ADF8E42012F0CCFB1C994046E4
:1020D0000FF0F2FD52461D98BD21FEF729FEC4F80F
:1020E0008C931D992846A4F8907312F021F995E875
:1020F000070004F5667C8CE807005D22514B3146F1
:102100001D983893ADF8E42012F0ACFB1D994046C1
:102110000FF0D2FD2A221E98B421FEF709FEC4F862
:10212000D4931E992846A4F8D87312F001F995E8C3
:10213000070004F5787C8CE807005E22414B3146AD
:102140001E983893ADF8E42012F08CFB1E9940469F
:102150000FF0B2FD52461F9840F28311FEF7E8FDE2
:10216000C4F81C941F992846A4F8207412F0E0F8D3
:1021700095E8070004F5856C8CE807005F224FF0B6
:102180003C0A4FF03D092F4B31461F983893ADF86C
:10219000E42012F067FB1F9940460FF08DFD279851
:1021A0000C2240F24621FEF7C3FD324637A927989C
:1021B000ADF8DCA0ADF8E09012F0AFFB27994046F7
:1021C0000FF07AFD28980C224FF4BF71FEF7B0FD96
:1021D000324637A92898ADF8DCA0ADF8E09012F0AF
:1021E0009CFB289940460FF067FD29980C224FF47C
:1021F000F171FEF79DFD324637A92998ADF8DCA0B4
:10220000ADF8E09012F089FB299940460FF054FD9B
:102210002A980C224FF48D71FEF78AFD324637A9B9
:102220002A98ADF8DCA0ADF8E09012F076FB2A9980
:1022300040460FF041FD2B980C22B621FEF778FDA9
:1022400006E000BF0C0004080000000000007A4413
:10225000ADF8DCA0ADF8E0904FF0350A4FF06C0916
:10226000324637A92B9812F058FB2B9940460FF0B5
:1022700023FD2C98422240F24621FEF759FD3246BA
:1022800037A92C98ADF8DCA0ADF8E09012F045FB32
:102290002C9940460FF010FD2D9842224FF4F17119
:1022A000FEF746FD324637A92D98ADF8DCA0ADF813
:1022B000E09012F032FB2D9940460FF0FDFC2E9875
:1022C00042224FF4BF71FEF733FD324637A92E98F4
:1022D000ADF8DCA0ADF8E09012F01FFB2E9940465F
:1022E0000FF0EAFC2F9842224FF48D71FEF720FD8B
:1022F000324637A92F98ADF8DCA0ADF8E09012F087
:102300000CFB2F9940460FF0D7FC30984222B621A3
:10231000FEF70EFDADF8DCA04FF07F0A1FED368A08
:10232000ADF8E0904FF028191FED389AF3EE048ACB
:10233000324637A9309812F0F0FA309940460FF043
:10234000BBFC702203984FF4F171FEF7F1FC3146AB
:102350000398ADF8E0A011F079FB039BC4F8449614
:10236000184683ED0B8A83ED0C8A11F019FAB7EE4B
:10237000000A039811F07BFB039B83ED169A184625
:1023800011F00EFA039BC3ED118AC3ED128A83ED9F
:10239000139A184611F004FA039BC3ED148AC3ED97
:1023A000158A184611F0FCF9B0EE481AF0EE480A0A
:1023B000B0EE480A039811F052FB0399404684F8A6
:1023C00065760FF079FC7022049840F24621FEF702
:1023D000AFFC31460498ADF8E0A011F037FB049B48
:1023E000C4F8D496184683ED0B8A83ED0C8A11F05D
:1023F000D7F9B7EE000A049811F039FB049B83ED7E
:10240000169A184611F0CCF9049BC3ED118AC3ED5E
:10241000128A83ED139A184611F0C2F9049BC3ED9A
:10242000148AC3ED158A184611F0BAF9B0EE481AAD
:10243000F0EE480AB0EE480A049811F010FB049937
:10244000404684F8F5760FF037FC702205984FF47B
:10245000BF71FEF76DFC31460598ADF8E0A011F0B4
:10246000F5FA059BC4F86497184683ED0B8A83ED53
:102470000C8A11F095F9B7EE000A059811F0F7FAF9
:10248000059B83ED169A184611F08AF9059BC3ED5A
:10249000118AC3ED128A83ED139A184611F080F960
:1024A000059BC3ED148AC3ED158A184611F078F91F
:1024B000B0EE481AF0EE480AB0EE480A059811F05E
:1024C000CEFA0599404684F885770FF0F5FB702227
:1024D00058464FF48D71FEF72BFC31465846CDF827
:1024E00010A0ADF8E0A011F0B1FAC4F8F497584686
:1024F0008BED0B8A8BED0C8ACDF8149011F050F90E
:10250000B7EE000A584611F0B2FA8BED169A58460B
:1025100011F046F9CBED118ACBED128A8BED139AAF
:10252000584611F03DF9CBED148ACBED158A58468B
:1025300011F036F9B0EE481AF0EE480AB0EE480A4B
:10254000584611F08CFA5946404684F815780FF039
:10255000B3FB40F2BB1220983E21FEF7E9FB319B12
:102560002099C4F8AC382846A4F8B078039311F049
:10257000DFFE95E8070004F6B80383E80700D74BB1
:10258000314638934FF064032098ADF8E43012F0F0
:1025900069F9209940460FF08FFB40F2BB12219859
:1025A0004FF4B571FEF7C4FB039B2199C4F8F438CE
:1025B0002846A4F8F87811F0BBFE95E8070004F56A
:1025C000106383E80700C54B314638936223219896
:1025D000ADF8E43012F046F9219940460FF06CFB5B
:1025E00040F2BB122298A221FEF7A2FB039B229984
:1025F000C4F83C392846A4F8407911F099FE95E8D2
:10260000070004F6481383E80700B44B31463893BB
:1026100065232298ADF8E43012F024F9229940465F
:102620000FF04AFB40F2BB12239840F23221FEF732
:102630007FFB039B2399C4F884392846A4F8887942
:1026400011F076FE95E8070004F5196383E80700AA
:10265000A24B3146389366232398ADF8E43012F04C
:1026600001F9239940460FF027FB40F2BB12249852
:1026700040F29621FEF75CFB039B2499C4F8CC3909
:102680002846A4F8D07911F053FE95E8070004F627
:10269000D81383E80700914B31463893612324987F
:1026A000ADF8E43012F0DEF8249940460FF004FB58
:1026B0000A98D0224FF41471FEF73AFB4FF015033D
:1026C0004FF0760A0DF1DC0BADF8E0305A46334698
:1026D00036A90A984FF01009ADF8D8A0ADF8DCA0E3
:1026E0000FF0E2FFC8223B460192CDF800900A9815
:1026F0000C2209210FF041FF642239460A980FF09D
:10270000A6FD49460A980FF06AFD0A9940460FF067
:10271000D3FA0B98D0224FF42D71FEF709FB4FF03E
:1027200063023346ADF8E02036A95A460B98ADF85F
:10273000D8A0ADF8DCA00FF0B7FFC8213B46CDE92B
:1027400000910B980C2209210FF017FF64223946E3
:102750000B980FF07CFD49460B980FF040FD0B994C
:1027600040460FF0A9FA0C98D0224FF4C471FEF73E
:10277000DFFA4FF015035A46ADF8E03036A933467C
:102780000C98ADF8D8A0ADF8DCA00FF08DFFC821F3
:102790003B46CDE900910C980C2209210FF0EDFE8B
:1027A000642239460C980FF052FD49460C980FF000
:1027B00016FD0C9940460FF07FFA40F2BB121198BB
:1027C0004FF4E771FEF7B4FA039B1199C4F8F03C9B
:1027D0002846A4F8F47C11F0ABFD95E80700119BA6
:1027E0003C3383E807004FF063023C4B31461198BD
:1027F0003893ADF8E42012F035F8119940460FF007
:102800005BFA0D98D0224FF4F671FEF791FA4FF073
:1028100015035A46ADF8E03036A933460D98ADF8A9
:10282000D8A0ADF8DCA00FF03FFFC8223B46CDE9B1
:1028300000920D980C2209210FF09FFE6422394668
:102840000D980FF004FD49460D980FF0C8FC0D9946
:1028500040460FF031FA0E98D0224FF49271FEF7F5
:1028600067FA4FF015035A46ADF8E03036A9334603
:102870000E98ADF8D8A0ADF8DCA00FF015FFC82277
:102880003B46CDE900920E980C2209210FF075FE0F
:10289000642239460E980FF0DAFC49460E980FF084
:1028A0009EFC0E9940460FF007FA0F98D0225C214B
:1028B000FEF73EFA4FF015035A46ADF8E03036A960
:1028C00033460F98ADF8D8A0ADF8DCA00FF0ECFEC1
:1028D000C8223B46CDE9009202E000BF0C0004088C
:1028E0000F980C2209210FF048FE642239460F98F8
:1028F0000FF0ADFC49460F980FF071FC0F99404660
:102900000FF0DAF91098D022C021FEF711FA4FF03B
:1029100015035A46ADF8E03036A933461098ADF8A5
:10292000D8A0ADF8DCA00FF0BFFEC8231098CDE909
:1029300000930C223B460A210FF01FFE6422394609
:1029400010980FF084FC494610980FF048FC10993D
:1029500040460FF0B1F9AA233A4600933946089849
:102960003123FFF791F841F208138F4A0899E2509A
:1029700004F58653A3F84C70284611F0D9FC95E86D
:102980000700089B04F58B593C3383E80700874B0D
:102990003146389368230898ADF8E43011F062FFAF
:1029A000089940460FF088F9129840F2BB124FF494
:1029B0008371FEF7BDF941F25013039A1299E25068
:1029C00004F589539F86284611F0B2FC95E807006C
:1029D000129B3C3383E80700744B314638936723DE
:1029E0001298ADF8E43011F03DFF129940460FF017
:1029F00063F9702206985221FEF79AF9049B31463A
:102A00000698ADF8E03011F021F841F27013059A04
:102A10000698E25089ED0D8A89ED0E8A10F0C0FE0D
:102A2000B7EE000A069811F022F889ED189A069878
:102A300010F0B6FEC9ED138AC9ED148A89ED159A16
:102A4000069810F0ADFEC9ED168AC9ED178A0698F2
:102A500010F0A6FEB0EE481AF0EE480AB0EE480AB2
:102A6000069810F0FCFF89F83170069940460FF087
:102A700023F970220798B621FEF75AF9049B3146D4
:102A80000798ADF8E03010F0E1FF059A04F5905397
:102A900004F58F591A60079889ED118A89ED128A19
:102AA00010F07EFEB7EE000A079810F0E0FF0798DE
:102AB00089ED1C9A10F074FE0798C9ED178AC9EDCC
:102AC000188A89ED199A10F06BFE0798C9ED1A8AD9
:102AD000C9ED1B8A10F064FEB0EE481AF0EE480A09
:102AE000B0EE480A079810F0BAFF0799404689F8F7
:102AF00041700FF0E1F8139842225221FEF718F9C5
:102B00003523ADF8DC306C23324659461398ADF8C6
:102B1000E03011F002FF139940460FF0CDF8149801
:102B20000C225221FEF704F93C23ADF8DC303D23A2
:102B3000324659461498ADF8E03011F0EEFE41F2FD
:102B4000E42204F599531833A350149940460FF02A
:102B5000B3F809982A225021FEF7EAF84FF0FF3225
:102B600004F599531A6004F59753A3F84470099932
:102B7000284611F0DDFB95E80700099B3C3383E80C
:102B800007000A4B3146389360230998ADF8E430CA
:102B900011F068FE404609990FF08EF820463BB0D0
:102BA000BDEC048BBDE8F08FD15E5AFF0C00040829
:102BB00070477047704741607047002210B5B1F907
:102BC0000840B1F90A10028042808480C18010BDA3
:102BD0007047704701230372704770477047704712
:102BE0007047436800F110011A681846526E10478A
:102BF000436800F110011A681846126E10477047BA
:102C0000034610B4C46841686210E40701EB020097
:102C10009B6848BF8A585DF8044B48BFD358184793
:102C200043682BB183682BB9C06800F0010070477E
:102C3000184670470120704710B504460C213AF041
:102C4000E7FC204610BD10B504464FF4AE713AF0D3
:102C5000DFFC204610BD10B5044610213AF0D8FC28
:102C6000204610BD10B5044638213AF0D1FC20466C
:102C700010BD10B5044628213AF0CAFC204610BD0C
:102C800010B513F067FDBDE810400368DB6B184713
:102C900037B50446807A637A0130C0B29842A07298
:102CA00005D9012323720023A37203B030BDB4F908
:102CB0000C20002115F05EFE83B213F0010226D134
:102CC000E0810025164BE1891B881648628BB0F91C
:102CD00000005B1A9BB219B2ADF80400D31A606809
:102CE0006183ADF80210ADF80050ADF8063003680E
:102CF00069461B699847A37A012BD6D10A4B1B78EA
:102D0000002BD2D013F026FD13F02AFDCDE74FF6AD
:102D1000FF710028D8BF0A461344E381D1E700BF02
:102D2000C6920820C4920820CE920820F8B5044626
:102D3000002517460E4613F0F7FD104BC4F83C5122
:102D40001C600F4BC4F8405123600E4BC4F848512F
:102D5000C4F844310C4BC4F84C511868C4F85051B5
:102D6000C4F85471C4F85861036829469B689847B1
:102D7000284600F033FF2046F8BD00BF1C93082012
:102D8000DC010408C4010408D0920820064BC0F8F6
:102D90004801C0F84C310023C0F8503100F5A2734F
:102DA000C0F84031704700BF112F0008064BC0F833
:102DB0004801C0F84C310023C0F8503100F5A2732F
:102DC000C0F84031704700BFE93000082DE9F047F6
:102DD000074690689946036888461B6A1546DDF8E1
:102DE00020A0984741F24733984205D8A321424B8F
:102DF000424A43483BF0DCFF686803681B6A984717
:102E00000F2803D83F4B3D4AA421F2E7E868036846
:102E10001B6A98470B2803D83B4B384AA521E8E7A3
:102E200013F098FC043013F0E2FCD9F8000010B164
:102E30000368DB689847D9F8000010B103681B6885
:102E40009847386810B103685B699847D8F8000064
:102E500010B103685B689847386810B103681B6855
:102E60009847D8F8000010B103689B689847E86855
:102E7000002103685B6A9847044620B10023436041
:102E80000372224B0360A868002103685B6A9847BD
:102E9000064608B1FDF7CCFE6868002103685B6A4E
:102EA0009847054610B13146FDF79CFEC9F8004031
:102EB000C8F800503E60E5B12B1DCAF80030C5F8D7
:102EC00008A03368F5633046DB6898472B682846CE
:102ED0001B6898472146304615F046FD236820467A
:102EE0001B699847236820465B6998472846BDE8D8
:102EF000F0872B46E1E700BF700204088504040850
:102F0000FE0204083F030408E20304083002040838
:102F100007B5D0F8583100F59E710093D0F85421D0
:102F2000034B0448FFF752FF03B05DF804FB00BFFA
:102F3000109308200C9308202DE9F84F074690685D
:102F40009946036888461B6A9346DDF828A098478F
:102F500040F64733984205D8A3215A4B5A4A5B485A
:102F60003BF026FFDBF8040003681B6A98470F2834
:102F700003D8574B544AA421F1E7DBF80C0003684F
:102F80001B6A9847372803D8524B4F4AA521E6E7DA
:102F900013F0E0FB043013F02AFCD9F8000010B164
:102FA0000368DB689847D9F8000010B103681B6814
:102FB0009847386810B103685B699847D8F80000F3
:102FC00010B103685B689847386810B103681B68E4
:102FD0009847D8F8000010B103689B689847DBF861
:102FE0000C00002103685B6A9847044600282FD034
:102FF000394B00250360142300F11006456005726B
:1030000043728572C5812946282230463BF059FF1C
:10301000012384F83530314BA5822361304BE582A2
:1030200025836583A583E583258465842586658658
:1030300084F83450B3F900502A4B3046B3F90010ED
:10304000A581FDF76BFD23692946DB6B3046984768
:10305000DBF80800002103685B6A9847064608B160
:10306000FDF78AFDDBF80400002103685B6A9847DE
:10307000054610B13146FDF799FDC9F80040C8F882
:1030800000503E60E5B12B1DCAF80030C5F808A01D
:103090003368F5633046DB6898472B6828461B6821
:1030A00098472146304615F05FFC236820461B698F
:1030B0009847236820465B6998472846BDE8F88F03
:1030C0002B46E1E7700204088F050408FE0204089D
:1030D0003F030408E2030408540204085C010408E6
:1030E000C6920820C492082007B5D0F8583100F5E0
:1030F0009E710093D0F85421034B0448FFF71CFF46
:1031000003B05DF804FB00BF109308200C93082067
:103110007047000030B5124D8FB02B6813F00103DB
:103120001BD13F2209920F4A012408920E4ACDE991
:103130000B33079204220A93CDE90232CDE905341C
:10314000019316230494009320220849084800F0B4
:103150006BF808482C603BF049FE05480FB030BDC5
:103160004033062028F405086CF20508749804081A
:10317000443306201131000813B5002249B102ABD7
:10318000019203F8052D0268946801AAA04702B0D5
:1031900010BD0846FBE7C0897047008A7047C088A9
:1031A000704780887047807A00F07F007047807A8F
:1031B000C0097047002070479FED010A704700BFAB
:1031C00000000000406A7047806A704770478B8833
:1031D000C069DB0A0A6850F823001044704710B534
:1031E000C2B1137BB3B1547BD27A240204F4E064FD
:1031F0001443026A98B202EB840213888B4202D114
:1032000092F9020010BD05D8013880B204320028BE
:10321000F3D1F7E70020F5E710B504462C213AF08A
:10322000F7F9204610BD000030B504468BB0BDF85C
:1032300060500895BDF85C5007959DF85050069574
:103240009DF84C5005959DF8485004959DF84450C4
:1032500003959DF8405002959DF83C500195BDF8AE
:103260003850009514F0EAFE2046064B2360159B6B
:10327000E361169B2362199B63621A9BA3620BB0E6
:1032800030BD00BFC40604087047000030B5124CC2
:103290008FB0236813F001031BD13F2209920F4A1C
:1032A000CDE90B3308920E4A0A93CDE90632059315
:1032B00004220125CDE901334123CDE90325009303
:1032C0000C2208490848FFF7AFFF084825603BF08B
:1032D0008DFD05480FB030BD703306200CF4050895
:1032E00074F2050804A60408743306208932000825
:1032F0007047000030B5134C8FB0236813F0010302
:103300001CD13F220992104ACDE90B3308920F4A93
:103310000A93CDE90632059304220125CDE9013354
:103320001423CDE9032500932B22172308490948CC
:10333000FFF77AFF084825603BF058FD05480FB0BD
:1033400030BD00BFA03306206CF30508FCF2050871
:10335000ACA60408A4330620F13200087047000030
:1033600030B5124C8FB0236813F001031BD13F22FC
:1033700009920F4ACDE90B3308920E4A0A93CDE920
:103380000632059304220125CDE901335A23CDE904
:10339000032500930C2208490848FFF745FF084819
:1033A00025603BF023FD05480FB030BDD03306202B
:1033B00054F4050868F3050808A90408D433062066
:1033C0005D3300087047000030B5134C8FB02368A0
:1033D00013F001031CD13F220992104ACDE90B33AF
:1033E00008920F4A0A93CDE906320593042201257B
:1033F000CDE901334123CDE9032500931B22492365
:1034000008490948FFF710FF084825603BF0EEFC2B
:1034100005480FB030BD00BF003406205CF405083D
:1034200070F30508B0A9040804340620C533000869
:103430007047000030B5124C8FB0236813F00103C1
:103440001BD13F2209920F4ACDE90B3308920E4A55
:103450000A93CDE90632059304220125CDE9013313
:103460002423CDE9032500930C2208490848FFF7DF
:10347000DBFE084825603BF0B9FC05480FB030BDC5
:103480003034062050F4050874F305082CAB04080A
:1034900034340620313400087047000030B5124C37
:1034A0008FB0236813F001031BD13F2209920F4A0A
:1034B000CDE90B3308920E4A0A93CDE90632059303
:1034C00004220125CDE901337823CDE903250093BA
:1034D0000B2208490848FFF7A7FE084825603BF083
:1034E00085FC05480FB030BD603406204CF405085B
:1034F00080F305086C000508643406209934000840
:103500007047000030B5134C8FB0236813F00103EF
:103510001CD13F220992104ACDE90B3308920F4A81
:103520000A93CDE90632059304220125CDE9013342
:103530002023CDE9032500932822262308490948A2
:10354000FFF772FE084825603BF050FC05480FB0BD
:1035500030BD00BF9034062030F5050884F305081F
:103560000801050894340620013500087047000062
:1035700030B5134C8FB0236813F001031CD13F22E8
:103580000992104ACDE90B3308920F4A0A93CDE90C
:103590000632059304220125CDE901333723CDE915
:1035A000032500931922412308490948FFF73CFEEF
:1035B000084825603BF01AFC05480FB030BD00BF3D
:1035C000C03406207CF30508F0F305086C370508C5
:1035D000C43406206D3500087047000030B5134C28
:1035E0008FB0236813F001031CD13F220992104AC7
:1035F000CDE90B3308920F4A0A93CDE906320593C1
:1036000004220125CDE901330B23CDE903250093E5
:1036100019220D2308490948FFF706FE08482560CE
:103620003BF0E4FB05480FB030BD00BFF03406208E
:1036300070F2050808F40508B4770508F43406208C
:10364000D93500087047000030B5134C8FB023689F
:1036500013F001031CD13F220992104ACDE90B332C
:1036600008920F4A0A93CDE90632059304220125F8
:10367000CDE901332623CDE9032500931B222A231C
:1036800008490948FFF7D0FD084825603BF0AEFB2C
:1036900005480FB030BD00BF2035062078F2050880
:1036A00010F405083893050824350620453600082F
:1036B0007047000030B5124C8FB0236813F001033F
:1036C0001BD13F2209920F4ACDE90B3308920E4AD3
:1036D0000A93CDE90632059304220125CDE9013391
:1036E0003023CDE9032500930B2208490848FFF752
:1036F0009BFD084825603BF079FB05480FB030BDC5
:103700005035062064F3050814F40508B494050840
:1037100054350620B13600087047000030B5124C11
:103720008FB0236813F001031BD13F2209920F4A87
:10373000CDE90B3308920E4A0A93CDE90632059380
:1037400004220125CDE901331423CDE9032500939B
:103750000B2208490848FFF767FD084825603BF041
:1037600045FB05480FB030BD8035062000F3050845
:1037700018F4050850950508843506201937000807
:103780007047000030B5134C8FB0236813F001036D
:103790001CD13F220992104ACDE90B3308920F4AFF
:1037A0000A93CDE90632059304220125CDE90133C0
:1037B0001A23CDE90325009326221E230849094830
:1037C000FFF732FD084825603BF010FB05480FB0BD
:1037D00030BD00BFB035062078F305081CF405089D
:1037E000EC950508B43506208137000870470000C5
:1037F00030B5134C8FB0236813F001031CD13F2266
:103800000992104ACDE90B3308920F4A0A93CDE989
:103810000632059304220125CDE901331A23CDE9AF
:103820000325009326221D2308490948FFF7FCFCC5
:10383000084825603BF0DAFA05480FB030BD00BFFC
:10384000E035062004F3050820F405080098050873
:10385000E4350620ED3700087047000030B5124D02
:103860008FB02B6813F001031BD13F2209920F4A3E
:10387000012408920E4ACDE90B33079204220A93E1
:10388000CDE90232CDE9053401931023049400936D
:10389000212208490848FFF7C7FC08482C603BF084
:1038A000A5FA05480FB030BD1036062060F30508B4
:1038B00024F40508149A050814360620593800081F
:1038C00010B5002404600C6014601C6010BD7047CB
:1038D00030B5134C8FB0236813F001031CD13F2285
:1038E0000992104ACDE90B3308920F4A0A93CDE9A9
:1038F0000632059304220125CDE901332023CDE9C9
:10390000032500932522242308490948FFF78CFC4E
:10391000084825603BF06AFA05480FB030BD00BF8B
:103920004036062088F3050858F40508D8E2050853
:1039300044360620CF380008704708B5132953D8FD
:10394000DFE801F00A0E12161A1E2226462A2E322F
:10395000363A3E4A42464A4E00F08AF8006808BDB0
:1039600000F086F84068FAE700F082F88068F6E731
:1039700000F07EF8C068F2E700F07AF80069EEE740
:1039800000F076F84069EAE700F072F88069E6E74F
:1039900000F06EF8C069E2E700F06AF8406ADEE71E
:1039A00000F066F8806ADAE700F062F8C06AD6E7ED
:1039B00000F05EF8006BD2E700F05AF8406BCEE7FB
:1039C00000F056F8806BCAE700F052F8006CC6E7CA
:1039D00000F04EF8006AC2E700F04AF8C06BBEE79C
:1039E00000F046F8406CBAE70020B8E710B504468E
:1039F000042139F00DFE204610BD704730B5124C41
:103A00008FB0236813F001031BD13F2209920F4AA4
:103A1000CDE90B3308920E4A0A93CDE9063205939D
:103A200004220125CDE901331E23CDE903250093AE
:103A3000122208490848FFF7F7FB084825603BF0C9
:103A4000D5F905480FB030BD70360620F4F30508EF
:103A50002CF5050870F1050874360620FB390008BE
:103A60000048704738070408AD2070476920704748
:103A700000487047A036062010B5FFF779FD1B4CB3
:103A80002060FFF77FFE6060FFF734FCA060FFF767
:103A9000FDFBE060FFF702FD2061FFF73BFB60618B
:103AA000FFF7DCFEA061FFF78FFCE061FFF736FE59
:103AB0002062FFF727FD6062FFF7FCFDA062FFF7C1
:103AC0004FFCE062FFF794FE2063FFF701FF6063A5
:103AD000FFF7BAFDA063FFF781FDE063FFF78EFFFC
:103AE0002064FFF7A7FC606410BD00BFA03606206D
:103AF00000207047002070470EB403B503AB53F8A5
:103B0000042B0021019313F099FD02B05DF804EB42
:103B100003B070470CB407B504AB53F8042B019302
:103B200013F08CFD03B05DF804EB02B070470000A9
:103B300010B5436C044673B3038F2BB9C521184BE2
:103B4000184A19483BF034F9C38E00EB43035B8CF1
:103B50000BB315F094FC238F012B03D8134B144A9D
:103B6000CB21EEE7E28E40F63F10531C9BB2194684
:103B7000092B88BFA3F10A0104EB4101498C814262
:103B800009D10A2B28BF002304EB4202508C04EB1E
:103B90004303588451842046BDE8104015F072BBA1
:103BA000BC140408E9150408C51404080915040820
:103BB0001715040815F02DBB10B586B002AC84E8CB
:103BC00006001A460AAB05930193099B2146009310
:103BD000089B12F041F906B010BD000038B5D8B905
:103BE000114B12481B681249BBB11A689C681A44F1
:103BF00002605A681C441A440A606CB100220D4BE2
:103C00001A80FFF735FF0546FFF730FF0A4B1C60AF
:103C10000A4B1D600A4B188038BD0A4B03600A4BE3
:103C20000B600A4B1C68E8E7E8360620EC360620F5
:103C3000F0360620F436062020930820289308202A
:103C400024930820DCF8050860F60508D8F8050874
:103C5000044B1B6853F82100034B1B6803EB400027
:103C6000704700BFF0360620EC360620012380F8AE
:103C7000781080F879307047002070474164003137
:103C800018BF0121014B1970704700BFCF92082067
:103C900000207047836B0BB10846184770474FF6FA
:103CA000FF707047406803689B691847704770470A
:103CB000704700009022044B83F8762383F8872313
:103CC00083F88423704700BF00E100E0094A0A49F5
:103CD000D3680A48C3F30A03013B9BB20B80116906
:103CE000C1F30A01013901801364536B43F00103EE
:103CF00053637047006801402E3706202C3706209A
:103D0000014B986A704700BF846801400122024B52
:103D1000996243F8602C70478468014070472423FF
:103D200003FB0101002381F82430704780F82C1038
:103D3000704710B50446302139F06AFC204610BDAA
:103D400038B504464FF4005116F09EFB23685D6EB3
:103D500012F000FD01462046A8472368064AD3F822
:103D60008850064900232046A8476268044B5A64DD
:103D7000044A536038BD00BF607B142060C3082034
:103D800030370620FC36062010B531B90A4B0B4AF5
:103D900040F2D2210A483BF00BF8C0E90F12003282
:103DA00018BF012207490A7002681946BDE8104091
:103DB000D2F88C20104700BFBA1704084B2504081E
:103DC000F2170408CE92082008B5094B1B888B42D5
:103DD00003D8084B1B88934205D9074B074A9E21FD
:103DE00007483AF0E5FF074B1980074B1A8008BDDA
:103DF000C4920820C6920820571704080825040812
:103E0000F2170408CA920820CC92082008B531B1F4
:103E1000044B054A4FF4917104483AF0C9FF90F8F9
:103E2000250008BDD4160408D81A0408E8160408AA
:103E300010B531B1064B074A4FF48E7106483AF07F
:103E4000B7FF40681146BDE8104003681B6B184778
:103E5000D416040823210408E816040808B531B173
:103E6000044B054A4FF48A7104483AF0A1FFC06838
:103E700008BD00BFD41604086A220408E816040826
:103E800070B504460D4629B10D4B0E4A5E210E4811
:103E90003AF08EFF406811460368DB689847606817
:103EA00003689B6A98472368E06084F828505E6A3C
:103EB00029462B462046B446BDE8704001226047A3
:103EC000D4160408C41E0408E81604082DE9F041BD
:103ED000044617460D4629B10E4B0F4A4E210F4896
:103EE0003AF066FF40683946026896681A46B0475D
:103EF000606803689B6A98472368E06084F82850EC
:103F00005E6A29462B462046B446BDE8F0410122B0
:103F1000604700BFD4160408501D0408E8160408C2
:103F200008B529B1054B064A402106483AF040FF42
:103F3000C0E905328160016108BD00BFD4160408E4
:103F4000FB1B0408E816040816F0DCB916F00EBADC
:103F50000EF0EFBB0EF05FBD10B504460FF092F906
:103F600023682046BDE81040D3F8AC3018470EF067
:103F700013BD90F87A301BB1406803681B6818477E
:103F80001846704710B590F8784090F834100C4BF4
:103F90008C421A7809D03AB90A490B4A0888148821
:103FA000108001220C801A7010BD002AFCD0064A35
:103FB0000449148808880C8010800022F3E700BFB1
:103FC000C8920820C6920820C492082070B5044602
:103FD00029B1274B274A6E2127483AF0E9FE052AE6
:103FE0002BD8DFE802F003252B30373F4068036809
:103FF0001B69984708B3012384F82530002384F80F
:104000002630A360236194F82730B3B9646823682D
:1040100020469B6A984723680546DB6A20469847F6
:1040200085420AD123682046BDE870409B69184745
:10403000002380F8253080F8263070BDC36100234E
:10404000A3602361F9E7C361012380F8263080F87B
:104050002830F4E70023012280F8253080F826304C
:10406000C261EDE7003318BF012380F82730E4E791
:10407000D416040831180408E81604082DE9F341A1
:1040800005461646984629B1164B174AE9211748A6
:104090003AF08EFE406803681B699847F8B1144CEB
:1040A000012120680FF050F907464146684613F099
:1040B0008BFC104BBDF902101B88BDF9002068680D
:1040C00003FB0122016807EB4202CD693146A84794
:1040D00020680368DB6A02B0BDE8F041184702B00F
:1040E000BDE8F081D4160408B8230408E8160408D3
:1040F000D0920820CA92082008B590F8243033B135
:10410000084B094A40F26B1108483AF051FE01226F
:1041100080F8242081F83430CB860B870B63184657
:1041200008BD00BF2717040803200408E816040888
:10413000F8B5044629B13F4B3F4AA9213F483AF020
:1041400037FE90F825301BB990F82630002B6FD041
:1041500000273B4B1B6893F86B10236984F826708B
:104160000B44236194F82830002B54D01368104678
:104170005B6965689847E6692B682EB331465B6AD0
:10418000284698472B682846DB6AE66998478642A6
:104190002CBF00260126E7612B6828469B6A9847BA
:1041A000A368E0600133A360D4E90432A0695A43F4
:1041B000A36843439A4239D994F82C1069BB012172
:1041C00084F828103046F8BD226A62B1D3E9097339
:1041D00028469847216A01442846B847A368226ABE
:1041E00026621344A36094F827602B6826B19B696C
:1041F000284698470646CFE79B6A284698472B688B
:104200000746DB6A28469847874201D22B68EEE7CB
:1042100084F82560C0E70126C6E7D31AB3FBF0F3A4
:104220000BB92362CBE7013B2362C9E70021C7E753
:104230000126C7E7D41604089E190408E8160408E6
:10424000D09208204FF48002034BDA6080221A617A
:1042500010221A61704700BF00E100E04FF48002B5
:104260000A4BC3F88C20BFF34F8FBFF36F8F8022B0
:10427000C3F89020BFF34F8FBFF36F8F1022C3F8A6
:104280009020BFF34F8FBFF36F8F704700E100E0C6
:1042900008B5054B1A68D20704D4012203481A60F6
:1042A0003AF0A4FD024808BDF8360620B13C0008EB
:1042B0000400002010B5144C236823B3134B144A98
:1042C0001B6C11888B4213D1124B198809F06CFAC0
:1042D000226892F86A30013382F86A3000F0CEFB2F
:1042E00020680EF0CFFFBDE81040002001F09ABB1F
:1042F00009F05AFA206803681B6A9847BDE8104025
:10430000002001F0ABBB10BDD09208200068014036
:104310002E3706202C37062008B50E4800F05AFD2F
:104320000D4B0E4A01211A600022C3E90222C3E9A3
:104330000422C3E9062283F8242083F8252083F889
:10434000262083F8271083F8282083F82C105A6041
:1043500008BD00BF30370620FC3606209C16040836
:1043600003685B6C184701207047FEE7104B82B072
:10437000D3F8882042F48022C3F88820D3F888201C
:1043800002F480220192019A1A6E42F480221A6687
:104390001A6E22F480221A66064B074A1A62074AEE
:1043A0005A624FF48002064BDA6002B0704700BFD9
:1043B000000C0246E8970820CD4300086B43000834
:1043C00000E100E040F2EF3070470000024B1B6854
:1043D000586803685B691847D092082008B50B2815
:1043E0000BD8DFE800F01206100A0A0A0A080808CB
:1043F0000808012008BD0520FCE7054B054A70218F
:1044000005483AF0D5FC0020F4E70220F2E700BFAF
:10441000B325040886260408CE25040808B50A2812
:1044200009D8DFE800F010060E080808080606069E
:104430000600012008BD054B054A912105483AF0C8
:10444000B7FC0020F6E70220F4E700BFB32504081C
:10445000D0260408CE250408F8B50C46487FFFF79F
:10446000BDFFA77F05463846FFF7B8FF064638462A
:10447000FFF7D4FFA38A628BD21A494B1A64A18A30
:10448000628B521A9A61A18A228B521A1A6158635E
:10449000A18AE28A42EA01425A642269DA636268C6
:1044A000DA602268402A70D010D8042A3BD0202A33
:1044B0006BD0237F45EA0365394B45F40035DD6158
:1044C000617FA27F914267D0364A4BE0B2F5807F90
:1044D0001BD0B2F5007F23D0802AEAD1A068021D4C
:1044E000DA62227F45EA026545F40035DD615E62ED
:1044F00022695A610278EAB1012A35D02A4B2B4A47
:1045000040F21B112A483AF053FC217F294A42EA23
:104510000162DA61E2681A625E6222695A6120E031
:10452000217F254AF3E7227F45EA026545F40035FD
:10453000DD61F1E7D9694288501E21F47F420121F3
:1045400022F0100242EA0022DA61154BDA6942F0E9
:104550002002DA61DA699206FCD410229A600029FE
:10456000B2D0164A1A60F8BDDA69408822F47F4258
:10457000217F22F01002013842F01002FF3942EA96
:10458000002218BF0121DA61DFE7237F45EA0365D6
:1045900045F40035024BCBE742F20132E2E700BFBF
:1045A00000B00240012301009925040848260408B0
:1045B000CE2504080A0002000900020001230200BF
:1045C00010B5887F0C46FFF729FF1C4B5863A18A62
:1045D000E28A42EA01425A642269DA63628BA18A62
:1045E000521A1A642268082A16D1A18A628B521ABA
:1045F0009A61A18A628B521A1A615862217F104A0D
:1046000042EA0162DA61E2681A6222695A61226949
:10461000DA600C4A1A6010BD0022D8611A61E168A4
:104620000A0A480902F4784200F4FC600243C1F32C
:10463000C4010A439A63044AECE700BF00B0024099
:104640000900010001230200012303004FF480024E
:10465000044B0360044BC3F88C20BFF34F8FBFF3B0
:104660006F8F70470026040800E100E010B5044693
:10467000FFF7ECFF204640F6A45138F0C9FF204672
:1046800010BD000001231C22084903720868084B72
:1046900002FB0030007E20B1086802FB003001F010
:1046A000B7B8086802FB003001F070B870640620EB
:1046B0001000002010B590F8A03D0446ABB9036887
:1046C0009B6A9847174B1A681C235343164AD35CBE
:1046D000012B09D1154A126832B9227A22B984F81D
:1046E000A03D2046FFF7CEFF10BD037A4BB100235B
:1046F00003721C200B4B1A680B4B00FB023001F0BD
:1047000009F9606803681B6898470028ECD1637A50
:10471000002BE9D0236884F8A00D5B6A2046BDE831
:104720001040184770640620100000206C640620BA
:1047300010B50446406803681B68984758B9637A07
:104740004BB1237A3BB984F8A03D23682046BDE8ED
:1047500010405B6A1847084B1A681C235343074AEA
:10476000D35C012B06D1227A22B984F8A03D2046E1
:10477000FFF788FF10BD00BF706406201000002006
:1047800070B5054600262C460A4B0C3068602E7228
:104790006E7244F8203B602221460EF0D3FE05F5F0
:1047A0005A63E6602434A342FBD185F8A06D284605
:1047B00070BD00BF00260408034B1A68D207FCD462
:1047C00023229A60704700BF00B0024030B50E4C03
:1047D0002568ED07FCD42325A5600225120442F0CC
:1047E0000102FF2B65636264E063E16008D01B0691
:1047F00043F00213E361054B65626061236030BDE5
:10480000034BE3610123F9E700B00240010002001D
:10481000020002FF30B50B4C2568ED07FCD42325C0
:10482000A560022512041B0643F4003342F0010286
:1048300065636264E063E160E361034B656260614C
:10484000236030BD00B002400100020030B50F4CC3
:104850002568ED07FCD42325A5600125090429431B
:10486000FF2B65636164E0630CD00949656241EA2E
:104870000363E36122F07F42064B22626061E060E5
:10488000236030BDE561044BA263F9E700B002404C
:1048900009000100010002000100030030B50D4CC9
:1048A0002568ED07FCD42325A560012512042A43C1
:1048B000FF2B65636264E063E16007D0064A42EA69
:1048C0000363E36165626061226030BD034BE361B5
:1048D0002560FAE700B0024001000200010002FF7B
:1048E00030B50B4C2568ED07FCD42325A5600125C8
:1048F00012041B0643F400332A4365636264E063D9
:10490000E160E361034B65626061236030BD00BF1D
:1049100000B002400100020070B5104C256815F08F
:104920000105FBD12326090441F00101FF2BA660FC
:1049300065636164E0630CD00949656241EA036321
:10494000E36122F07F42074B22626061E0602360F6
:1049500070BDE561044BA263F9E700BF00B00240FF
:1049600009000100010002000100030070B50F4CB6
:10497000256815F00105FBD12326FF2B08BF022374
:104980004FEA024242F00102A66018BF1B066563AF
:104990006264074A18BF43F00213E063E16017BF87
:1049A000E361E36165626061226070BD00B0024056
:1049B0000100020070B50F4C256815F00105FBD110
:1049C0002326120442F00102A6606563626400229D
:1049D000FF2B1CBF1B0643F40033E063E16018BFEC
:1049E000E361044B08BFE5615A62034A58611A60EB
:1049F00070BD00BF00B0024001000200012108B5F7
:104A0000002208460CF009FE0A4B186028B928213C
:104A1000094B0A4A0A483AF0CBF900220421012046
:104A20000CF0A2FE074B186018B9074B034A2C2163
:104A3000F0E708BD7C3706201B270408CF270408B1
:104A400064270408783706208D270408024B4FF0AE
:104A5000FF3118680CF030BE7C370620014B186817
:104A60000CF058BE7C370620024B002118680CF071
:104A700023BE00BF7C370620FFF7F0BF00230348AA
:104A80001A46034900680CF0AFBE00BF7837062015
:104A900008000020002313B5074C1A4601A920681E
:104AA0000CF0D6FE4FF0FF33002201A920680CF075
:104AB000CFFE02B010BD00BF78370620012070473E
:104AC00038207047382303FB010008307047382333
:104AD00003FB0100083070470120704741F2483065
:104AE000704741F2483303FB01000830704741F240
:104AF000483303FB01000830704701207047102045
:104B0000704700EB01100830704700EB01100830CF
:104B100070470846FEF73AB910B50446024B0360E9
:104B20000DF0B6F8204610BD7028040810B50446F4
:104B3000FFF7F2FF2046402138F06AFD204610BD05
:104B400010B50446024B03600DF0A2F8204610BDDC
:104B50003C28040810B50446FFF7F2FF204641F256
:104B6000503138F055FD204610BD000010B5044608
:104B7000024B03600DF08CF8204610BD0828040895
:104B800010B50446FFF7F2FF2046182138F040FD2B
:104B9000204610BD10B50446084B036000F59B503D
:104BA0001C30FFF7B9FF04F12C00FFF7C9FF04F137
:104BB0001400FFF7DBFF204610BD00BFA428040847
:104BC00008B50248FFF7E6FF08BD00BF843706209E
:104BD00010B50446FFF7DEFF204641F21C5138F0C5
:104BE00017FD204610BD00002DE9F341FEF738FF08
:104BF00000240546FEF738FF234601462246284694
:104C0000009415F065F8234D234B244A20461A6082
:104C1000FEF7E4FF214628461EF0CAFA204B214F3A
:104C2000AB60214814F0BCFF3B68DB072CD41F4C61
:104C30001F4E04F59E551F4B04F1140004F12C087F
:104C40006060C4F80880E660256123600DF022F8FA
:104C5000194B404663610DF01DF8184B3046E36276
:104C60000DF018F8164B281F3360FBF7EDFF2246B6
:104C7000291F2846FCF71CF82846FEF787F8012371
:104C800010483B603AF0B2F80F4802B0BDE8F0417E
:104C900000F07EBE1C5B06202C930820185B0620CB
:104CA000A04C0620803706200C0000208437062008
:104CB000004B0620A4280408082804083C280408FF
:104CC00070280408C14B0008645A062008B529F072
:104CD00005F94FF4F0714FF44870012231F024FDD2
:104CE000BDE808400121084635F0DABB01480DF067
:104CF00084BD00BF645A0620F7B5134D134B144F03
:104D0000144E28463B60FFF73BFD30461EF042FA4A
:104D1000114812F073FE4FF448734FF4F0720F4CC9
:104D2000CDE9003229463B463246204615F044FB89
:104D30000B4B23600023C4F8AC30C4F8B030094BEF
:104D4000C4F8A83003B0F0BDC04C0620502C0408B5
:104D5000BC4C06201C5B0620A04C0620645A062092
:104D6000782B0408682C04080148FFF76FBC00BFCB
:104D7000C04C06204069704790F840007047036BB4
:104D800023B9C06A003018BF012070470120704766
:104D900080687047704710B50C4604300FC884E82F
:104DA0000F0010BD7047000008B5034A034B40F2E6
:104DB000F311034839F0FCFF8A2A04088C310408F7
:104DC000F928040810B50446482138F021FC204693
:104DD00010BD000000220E4B10B5114604460360C2
:104DE000C0E90522C0E90722C0E90922C0E90B2277
:104DF000C0E90D22C26380F84020C0E90322C0E967
:104E0000012201200CF009FC024B1860204610BD65
:104E1000C0290408E4FC062030B41546026B42B1F8
:104E2000C46B406B0C1B2044294630BC1A463AF038
:104E300017BCC06A0844F7E710B5036B73B1C36BC6
:104E4000426BC91A531898785C780004525C40EAA7
:104E50000420DB78104340EA036010BDC26A531897
:104E6000525C59789878000440EA0120F1E7036B1E
:104E700043B1C36BC91A436B5A185278585C40EA65
:104E800002207047C36A5A18585C537840EA0320DE
:104E90007047000070B50446006B0D461646D8B149
:104EA000A36B934208D209230D4A84F84030AF2106
:104EB0000C4B0D4839F07CFF0368DB689847206B8A
:104EC00032460368616B1B69984710B90D2384F85B
:104ED0004030606BE56370BDE06A0844FBE700BFEB
:104EE000122B0408A2290408F92804082DE9F0412E
:104EF000436904462BB9214B214AF521214839F059
:104F000057FF08228169FFF7C5FFA16920460431D8
:104F1000FFF792FF43F2300646F26435A169A36AB7
:104F2000084400F108029A4220D263690930013333
:104F300020F0010163610822A1612046FFF7AAFF6A
:104F4000A1692046FFF793FFA16980460231204600
:104F5000FFF78DFFA169074604312046FFF76CFF7C
:104F6000B045DBD1AF42D9D1012004E001230020BC
:104F70006361236AA361BDE8F08100BFB028040823
:104F8000FC290408F928040870B50368002914BF37
:104F90000D460125DB6A04469847A84204D22368DF
:104FA0002046DB6A98470546E66905F18053013BD8
:104FB00006EB0316102206F108012046FFF76AFFF0
:104FC00006F110012046FFF737FF236A043B034434
:104FD000C4E9055370BD000000212DE9F0410446ED
:104FE000816180F840104822FFF754FFA56904232F
:104FF000634A29462046FFF70FFF48B1032340F2DA
:105000003D1184F840305F4A5F4B604839F0D0FE74
:1050100005F10801A16104235D4A2046FFF7FCFE6B
:1050200038B10423574A84F8403040F24511594BB7
:10503000EBE705F10C01A1610423574A2046FFF775
:10504000EBFE074638B105234E4A84F840304FF452
:10505000A671524BD9E705F110012046FFF7ECFE8F
:10506000A669054620B94E4B464A4FF4A971CCE7D4
:1050700006F1080804234B4A41462046FFF7CCFEC0
:10508000002846D0062384F840300423464A06F11F
:105090000C012046FFF7C0FE00283CD0072384F80F
:1050A000403045440C2229462046FFF7F3FE3F4F8F
:1050B00005F1080604233A4631462046FFF7ACFEC8
:1050C00094F84030002845D1002B53D105F10C0352
:1050D0000435A36129462046FFF7AEFE30446062E6
:1050E00029462046FFF7A8FE064404223146204602
:1050F000FFF7D0FE04232E4A31462046FFF78CFEF0
:1051000000283BD101236361A369E6612362BDE806
:10511000F0810127B9E7002FC3D006F11401204622
:10512000FFF78AFE4FF47A73B0FBF3F006F1240127
:1051300060602046FFF780FE06F13401A060204643
:10514000FFF77AFE06F13801E0602046FFF774FEB3
:105150002061A6E773B9A36AAB42B7D9291D2046DF
:10516000FFF76AFE083005440C2229462046FFF767
:1051700091FE9DE70A2384F84030C8E70B23FAE745
:105180002C290408E52A040831290408F928040810
:105190004A2904084F290408672904086C290408CF
:1051A000822904088E2904089329040898290408F0
:1051B0009D290408C0E90A2100220263FFF70CBF01
:1051C000002310B50163C3620B6804469B68084660
:1051D0009847A0622046BDE81040FFF7FDBE0000E2
:1051E00073B51E4C1E4D236000232B601D4D1E4CBD
:1051F00029601E4D23602A6001251D4C1D4A236035
:105200001D4C236013601D4A13601D4A1370C2E9D0
:105210000233C2E90433137693761377C2E9093374
:10522000C2E90B3382F8343082F8353082F83630F8
:10523000144B55765E6B06B115761C25246805FB6C
:105240000422DC684FF4C0736343009353684FF447
:10525000504206F01BFA002002B070BDC4FC0620CC
:10526000D0FC0620D8FC0620D4FC0620DCFC06205E
:105270007064062074640620E0FC0620B8FC06205A
:105280001000002078FC06204B68012B0ED1CB6863
:105290001A071EBF23F00F031033CB608B6818076B
:1052A00003D023F00F0310338B607047022B0DD116
:1052B000CB681A0703D023F00F031033CB608B6841
:1052C0005A07F2D023F007030833EDE7002BECD1A7
:1052D000CB685807F3D023F007030833EEE700004C
:1052E00030B40B4B1A680A441A600A4B1B689A4286
:1052F0000CD2094C9A1A2568B2F5504F2944216006
:1053000028BF4FF4504230BC06F030BA30BC704772
:10531000D0FC0620DCFC0620D8FC06202DE9F84352
:10532000474CDFF838E12368DFF834C110332360DD
:105330001C23DEF80010DFF82C9103FB01C1D9F823
:105340000060404F4E6140493F680D6980467D4393
:1053500006EB0516C9F800604D6926682746B54278
:10536000744665460E460CD3CA684FF4C071DEF829
:1053700000404A4303FB04C35968BDE8F84306F004
:10538000F8B90120DEF8001059430CF80100DEF8EE
:10539000001003FB01C18A600021DEF8002003FB3E
:1053A00002C21161326B22B1DEF8002003FB02C39E
:1053B00018763B68B2699A4225D91C22236802FB01
:1053C000035300229A762368013323602368012B5C
:1053D0004FF01C0388BF226022685343EB5C33B15B
:1053E0000221404606F08FF90122184B1A601C2159
:1053F0002368F26801FB03534FF4C07140464A43EF
:10540000596806F0B6F93B68B2699A420BD81C227B
:105410002368022102FB035501230D4AAB76404667
:10542000136006F070F90B4B1B681B7A2BB90A4B03
:105430001868BDE8F8430CF06DB9BDE8F88300BF0B
:10544000B8FC0620C0FC062078FC0620D4FC062010
:10545000CCFC0620BCFC0620E4FC0620E0FC062078
:1054600010000020C4FC062072B6FEE70122014BAA
:105470001A607047CCFC062038B51B4D04462A68DC
:1054800042B11A4B1B682BB106F064FD042827D0EB
:10549000012038BD164B1868037A6BB9154B1A6892
:1054A0001C235343144AD35C012B05D10F4B1B68BB
:1054B00013B903681B699847104A1368012B0DD173
:1054C0000F4B19681C234B430B49CB5C33B92B683A
:1054D00023B902212046136006F0E2FB0220D8E740
:1054E000204606F049F9D3E7CCFC06206C64062080
:1054F000BCFC06207064062010000020D4FC0620AE
:10550000E0FC062070B50546002A36D0002B34D0CA
:1055100002241A480461EC6826071CBF24F00F041B
:10552000103404604FF4C86444600468144E2409C5
:10553000C4602C6914F00F0418BFC4F11004846017
:10554000104C0F48FFF74CFE6A6C25460E4B1A6054
:105550003046FFF791FF20602368022B05D10B4BEB
:105560004FF0FF3118680CF0A7F82B68012BEFD132
:105570000023074A1360074A136070BD78FC0620B9
:10558000B0980820C8FC0620BCFC0620E4FC0620DD
:10559000CCFC06206C6406202DE9FF479846436941
:1055A00004460E4617462BB92A4B2B4AC1212B48DD
:1055B00039F0FEFB08228169FFF76CFCA1692046E7
:1055C000FFF755FCA169824602312046FFF74FFCE8
:1055D000A169814604312046FFF72EFCA169A36A28
:1055E000083142189A42054626D243F230039A45C2
:1055F00016D146F26433994512D188B10246A161B1
:105600002046FFF747FC0C9B0146CDE9018300973C
:1056100033462A462046FFF775FF6369013363610D
:10562000A3692B448DB1A361A369626A013323F09E
:1056300001039342A3610AD10120236A6061A3613F
:1056400080F0010004B0BDE8F0870833EBE70020EC
:10565000F6E700BFB02804082F2A0408F928040838
:105660002DE9F843044688461746816908221E46FC
:10567000FFF710FCA16920460431FFF7DDFBA169AB
:105680000546024608312046FFF704FC0222374B4C
:105690000146E0681A6102071EBF20F00F021032B7
:1056A0001A604FF4C86208BF18605A601A68B8F9E7
:1056B00002901209DA60B8F80620B8F900E04A440E
:1056C0000FFA82FC2269C3F81490624528BF624633
:1056D00094469A61B8F804204FEA1E18724412B238
:1056E000824228BF024602F10F001A62000912F03E
:1056F0000F02986218BFC2F11002A0EB0800D86236
:105700009A630EF00F001CF00F02186318BFC2F16D
:10571000100209F00F005863DA63C3F81CE02A4650
:10572000C3F8248012483B46FFF75AFD626C114CC7
:10573000114B25461A60114B1E600D4E3046FFF787
:105740009BFE20602368022B05D10D4B4FF0FF31EB
:1057500018680BF0B1FF28680128EFD10023094A2F
:105760001360094A1360BDE8F88300BF78FC062087
:10577000B0980820C8FC0620BCFC0620C0FC06200F
:10578000E4FC0620CCFC06206C640620F0B51C4925
:105790000369CD6A4FF4C077EC1A056102258A6B64
:1057A000C2EB04124C6A12F00F0623440C6907FB8B
:1057B00003F74FEA041403FB04F4124B18BFC6F1BD
:1057C00010065D6390F81AC01504BCF1000F13D0E9
:1057D000C96BC1F11001294359644169C2F548728E
:1057E0000C44DC631A64084A1E61DA6142683A4478
:1057F000DA60064A1A60F0BD45F010055D64ECE71A
:1058000078FC062000B002400B0009FF01230100D4
:105810002DE9F04F01698BB00446374A002966D163
:10582000136BD06A677E01388142D2F83490A07E33
:105830000CBFD2F838804FF00008002F14BFCE46BE
:105840004FF0000E002854D0D2F83CC04FF0320A7E
:105850004FF4C075D2F810B0506A0EFB0BF60AFB7D
:1058600006FA084403FB0BF245430BFB00A0013191
:1058700002EB0010216102EB06120026B9F1000FC5
:1058800000D007B926760121C3F11003A3EB08036A
:10589000ADF81830CEF11003A3EB0C03ADF81A30BD
:1058A000164B174F079363693A441844154B0590FC
:1058B00018680292049601918DF821608DF822609B
:1058C000036801A95B68984702220F4B5A634FF0A7
:1058D00010125A640D4ADF631E641E61DA61626849
:1058E00015440B4ADD601A600BB0BDE8F08F002351
:1058F00097E78446AAE700BF78FC06201000200343
:1059000078640620BCFC062000B002400B0009FFB2
:10591000012301000D4B0269DB6A9A4215D1002375
:105920000B4A0370116883600131116011680376BE
:105930000129437688BF1360837E13B10122054B92
:105940001A60054B18680BF0E5BE704778FC06201E
:10595000706406206C640620E4FC062070477047E3
:105960007047000010B505480C464FF4005105F093
:10597000C3FA08B10120207010BD00BF0008024228
:1059800010B50446082137F043FE204610BD70478D
:1059900038B5044604F1A805FEF7D2F9284600F010
:1059A0000DF9012384F87030014B2561636138BD26
:1059B000E8FC0620FEF7A4B9FEF7A8B9FEF7C8BABE
:1059C000FEF7C8BAFEF776B9FEF73CBCFEF746BC58
:1059D000FEF77CB9FEF7B8BAFEF7B8BA0CF0A3BE72
:1059E00010B50446B42137F013FE204610BD000068
:1059F00008B5054B01461B6800B1012118460DF0A2
:105A00005BFC012008BD00BFD09208200248034B78
:105A10000360FFF7A5BF00BFE8FC06205C2B04086D
:105A200070470000032815D8DFE800F002080C10CA
:105A300001224FF40071084805F064BA01224FF4C6
:105A40008061F8E701224FF40061F4E701224FF48E
:105A50008051F0E7704700BF00000242032815D8CC
:105A6000DFE800F002080C1000224FF40071084833
:105A700005F048BA00224FF48061F8E700224FF4A5
:105A80000061F4E700224FF48051F0E7704700BF57
:105A900000000242032811D8DFE800F002070A0DD7
:105AA0004FF40071064805F032BA4FF48061F9E70F
:105AB0004FF40061F6E74FF48051F3E7704700BF01
:105AC000000002427047704710B50446042137F0C9
:105AD0009FFD204610BD00002DE9F04F17464FF006
